:100000000C9482090C94C9090C94C9090C94C9096F
:100010000C94C9090C94C9090C94C9090C94C90918
:100020000C94C9090C94C9090C945C100C94091126
:100030000C94C9090C94C9090C94C9090C94C909F8
:100040000C94C9090C94652D0C94C9090C94C90928
:100050000C94C9090C94A3210C94C9090C94C909E6
:100060000C94C9090C94C9090C94C9090C94C909C8
:100070000C94C9090C94C9090C94C9090C94C909B8
:100080000C94C9090C94C9090C94C9090C94C909A8
:100090000C94C9090C94C9090C94C9090C94C90998
:1000A0000C94C9090C94C9090C94C90974167416E6
:1000B000A316A316FD163B174419441954174419E7
:1000C000551855181819441944192F19762A9E2ABB
:1000D000D928BE2BBE2B272ABE2BBE2BCB2ABE2B4C
:1000E000DF2A872BBE2BBE2BBE2BBE2B2A2B112B20
:1000F000BE2BFA2ABE2BB72ABE2BCE28B82BB82B84
:10010000B82BB82BB82BB82BB82BB82BB82BB62BD9
:10011000BE2BB62BBE2BBE2BBE2BBE2BBE2BBE2B9F
:10012000BE2BBE2BBE2BBE2BBE2BB62BBE2BBE2B8F
:10013000272A082ABA2BBA2BBA2BBA2BBA2BBA2BDE
:10014000BA2BBA2BBA2BBA2BBA2BBA2B992BBE2BA4
:100150008A2A750F01080208011B021B0104020410
:100160000110021001130213010F020F010802080F
:1001700000750F01E001E2013B023B74FF02E20265
:10018000E074FF011B021B01100210011202120198
:10019000110211015202520128022874FF01E001EC
:1001A000E2013E023E74FF02E202E074FF002D2DE8
:1001B0002D3E72656C656173652C20637572725F8C
:1001C0007765616B5F6D6F64733A2025750A002D4A
:1001D0002D2D3E70726573732C20637572725F777C
:1001E00065616B5F6D6F64733A2025750A002D2D74
:1001F0002D3E70726573732C20746F67676C652079
:10020000636170736C6F636B0A002D2D3E707265B5
:10021000765F7765616B5F6D6F64733A2025750A51
:10022000002D3E72696768742073686966743A20AD
:1002300025750A002D3E6C656674207368696674C6
:100240003A2025750A006E6F7420737570706F7296
:100250007465642E0A000A0A4A756D7020746F2056
:10026000626F6F746C6F616465722E2E2E20006257
:100270000159045A045B045C045D045E045F04607D
:100280000461042B032B014B034E0356015701005D
:10029000C001C001C001C0000031022D023602378A
:1002A00002380200F033022D02360237022A214CB6
:1002B000222924493828322C312B2235212C24297B
:1002C0002834323031018F028F048FF1A2F1A1F175
:1002D000A231A71DA41BA306A819A904A404F00514
:1002E000F009A2352B29DDE0001E14041DE34D1F8B
:1002F0001A151BE24C20091606D52C21131719D606
:100300004A220A070500AAA82F002D00A94630009E
:100310002E00AE230D0B0E00AD240F1110514E25F3
:10032000180836522A261C0C375028273312384F0B
:100330004B393134DEE4000000000000003A0000D8
:100340000000003B00000000013C000000D5013D22
:1003500000000000003E000000000044000000001B
:10036000004500000000003F0000000000400000C9
:1003700000000041000000000142000000000143B5
:10038000000000000000000000000000000000006D
:10039000000000000000000000000000010000005C
:1003A00000000100000000D6000000000000000076
:1003B00000000000000000000000000000C1380044
:1003C00000535F5C59620054605D5A620155615E82
:1003D0005B63015657575858000000000000000AA0
:1003E000002530313662003A200025303258000AAC
:1003F000722F632030313233343536373839414249
:10040000434445460A000A002530325800626F75A1
:100410006E6365213A20006C6566742073696465BB
:100420002061747461636865640A006C6566742099
:1004300073696465206E6F7420726573706F6E648B
:10044000696E670A00747279696E6720746F207232
:1004500065736574206D637032333031380A000A79
:10046000002530325800206D6F64733A2000200060
:1004700025303258006B6579733A20000001000086
:10048000A10612000200000D0586002100001F05D4
:10049000090022000062063F002101003805090022
:1004A000220100D805510021020051050900220255
:1004B00000C30515002103006A050900220300930B
:1004C0000530002104006A050900220400290639CC
:1004D0000003000009050401030904F704100203E6
:1004E0000904E5041010034500720067006F006402
:1004F000006F0078000000100354004D004B002FE7
:10050000004300750062000000040309040902862C
:1005100000050100A03209040000010301010009E7
:100520002111010001223F000705810308000A098B
:100530000401000103000000092111010001225102
:1005400000070582030800010904020001030000FE
:100550000009211101000122150007058303200075
:100560000109040300010300000009211101000139
:100570002230000705840308000A0904040001036F
:10058000000000092111010001223900070585033F
:1005900010000105010980A1018502150125B71987
:1005A0000129B7751095018100C0050C0901A10151
:1005B00085031501269C0219012A9C0275109501DC
:1005C0008100C00631FF0974A1537508150026FF8C
:1005D00000952009758102C005010902A1010901E8
:1005E000A1000509190129051500250175019505C9
:1005F00081027503950181030501093009311581D7
:10060000257F75089502810609381581257F3500FB
:100610004500750895018106050C0A3802158125EB
:100620007F750895018106C0C005010906A1017505
:10063000019508050719E029E715002501810295B4
:1006400005750105081901290591029501750391A8
:100650000395787501150025010507190029778193
:1006600002C005010906A10175019508050719E0F9
:1006700029E715002501810295017508810395057B
:10068000750105081901290591029501750391036A
:1006900095067508150025FF0507190029FF81003B
:1006A000C01201000200000020EDFE07130100014E
:1006B00002000101C10201C10201C12601C10601FE
:1006C000C116000A002530325820006B6579626F30
:1006D0006172645F7265706F72743A20000A00255F
:1006E000303258006B6579626F6172645F73657454
:1006F0005F6C65643A200064656C5F6B65795F626E
:1007000069743A2063616E27742064656C3A202511
:100710003032580A006164645F6B65795F626974A6
:100720003A2063616E2774206164643A2025303278
:10073000580A00646F6E652E0A00626F6F676D6104
:10074000676963207363616E3A202E2E2E20002984
:100750000A002575002F002575005D28002564001E
:100760002000256400200025640020002564007C12
:100770000025303258006D6F7573656B6579205BAD
:1007800062746E7C782079207620685D28726570AE
:100790002F61636C293A205B000A002575006D6BA0
:1007A0005F776865656C5F74696D655F746F5F6DB9
:1007B0006178203D20000A002575006D6B5F776829
:1007C00065656C5F6D61785F7370656564203D2061
:1007D000000A002575006D6B5F74696D655F746F4D
:1007E0005F6D6178203D20000A002575006D6B5F0C
:1007F0006D61785F7370656564203D20000A002597
:1008000075006D6B5F696E74657276616C203D205A
:10081000000A002575006D6B5F64656C6179203D91
:1008200020000A002575006D6B5F776865656C5F59
:1008300074696D655F746F5F6D6178203D20000A9B
:10084000002575006D6B5F776865656C5F6D61781D
:100850005F7370656564203D20000A002575006D9A
:100860006B5F74696D655F746F5F6D6178203D20AB
:10087000000A002575006D6B5F6D61785F737065B0
:100880006564203D20000A002575006D6B5F696E70
:1008900074657276616C203D20000A002575006D3C
:1008A0006B5F64656C6179203D20000A002575004E
:1008B000363A206D6B5F776865656C5F74696D654E
:1008C0005F746F5F6D61783A20000A00257500350E
:1008D0003A206D6B5F776865656C5F6D61785F73FB
:1008E000706565643A20000A00257500343A206D71
:1008F0006B5F74696D655F746F5F6D61783A20003E
:100900000A00257500333A206D6B5F6D61785F7367
:10091000706565643A20000A00257500323A206D42
:100920006B5F696E74657276616C286D73293A200D
:10093000000A00257500313A206D6B5F64656C61BB
:1009400079282A31306D73293A20000A0A2D2D2D7D
:100950002D2D204D6F7573656B6579205061726127
:100960006D6574657273202D2D2D2D2D0A003E208E
:10097000002575004D003F00736574206465666155
:10098000756C742076616C7565732E0A000A0025FB
:10099000750073656C656374656420706172616D68
:1009A000657465723A2000433E20000A51756974EF
:1009B000204D6F7573656B657920436F6E736F6C37
:1009C000650A0053656520687474703A2F2F656E50
:1009D0002E77696B6970656469612E6F72672F7716
:1009E000696B692F4D6F7573655F6B6579730A006D
:1009F0000A002575002C20776865656C3D0025751B
:100A00000077686572652064656C74613A2063756F
:100A100072736F723D000A7370656564203D2064D7
:100A2000656C7461202A206D61785F737065656400
:100A3000202A2028726570656174202F2074696DEA
:100A4000655F746F5F6D6178290A007067646F7706
:100A50006E3A0964656372656173652070617261E5
:100A60006D6574657273282D3130290A00706775C1
:100A7000703A09696E6372656173652070617261B5
:100A80006D6574657273282B3130290A00646F77A5
:100A90006E3A0964656372656173652070617261A5
:100AA0006D6574657273282D31290A0075703A09D5
:100AB000696E63726561736520706172616D6574E2
:100AC000657273282B31290A00643A097365742012
:100AD00064656661756C742076616C7565730A0077
:100AE000703A097072696E7420706172616D65741C
:100AF0006572730A00363A0973656C656374206D1C
:100B00006B5F776865656C5F74696D655F746F5F57
:100B10006D61780A00353A0973656C656374206D00
:100B20006B5F776865656C5F6D61785F7370656535
:100B3000640A00343A0973656C656374206D6B5FF9
:100B400074696D655F746F5F6D61780A00333A098F
:100B500073656C656374206D6B5F6D61785F737036
:100B60006565640A00323A0973656C656374206DCB
:100B70006B5F696E74657276616C286D73290A000B
:100B8000313A0973656C656374206D6B5F64656CE5
:100B90006179282A31306D73290A004553432F713A
:100BA0003A09717569740A000A0A2D2D2D2D2D2020
:100BB0004D6F7573656B657920506172616D6574F9
:100BC0006572732048656C70202D2D2D2D2D0A0027
:100BD0003F004D303E000A456E746572204D6F75C2
:100BE00073656B657920436F6E736F6C650A000ADD
:100BF0005175697420436F6E736F6C65204D6F641F
:100C0000650A00433E20000A0025750020746F200D
:100C1000002575007377697463685F646566617544
:100C20006C745F6C617965723A20006D3A096D6F82
:100C30007573656B65790A004553432F713A0971E5
:100C40007569740A000A0A2D2D2D2D2D20436F6E13
:100C5000736F6C652048656C70202D2D2D2D2D0A2D
:100C600000506175733A096A756D7020746F206267
:100C70006F6F746C6F616465720A00436170733AE0
:100C8000094C6F636B204B6579626F617264284316
:100C900068696C642050726F6F66290A0050536354
:100CA000723A09706F77657220646F776E2F726584
:100CB0006D6F74652077616B652D75700A00342F38
:100CC00046343A0973776974636820746F204C6105
:100CD00079657234200A00332F46333A09737769F5
:100CE00074636820746F204C6179657233200A0048
:100CF000322F46323A0973776974636820746F2023
:100D00004C6179657232200A00312F46313A0973FD
:100D1000776974636820746F204C61796572312043
:100D20000A00302F4631303A0973776974636820BE
:100D3000746F204C6179657230200A006E3A097434
:100D40006F67676C65204E4B524F0A00653A097019
:100D500072696E7420656570726F6D20636F6E6668
:100D600069670A00733A097072696E74207374615E
:100D70007475730A00743A097072696E742074692C
:100D80006D657220636F756E740A00763A09707231
:100D9000696E74206465766963652076657273692F
:100DA0006F6E202620696E666F0A007A3A09746FAA
:100DB00067676C6520736C656570204C45442074D2
:100DC0006573740A006D3A09746F67676C65206D0E
:100DD0006F7573652064656275670A006B3A097404
:100DE0006F67676C65206B6579626F617264206400
:100DF000656275670A00783A09746F67676C6520E9
:100E00006D61747269782064656275670A00643A7E
:100E100009746F67676C6520646562756720656E2D
:100E200061626C650A00633A09656E7465722063DD
:100E30006F6E736F6C65206D6F64650A000A0A2D12
:100E40002D2D2D2D20436F6D6D616E642048656CD6
:100E500070202D2D2D2D2D0A000A002575002E6ED7
:100E60006B726F3A20000A002575002E737761704F
:100E70005F6261636B736C6173685F6261636B7304
:100E8000706163653A20000A002575002E73776152
:100E9000705F67726176655F6573633A20000A0070
:100EA0002575002E6E6F5F6775693A20000A002570
:100EB00075002E737761705F72616C745F72677515
:100EC000693A20000A002575002E737761705F6C07
:100ED000616C745F6C6775693A20000A00257500C3
:100EE0002E636170736C6F636B5F746F5F636F6EA3
:100EF00074726F6C3A20000A002575002E737761BA
:100F0000705F636F6E74726F6C5F636170736C6F30
:100F1000636B3A20000A0025303258006B65796D0A
:100F200061705F636F6E6669672E7261773A200049
:100F30000A002575002E6D6F7573653A20000A0052
:100F40002575002E6B6579626F6172643A20000A24
:100F5000002575002E6D61747269783A20000A00D0
:100F60002575002E656E61626C653A20000A0025C9
:100F70003032580064656275675F636F6E666967DB
:100F80002E7261773A20000A00257500646566615B
:100F9000756C745F6C617965723A20003F004E4B4E
:100FA000524F3A2064697361626C65640A004E4B6B
:100FB000524F3A20656E61626C65640A0075736217
:100FC0005F6B6579626F6172645F69646C655F63B2
:100FD0006F756E743A2025580A007573625F6B65F1
:100FE00079626F6172645F6C6564733A2025580A98
:100FF000005544494E543A2025580A005544494565
:101000004E3A2025580A005544434F4E3A20255861
:101010000A006B6579626F6172645F69646C653A3E
:101020002025580A006B6579626F6172645F707287
:101030006F746F636F6C3A2025580A00686F737481
:101040005F6B6579626F6172645F6C656473282998
:101050003A2025580A000A0A2D2D2D2D2D205374D3
:1010600061747573202D2D2D2D2D0A0074696D6509
:10107000725F636F756E743A202530346C580A00C5
:101080004743433A20342E392E32204156522D4CBC
:101090004942433A20312E382E3073766E20415625
:1010A000525F415243483A20617672350A004F50F0
:1010B00054494F4E533A20504A524320424F4F54C6
:1010C0004D41474943204D4F5553454B45592045C8
:1010D000585452414B455920434F4E534F4C452095
:1010E000434F4D4D414E44204E4B524F20353132EF
:1010F0000A004255494C443A20653266336538301F
:10110000202831313A33373A35372041756720315D
:10111000362032303136290A005649443A20307898
:101120004645454428544D4B2F437562292050496C
:10113000443A20307831333037284572676F646F16
:101140007829205645523A203078303030310A0024
:10115000444553433A20742E6D2E6B2E206B6579D7
:10116000626F617264206669726D77617265206674
:101170006F72204572676F646F780A000A0A2D2D1E
:101180002D2D2D2056657273696F6E202D2D2D2DFE
:101190002D0A000A44454255473A206D6F75736524
:1011A0002064697361626C65642E0A000A444542DA
:1011B00055473A206D6F75736520656E61626C6589
:1011C000642E0A000A44454255473A206B6579620D
:1011D0006F6172642064697361626C65642E0A00D9
:1011E0000A44454255473A206B6579626F617264E3
:1011F00020656E61626C65642E0A000A44454255A2
:10120000473A206D61747269782064697361626C19
:1012100065642E0A000A44454255473A206D6174C0
:1012200072697820656E61626C65642E0A000A44FA
:10123000454255473A20656E61626C65642E0A002E
:101240000A44454255473A2064697361626C65649B
:101250002E0A006E6F7420737570706F72746564FF
:101260002E0A000A0A4A756D7020746F20626F6F33
:10127000746C6F616465722E2E2E2000433E200038
:101280000A456E74657220436F6E736F6C65204DF6
:101290006F64650A00556E6C6F636B65642E0A009F
:1012A0004C6F636B65642E0A006565636F6E6669DB
:1012B000673A0A00536C656570204C45442074659C
:1012C00073740A000000000000000000000000012C
:1012D0000204060A0F17202C3A4A5D71879DB3C796
:1012E000DAE9F5FCFFFCF5E9DAC7B39D87715D4AE1
:1012F0003A2C20170F0A060402010000000000002B
:101300000000000011241FBECFEFDAE0DEBFCDBF2A
:1013100004B603FE27C08091CB019091CC01A0912F
:10132000CD01B091CE018730904BA740B04BD1F4A6
:101330001092CB011092CC011092CD011092CE01EF
:1013400014BE84B7877F84BF0FB6F894A8958091A8
:101350006000886180936000109260000FBEE0E042
:10136000FFE3099511E0A0E0B1E0ECE6FEE502C084
:1013700005900D92A232B107D9F721E0A2E2B1E0C7
:1013800001C01D92AB3CB207E1F70E94EB0E0C943A
:10139000342F0C940000FF93EF93E091B501F0918E
:1013A000B601309709F00995EF91FF910895FC017E
:1013B0008591803011F0EFDFFBCF0895FF27E0E249
:1013C00030E247FF0CC0419597FF09C0EDE2609500
:1013D000709580959095611D711D811D911D27FF50
:1013E00002C0219530E350E2AA27660F771F881FBD
:1013F000991FAA1FA41710F0A41B63955A95A9F76B
:10140000AA3008F0A95FA05DAF93F395611571054F
:101410008105910541F7ED3211F4EF93F395F21741
:1014200018F43F93F395FBCF8F91B5DFFA95E1F771
:101430000895E991F9918591803021F0853219F074
:10144000AADFF9CF089520E0E89455915532C1F311
:10145000503311F4689455915A3348F4505390F333
:10146000220F022E220F220F200D250FF4CF0EF493
:10147000219589919991533619F3533729F15335B1
:1014800059F1BC0188279927E8945C3621F48991A9
:10149000999168945591543639F446EF7EF077FF70
:1014A0000DC08FEF9FEF0AC055374AE039F058352D
:1014B00040E121F0523642E009F00895FF93EF93A6
:1014C0007DDFEF91FF91B7CFFF93EF93FC01819107
:1014D0008030B9F360DFFBCFFF93EF9368DFF1CF8C
:1014E000DF93CF93CDB7DEB72596A3DFCF91DF9102
:1014F000089508950895FF920F931F93CF93DF935C
:101500001F92CDB7DEB78C01F62E611115C00E9477
:10151000661986E592E00E94D7092FEF80E792E0F6
:10152000215080409040E1F700C000000E94C82197
:1015300086E492E00E94D7098EEF8F0D823080F50D
:10154000F8019581292F207F8281222311F090FFBD
:101550001CC0F2E0FF1619F026E090E502C025E07D
:1015600095E0882349F0822F99830E94971D9981E5
:10157000892F0E94421F14C0892F29830E94481F6F
:101580002981822F0E94B81D0BC0882321F088E298
:101590000E94941E03C088E20E94E01E0E94691F00
:1015A0008CEF8F0D823008F08AC08091B30124E067
:1015B000F2120FC080FF1DC01F92FF9284E392E0E1
:1015C0009F938F930E94700A0F900F900F900F902F
:1015D00010C080FF11C01F9285E08F9381E292E0DE
:1015E0009F938F930E94700A0F900F900F900F900F
:1015F00003C092E0F92E02C080E2F82EF801828149
:10160000882309F441C00E943F1F9091B30190FFCD
:1016100025C01F928F932AE032E03F932F93898356
:101620000E94700A0F900F900F900F90898188236D
:10163000B9F08091B30180FF08C08EEE91E09F93D6
:101640008F930E94700A0F900F9089E30E94941E5E
:101650000E94691F89E30E94E01E29C08111F5CF15
:101660008091B30180FF0CC01F92FF928FEC91E03C
:101670009F938F930E94700A0F900F900F900F907E
:101680008F2D0E94421F13C08091B30180FF0CC0B8
:101690001F92FF928EEA91E09F938F930E94700AAF
:1016A0000F900F900F900F908F2D0E94481F0F905A
:1016B000DF91CF911F910F91FF900C94691F0F90B4
:1016C000DF91CF911F910F91FF900895FC018281CE
:1016D000882339F0662341F0613019F482E591E006
:1016E000089580E090E0089581E791E00895CF9318
:1016F000C82F609198017091990180919A01909101
:101700009B010E94A9202C2F30E0843059F4F9016C
:10171000E05CF109E630F10590F5EE0FFF1FE956A8
:10172000FD4F19C0873059F4F901E05CF109E4304C
:10173000F10528F5EE0FFF1FE157FD4F0CC0893072
:1017400071F4F901E05CF109E031F10540F4EE0FCC
:10175000FF1FE159FD4F85919491009799F4205C0A
:1017600031092032310540F4F901EE0FFF1FED552C
:10177000FD4F8591949106C080E090E003C080E029
:1017800090E0EBCFCF910895E62FF0E0472F50E0A7
:10179000833060F496E0949F9001959F300D112462
:1017A00094E5899F200D311D112406C086E0849F99
:1017B0009001859F300D1124E20FF31FED51FD4F75
:1017C000849108958091010181111AC080E40E94E2
:1017D000A60E80930101811111C082E10E94D00EFA
:1017E0008093010181110AC080913F01879588276C
:1017F000879580950E94D00E809301010E94C80EAB
:1018000084B1807F84B985B1807F85B98AB1837FB7
:101810008AB98BB1837F8BB93E98469808950E9410
:10182000B90D0E94490E809301010E94010E0E9491
:10183000E20B80B38C7080BB81B3836F81BBA3E26A
:10184000B1E0E1E3F1E08EE08E0F11921D928E1374
:10185000FCCF08959F92AF92BF92CF92DF92EF920A
:10186000FF920F931F93CF93DF9380910101882301
:10187000E1F0809122018F5F80932201811115C0D8
:1018800085E494E00E94D7090E94490E80930101EB
:10189000882329F08BE294E00E94D70906C087E1F3
:1018A00094E00E94D7090E94010E03E211E0C0E01B
:1018B000D0E0BB24B39482E0A82ECC24C394D12CD6
:1018C00028E0E22E24E0F22EC730D10530F58091D9
:1018D000010181116AC080E40E94A60E809301017B
:1018E000811118C082E10E94D00E80930101811104
:1018F00011C080913F0187958827879596010C2E0E
:1019000001C0220F0A94EAF7822B80950E94D00E24
:10191000809301010E94C80E48C0CA30A1F028F48B
:10192000C83059F0C93061F005C0CC3089F070F092
:10193000CD3089F0209A289810C0219A29980DC09E
:10194000229A2A980AC0239A2B9807C0529A01C05B
:10195000539A5B9802C03E9A469890EA9A95F1F79E
:101960009FB1799902C082E001C080E091709B250F
:10197000982B7C9902C084E001C080E0892B7D997E
:1019800002C038E001C030E0832B7E9902C020E124
:1019900001C020E0822B9FB19095991F9927991F34
:1019A0009295990F907E892B10C080910101811131
:1019B0006EC080E40E94A60E80930101882309F482
:1019C00053C0912C0E94C80E892DF8019081981760
:1019D00039F1808380910001882301F18091B30166
:1019E00080FF04C08DE094E00E94D7098091B3018C
:1019F00080FF0CC0809100011F928F93FF92EF92A5
:101A00000E94700A0F900F900F900F908091B30179
:101A100080FF04C086E094E00E94D709A0920001F4
:101A20000E94E20B21960F5F1F4FCE30D10509F0C7
:101A30004BCF80910001882361F181508093000198
:101A4000882339F08FE99FE00197F1F700C000008B
:101A500020C0A1E3B1E0E3E2F1E0CF01825F919128
:101A60009D938E13FCCF15C083E10E94D00E80930E
:101A700001018111A6CF81E40E94A60E809301018D
:101A800081119FCF0E94E10E982E90949BCF80E011
:101A90009CCF81E0DF91CF911F910F91FF90EF904C
:101AA000DF90CF90BF90AF909F900895E82FF0E027
:101AB000EF5CFE4F80810895CF92DF92EF92FF920C
:101AC0000F931F93CF93DF938FEE93E00E94D7097C
:101AD00081E3E82E81E0F82EC0E0D0E09AEEC92E36
:101AE00093E0D92E01EE13E0DF93CF93DF92CF92F4
:101AF0000E94700A87EE93E00E94D709F701819156
:101B00007F0190E00E940F219F938F931F930F936B
:101B10000E94700A8FED93E00E94D70921968DB73D
:101B20009EB708960FB6F8949EBF0FBE8DBFCE30FD
:101B3000D105D1F6DF91CF911F910F91FF90EF90DA
:101B4000DF90CF90089580FF03C0259A2D9A02C0A0
:101B500025982D9881FF03C0269A2E9A02C02698B8
:101B60002E9882FF03C0279A2F9A089527982F98BE
:101B7000089589EA8093800089E080938100249809
:101B80002C983F988AB18F748AB96E98479A8BB116
:101B9000806B8BB9769A089580910101811130C0D4
:101BA00080E40E94A60E80930101811125C084E18A
:101BB0000E94D00E8093010181111EC080913F01CF
:101BC00087958827879580950E94D00E8093010184
:101BD000811112C080914101982F9795992797956F
:101BE000809140018295880F880F807C892B809599
:101BF0000E94D00E809301010E94C80E80910101C5
:101C0000089556985E9825982D9826982E9827988E
:101C10002F98109241011092400110923F010E94B2
:101C2000CC0D8FEF90E09093890080938800909383
:101C30008B0080938A0090938D0080938C00569A3D
:101C40005E9A259A2D9A269A2E9A279A2F9A81E0A3
:101C5000809341018093400180933F010E94CC0D0D
:101C60002FE782E490E1215080409040E1F700C0EE
:101C7000000056985E9825982D9826982E982798BB
:101C80002F98109241011092400110923F010C9444
:101C9000CC0D80E2809301018091420181110EC040
:101CA0000E94A00E81E0809342012FEF83ED90E32C
:101CB000215080409040E1F700C0000080E40E9485
:101CC000A60E8093010181112EC00E94D00E809338
:101CD0000101811128C00E94D00E80930101811161
:101CE00022C08FE30E94D00E8093010181111BC09E
:101CF0000E94C80E80E40E94A60E8093010181110B
:101D000012C08CE00E94D00E8093010181110BC0A3
:101D10000E94D00E80930101811105C08FE30E94C3
:101D2000D00E809301010E94C80E809101018111A3
:101D300004C00E94CC0D809301018091010108959F
:101D40001092B9008AE08093B800089594EA9093C5
:101D5000BC009091BC0097FFFCCF9091B900987F98
:101D6000983021F0903111F081E008958093BB000C
:101D700084E88093BC008091BC0087FFFCCF8091F9
:101D8000B900887F883111F0803471F780E00895C0
:101D900084E98093BC008091BC0084FDFCCF089551
:101DA0008093BB0084E88093BC008091BC0087FFD7
:101DB000FCCF9091B900987F81E0983209F480E0DF
:101DC000089584E88093BC008091BC0087FFFCCF1D
:101DD0008091BB00089580E88093610010926100BB
:101DE0000E942D100E9446108823E1F38FED9FE0A2
:101DF0000E94A4200E9412140E942A0F0E947C13A9
:101E00000E94402D80914701882369F00E9429217A
:101E1000809148018823B1F30E944E21882391F3D9
:101E20000E945210EFCF0E944014ECCF80914301EA
:101E300008950C9474130C9478130F93FC01008193
:101E400024814381628181810E94E1120F91089572
:101E50000C94C20F82E091E00895FF920F931F93BC
:101E6000CF93DF93182FF92ED62F042F0E94461000
:101E7000811102C08FEF2AC02FB7F894D093E900E8
:101E8000C091E400CE5C8091E80085FF04C0312F52
:101E9000E12FFF2D0EC02FBF0E944610882351F363
:101EA0008091E4008C1731F32FB7F894D093E900B8
:101EB000EACF8E2F831B801720F481918093F1004D
:101EC000F8CF8AE38093E8002FBF80E0DF91CF91C5
:101ED0001F910F91FF900895CF92DF92EF92FF92A2
:101EE0000F931F93CF93DF932091B30122FF41C043
:101EF000EC0185E794E00E94D7098E010E5F1F4F29
:101F00006E0180E1C80ED11C80E7E82E84E0F82E37
:101F1000F80181918F011F928F93FF92EF920E949F
:101F2000700A8EE694E00E94D7090F900F900F90F0
:101F30000F900C151D0561F786E694E00E94D70905
:101F400088811F928F9381E694E09F938F930E94E4
:101F5000700A0F900F900F900F908FE594E0DF9133
:101F6000CF911F910F91FF90EF90DF90CF900C9445
:101F7000D709DF91CF911F910F91FF90EF90DF90E4
:101F8000CF9008950F931F93CF938C0180910F01F1
:101F9000882319F040E165E002C048E061E0C80133
:101FA0000E942D0FC82F811105C010924401C80155
:101FB0000E946C0F8C2FCF911F910F9108951F934A
:101FC000CF93DF93D82F0E944610882371F09FB7DC
:101FD000F89483E08093E90080914601882349F0DA
:101FE0008091E80085FD03C09FBF8FEF2DC0109248
:101FF0004601C091E400CC5F13E08091E80085FDCC
:1020000012C09FBF8091E4008C1304C081E08093D4
:102010004601EBCF0E944610882339F39FB7F8940E
:102020001093E900EACFD093F1008091E80085FD9C
:1020300006C08AE38093E8001092450103C082E065
:10204000809345019FBF80E0DF91CF911F9108955C
:102050008091E80080FFFCCF089581E08093D70055
:1020600080EA8093D80082E189BD09B400FEFDCFEB
:1020700080E98093D8001092E00010924A011092FB
:1020800047018DE18093E2007894089580914A01A0
:10209000882329F09091470181E08927089580E005
:1020A00090E008958091E00082608093E00080914C
:1020B000E00081FDFCCF08951F920F920FB60F92A2
:1020C00011242F933F934F935F936F937F938F933D
:1020D0009F93AF93BF93CF93EF93FF93C091E10092
:1020E0001092E100C0FF17C08091E20080FF13C092
:1020F00080914A01882379F00E94522D8091E2005C
:102100008E7F8093E2008091E20080618093E20004
:1021100081E080934701C4FF1CC08091E20084FFEE
:1021200018C080914A018823A1F00E9462210E9478
:10213000582D0E9486130E94A30D8091E2008160B9
:102140008093E2008091E2008F7E8093E200109203
:102150004701C3FF0FC01092E90081E08093EB00BC
:102160001092EC0082E28093ED0088E08093F00012
:1021700010924A01C2FF3BC080914A018823B9F105
:1021800080914501882391F0815080934501811110
:102190000DC083E08093E9008091E80085FF03C0D3
:1021A0001092F100F9CF8AE38093E80080910F014B
:1021B00081111DC080910C018823C9F080914901D3
:1021C0008F5F80934901837091F481E08093E900EF
:1021D0008091E80085FF0BC0809144018F5F809360
:1021E000440190910C01891302C010924401FF91A7
:1021F000EF91CF91BF91AF919F918F917F916F910F
:102200005F914F913F912F910F900FBE0F901F90B4
:1022100018951F920F920FB60F921124EF92FF9212
:102220000F931F932F933F934F935F936F937F93DE
:102230008F939F93AF93BF93EF93FF93CF93DF93CE
:102240001F92CDB7DEB71092E9008091E80083FFBE
:102250009DC19091F1008091F1003091F1002091A9
:10226000F100E32EF12CF22A0091F1002091F1000F
:1022700010E0122B2091F1004091F10030E0342B5E
:1022800042EF4093E800863009F044C04FE08CE70D
:1022900094E0FC01659174916E157F0539F4FC01A1
:1022A0003296659174916017710721F0079641503D
:1022B00081F76CC1FC01349645915491FC0136962E
:1022C00084912F3F310519F010F02FEF30E02817DF
:1022D00008F4822F3EEF9091E800292F2570D9F362
:1022E00092FD57C1982F813208F090E2FA01292F10
:1022F000222331F064916093F10021503196F8CFA0
:10230000490F511D891B3093E8008111E4CF9032B1
:1023100011F33FC1853051F48EEF8093E8000E94A5
:1023200028108E2D80688093E30033C1893041F5F9
:1023300091117DC0E0924A018EEF8093E80021E088
:1023400083EB96E031E02093E900AC014F5F5F4FF3
:10235000FC016491662361F03093EB00FA01449133
:102360004093EC003196E4910396E093ED0003C0B6
:102370001092EB00CA012F5F273029F78EE742C089
:10238000883041F4903809F052C00E9428108091A2
:102390004A01CDC0811114C099830E9428109981EF
:1023A000923851F40093E9008091EB0085FB882777
:1023B00080F91092E90001C080E08093F100A6C08E
:1023C000482F4D7F413099F5923009F5E114F10421
:1023D00009F085C0402F4F775FEF540F563008F05B
:1023E0007EC09EEF9093E8004093E900833009F4AB
:1023F000CDC089E18093EB0081E090E001C0880FBF
:102400004A95EAF78093EA001092EA00C2C091115F
:102410000EC0F1E0EF16F10409F061C0833021F441
:1024200081E0809348018CC01092480189C0011559
:10243000110509F058C0913A61F58130D9F40E9434
:102440002810E0911001F091110180818093F1003A
:102450001092F10080E090E0E0911001F091110104
:10246000E80FF91F22812093F10001968630910533
:1024700099F766C0823029F40E94281080910C01DF
:1024800056C0833009F082C00E94281080910D014F
:102490004EC0913209F07AC0893061F48091E80031
:1024A00082FFFCCF8091F100809343018BEF8093FA
:1024B000E80046C08A3029F4F0920C0110924401E1
:1024C0003FC08B3009F062C0E0920D0181E0E11065
:1024D00001C080E080930F010E94661931C0011590
:1024E000110509F453C00130110571F5913A11F548
:1024F0008130B9F441E0E416F10459F40E94281047
:102500001092F1001092F1001092F1001092F1007F
:1025100017C083E0E816F104C9F50E94281085E091
:1025200006C0833099F50E94281080910E01809397
:10253000F10006C0913251F58B3041F5E0920E0169
:102540008EEF8093E80025C002301105F9F4813048
:10255000E9F4913AD9F43EEF8091E800982F957014
:10256000D9F382FD16C0822F213208F080E2982F25
:10257000992321F01092F1009150FACF281B30934B
:10258000E8002111E9CF803239F303C081E2809362
:10259000EB000F90DF91CF91FF91EF91BF91AF9141
:1025A0009F918F917F916F915F914F913F912F916B
:1025B0001F910F91FF90EF900F900FBE0F901F9003
:1025C0001895DF92EF92FF920F931F93CF93DF93B3
:1025D000F82E162FD42FC22F0E944610811102C050
:1025E0008FEF3FC080E8F81202C041E8F42E1038A7
:1025F00009F411E8D03809F4D1E8C03809F4C1E889
:102600009FB7F89482E08093E9008091E40022E390
:10261000E22EE80E32E0D32E8091E80085FD0EC058
:102620009FBF0E9446108823D9F28091E4008E1546
:10263000B9F29FB7F894D092E900EECF0093F10081
:10264000F092F1001093F10080910E01882321F0A7
:10265000D093F100C093F1008AE38093E8009FBF1C
:1026600080E0DF91CF911F910F91FF90EF90DF906D
:102670000895FF920F931F93CF93DF93082F162F88
:10268000D72F0E944610811102C08FEF27C09FB73D
:10269000F89484E08093E900C091E400CE5C84E08B
:1026A000F82E8091E80085FD0EC09FBF0E94461065
:1026B000882359F38091E4008C1739F39FB7F8947D
:1026C000F092E900EECF0093F1001093F100D09367
:1026D000F1008AE38093E8009FBF80E0DF91CF9113
:1026E0001F910F91FF900895BC0183E00C94391362
:1026F000BC0182E00C9439139093500180934F01F8
:10270000089580914F01909150010895E0914F01FB
:10271000F0915001309721F00190F081E02D099463
:1027200080E00895EF92FF920F931F93CF93DF9372
:10273000E0914F01F09150013097B1F18C0102808E
:10274000F381E02D09958091B30182FF2DC080FFB8
:1027500004C08BEC96E00E94D709E80110E185ECFB
:10276000E82E86E0F82E8091B30180FF0BC08881AF
:102770001F928F93FF92EF920E94700A0F900F901A
:102780000F900F90115021961111EDCF8091B30150
:1027900080FF0AC083EC96E0DF91CF911F910F91EB
:1027A000FF90EF900C94D709DF91CF911F910F917B
:1027B000FF90EF900895E0914F01F0915001309714
:1027C00021F00480F581E02D0994089520914D01B8
:1027D00030914E018217930771F090934E018093D0
:1027E0004D01E0914F01F0915001309721F00680AA
:1027F000F781E02D0994089520914B0130914C010F
:102800008217930771F090934C0180934B01E091F4
:102810004F01F0915001309721F00084F185E02DB7
:10282000099408950E9464210E940F0C0C942D229B
:10283000CF93C82F8091B30182FF1EC080FF04C0D8
:1028400084EE96E00E94D7098091B30180FF0CC00E
:102850001F92CF938FED96E09F938F930E94700A03
:102860000F900F900F900F908091B30180FF04C0E4
:102870008DED96E00E94D7098C2FCF910C94A30D7B
:10288000CF92DF92EF92FF920F931F93CF93DF933C
:10289000CDB7DEB72B970FB6F894DEBF0FBECDBF16
:1028A0000E942A0C82E5C82E81E0D82E00E010E0BC
:1028B000E02E802F0E94560DF60141916F01F42EFB
:1028C000F826B1F40F5F1F4F0E30110589F78FEF17
:1028D00089838A831B820E946D218160782F9D836A
:1028E0008C8349815A816B818D810E94E31440C0A1
:1028F0009091B30191FF04C08B870E945C0D8B8582
:1029000020E030E04F2D50E0922FBA01022E02C09D
:10291000759567950A94E2F760FF24C02E83EF82D5
:1029200021E030E0690102C0CC0CDD1C9A95E2F791
:1029300090E08C219D21892B09F420E028870E94BA
:102940006D218160782F9A8789874E815F816885A4
:102950008A850E94E314F801EE5AFE4F8081C82652
:10296000C08206C02F5F3F4F2630310569F6AACFDF
:102970000E949E25109151010E9486131817A1F004
:102980000E948613809351012B960FB6F894DEBFF8
:102990000FBECDBFDF91CF911F910F91FF90EF90B0
:1029A000DF90CF900C9418142B960FB6F894DEBFDE
:1029B0000FBECDBFDF91CF911F910F91FF90EF9090
:1029C000DF90CF900895CF93DF93CDB7DEB72B97ED
:1029D0000FB6F894DEBF0FBECDBF4F83588769870F
:1029E0007A878B87DE01119686E0FD0111928A9528
:1029F000E9F785E0FE01379601900D928A95E1F79F
:102A000049815A816B817C818D819E810E94FA1B54
:102A10002B960FB6F894DEBF0FBECDBFDF91CF91DE
:102A20000895CF93882309F4C2C0C82F823859F47F
:102A30000E94861381FDBBC089E30E94941E0E9400
:102A4000691F89E30CC0833879F40E94861380FDE6
:102A5000AEC083E50E94941E0E94691F83E50E9418
:102A6000E01ECF910C94691F843859F40E9486139C
:102A700082FD9DC087E40E94941E0E94691F87E426
:102A8000EECF8CEF8C0F813A48F48C2F0E94CA2B2A
:102A900081118DC08C2F0E94941EE3CF80E28C0F99
:102AA000883048F4C77081E001C0880FCA95EAF702
:102AB0000E942F1FD6CF8BE58C0F833078F4C53A58
:102AC00029F0C63A31F083E890E005C081E890E053
:102AD00002C082E890E0CF910C94E61388E58C0F59
:102AE000833108F064C0C83A39F1C93A41F1CA3AB1
:102AF00049F1CB3A51F1CC3A59F1CD3A61F1C03BB1
:102B000069F1CE3A71F1CF3A79F1C13B81F1C23B23
:102B100089F1C33B91F1C43B99F1C53BA1F1C63B9F
:102B2000A9F1C73BB1F1C83BB9F1C93BC1F1CA3BFF
:102B3000C9F180E090E038C082EE90E035C089EEC7
:102B400090E032C08AEE90E02FC085EB90E02CC080
:102B500086EB90E029C087EB90E026C08CEC90E0FB
:102B600023C08DEC90E020C083E891E01DC08AE88E
:102B700091E01AC082E991E017C084E991E014C0A5
:102B800081E292E011C083E292E00EC084E292E022
:102B90000BC085E292E008C086E292E005C087E2C1
:102BA00092E002C08AE292E0CF910C94FC13CF91A4
:102BB0000895882309F44BC0823859F40E94861383
:102BC00081FF45C089E30E94941E0E94691F89E32A
:102BD0000CC0833871F40E94861380FF38C083E5EF
:102BE0000E94941E0E94691F83E50E94E01E0C94BF
:102BF000691F843859F40E94861382FF28C087E435
:102C00000E94941E0E94691F87E4EFCF9CEF980FEB
:102C1000913A58F390E2980F983050F4877091E011
:102C200001C0990F8A95EAF7892F0E94351FDFCFDF
:102C30009BE5980F933020F480E090E00C94E6132D
:102C4000885A833120F480E090E00C94FC130895BE
:102C5000882321F00E942F1F0C94691F0895882358
:102C600021F00E94351F0C94691F0895BF92CF92E6
:102C7000DF92EF92FF920F931F93CF93DF9300D0D9
:102C800000D000D0CDB7DEB725E0FC01DE01119603
:102C900001900D922A95E1F7FC014081318102817A
:102CA000258122952F7063817481672B09F4ECC212
:102CB0003F3F19F44F3F09F4E7C27C0149833A834F
:102CC00089819A812E830E94531E182FB92E0E944B
:102CD000521E0E94191DEB2DE295EF70F0E0EA5AAA
:102CE000FF4F2E810C94E92E8B2D807F9B2D9F70A2
:102CF000F92E882319F0F29480EFF822002349F08E
:102D0000FF2009F46EC28F2D0E94421F0E94691F8E
:102D100068C2812F0E94D915FF2009F4B5C28F2DFA
:102D20000E94481F26960FB6F894DEBF0FBECDBF97
:102D3000DF91CF911F910F91FF90EF90DF90CF9097
:102D4000BF900C94691F8B2D807F9B2D9F708032CC
:102D500011F4892F03C0892F8295807F112319F0E8
:102D6000113011F12BC00023A9F0222389F1213069
:102D700079F526960FB6F894DEBF0FBECDBFDF9172
:102D8000CF911F910F91FF90EF90DF90CF90BF9068
:102D90000C94521F222319F0213009F475C28E833E
:102DA0000E94551F8E819BC1002321F0263008F020
:102DB0006BC20EC0253008F067C291C10023C9F074
:102DC000222331F0F701958190FF0BC29F7095830C
:102DD00026960FB6F894DEBF0FBECDBFDF91CF9120
:102DE0001F910F91FF90EF90DF90CF90BF900C94C8
:102DF0002816222309F473C109C22B2D2695269586
:102E0000237030E02115310521F021303105D1F05A
:102E10003BC2002321F0812F9B2D937002C080E0E4
:102E200090E026960FB6F894DEBF0FBECDBFDF91BF
:102E3000CF911F910F91FF90EF90DF90CF90BF90B7
:102E40000C94E613002321F0812F9B2D937002C078
:102E500080E090E026960FB6F894DEBF0FBECDBF9F
:102E6000DF91CF911F910F91FF90EF90DF90CF9066
:102E7000BF900C94FC13812F002319F00E9424248E
:102E800002C00E948C2426960FB6F894DEBF0FBEB7
:102E9000CDBFDF91CF911F910F91FF90EF90DF9009
:102EA000CF90BF900C9411258B2D837009F07BC0BF
:102EB0000111EAC1812F829586958770880F880F4E
:102EC000912F9F70C92ED12CE12CF12C082E04C01B
:102ED000CC0CDD1CEE1CFF1C0A94D2F714FF12C0B0
:102EE0004FE050E060E070E004C0440F551F661FE3
:102EF000771F8A95D2F7CB01BA01609570958095BE
:102F0000909503C060E070E0CB012B2D26952695AF
:102F10002370422F50E042305105D9F04330510523
:102F200069F16C297D298E299F294130510551F184
:102F300026960FB6F894DEBF0FBECDBFDF91CF91BE
:102F40001F910F91FF90EF90DF90CF90BF900C9466
:102F5000401D6C297D298E299F2926960FB6F8944D
:102F6000DEBF0FBECDBFDF91CF911F910F91FF90BC
:102F7000EF90DF90CF90BF900C945C1D0E94401D9D
:102F8000C701B60126960FB6F894DEBF0FBECDBFBF
:102F9000DF91CF911F910F91FF90EF90DF90CF9035
:102FA000BF900C94241D002319F08B2D817001C05B
:102FB0008695882309F468C1812F8295869587704C
:102FC000880F880F912F9F70C92ED12CE12CF12CE6
:102FD000082E04C0CC0CDD1CEE1CFF1C0A94D2F79A
:102FE00014FF12C04FE050E060E070E004C0440FF6
:102FF000551F661F771F8A95D2F7CB01BA016095DE
:1030000070958095909503C060E070E0CB012B2D0A
:10301000269526952370422F50E042305105D9F075
:103020004330510569F16C297D298E299F29413052
:10303000510551F126960FB6F894DEBF0FBECDBFF5
:10304000DF91CF911F910F91FF90EF90DF90CF9084
:10305000BF900C941A1E6C297D298E299F292696D3
:103060000FB6F894DEBF0FBECDBFDF91CF911F9199
:103070000F91FF90EF90DF90CF90BF900C94361E91
:103080000E941A1EC701B60126960FB6F894DEBF3D
:103090000FBECDBFDF91CF911F910F91FF90EF90A9
:1030A000DF90CF90BF900C94FE1D103F49F118F4B3
:1030B000103E48F491C0123F09F453C0E8F1133FA9
:1030C00009F464C089C01F708B2D8F71002321F01B
:1030D0000E94971D812F7CCE0E94B81D812F2696BD
:1030E0000FB6F894DEBF0FBECDBFDF91CF911F9119
:1030F0000F91FF90EF90DF90CF90BF900C942F1620
:103100000023B1F0253008F0BFC08B2D8F712696BB
:103110000FB6F894DEBF0FBECDBFDF91CF911F91E8
:103120000F91FF90EF90DF90CF90BF900C94DD1D3A
:10313000263008F0A9C0E9CF0023A9F08B2D8F71AC
:1031400026960FB6F894DEBF0FBECDBFDF91CF91AC
:103150001F910F91FF90EF90DF90CF90BF900C9454
:10316000971D002359F38B2D8F7126960FB6F89477
:10317000DEBF0FBECDBFDF91CF911F910F91FF90AA
:10318000EF90DF90CF90BF900C94B81D002399F082
:103190008B2D8F7126960FB6F894DEBF0FBECDBF74
:1031A000DF91CF911F910F91FF90EF90DF90CF9023
:1031B000BF900C94821D26960FB6F894DEBF0FBE0A
:1031C000CDBFDF91CF911F910F91FF90EF90DF90D6
:1031D000CF90BF900C94781D0023A9F0222309F40E
:1031E000ADCF812F26960FB6F894DEBF0FBECDBFB0
:1031F000DF91CF911F910F91FF90EF90DF90CF90D3
:10320000BF900C941115222309F4ADCF812F26967F
:103210000FB6F894DEBF0FBECDBFDF91CF911F91E7
:103220000F91FF90EF90DF90CF90BF900C94D91545
:103230004B2D4F70612FC7010E94660B26960FB66B
:10324000F894DEBF0FBECDBFDF91CF911F910F91DC
:10325000FF90EF90DF90CF90BF900C949E1C4B2D71
:103260004F70612FC70126960FB6F894DEBF0FBED0
:10327000CDBFDF91CF911F910F91FF90EF90DF9025
:10328000CF90BF900C947B0A26960FB6F894DEBFC1
:103290000FBECDBFDF91CF911F910F91FF90EF90A7
:1032A000DF90CF90BF9008950E944F1F0E94211F72
:1032B0000E94691F0E9443260E94112580E090E031
:1032C0000E94E61380E090E00C94FC130E943C1FE7
:1032D0000C9454190E94531E292F22952F7030E010
:1032E0002C3031054CF42A30310594F42250310948
:1032F0002230310538F40CC02C30310529F02F3044
:10330000310511F080E0089593FB882780F9089536
:1033100081E00895CF93DF9300D000D01F92CDB706
:10332000DEB70F900F900F900F900F90DF91CF911D
:103330000895CF93DF9300D000D000D0CDB7DEB793
:1033400026960FB6F894DEBF0FBECDBFDF91CF91AA
:1033500008951F93CF93DF93C091600116E0809191
:103360006101C81799F0D0E01C9FF0011D9FF00D7E
:103370001124EE59FE4F4081518162817381848115
:1033800095810E9499192196C770E9CFDF91CF915D
:103390001F91089540919201509193016091940181
:1033A0007091950180919601909197010C949919D3
:1033B0008091970182958F7009F054C0809194019B
:1033C000882309F44FC080916001A0916101609150
:1033D0009201709193014091950150919601B6E050
:1033E0008A1709F43FC090E041155105C1F17F3FB4
:1033F00011F46F3FA1F1B89FF001B99FF00D1124B6
:10340000EE59FE4F218172132AC02081621327C01A
:103410002281211124C0238134812417350710F41F
:1034200021503109241B350B263E3105C0F4209173
:1034300097012F7020612093970126E0289FF001CB
:10344000299FF00D1124E959FE4F80818F70806112
:10345000808382E991E00E9436160C94A9190196A6
:103460008770BECF0895CF92DF92EF92FF920F93B5
:103470001F93CF93DF93CDB7DEB762970FB6F89463
:10348000DEBF0FBECDBF8C0185E0F801DE011D96C9
:1034900001900D928A95E1F7D8014C9111965C91BB
:1034A000119712966C9112971396CD90DC90149709
:1034B00030919201709193018091950190919601C4
:1034C000009709F46BC17F3F19F43F3F09F466C1CF
:1034D000E0909401EE2009F4C0C020919701C81635
:1034E000D90628F0F601E81BF90BCF0104C080953E
:1034F00090958C0D9D1DFF24F394863E910578F0E8
:10350000F12C207F09F0C6C07C2DD98AC88A898910
:103510000E948A1982E991E00E943616B1C0822F7A
:10352000807F09F046C0751314C0341312C06111B6
:1035300010C02F702061209397010E94CA1982E960
:1035400091E00E94361680919701D80115968C93D0
:103550002EC0CD2819F15F3F11F44F3FF9F0F62E40
:1035600061111CC0809160012091610136E08217D9
:1035700009F45AC090E0389FF001399FF00D1124F2
:10358000EE59FE4F7181571306C07081471303C077
:103590007281711103C001968770E9CFF62E662300
:1035A00009F418C180919701816080939701F12CF3
:1035B00011C1751308C0341306C0611104C0809195
:1035C0009701D801C3C04D875E878D859E856A8B24
:1035D0000E946A196A898823E1F16623D1F120915A
:1035E0009701822F82958F7090E0029774F08091FE
:1035F00092019091930198878F831986DB86CA8602
:103600002C87CE0107960E94361686E0F801A2E9C3
:10361000B1E001900D928A95E1F70E94D8190E94BD
:10362000CA19FF24F394D6C04D875E878D859E8589
:103630000E94531E292F22952F7030E02230310531
:103640000CF0BCC09F7009F0B6C0805E883008F4F2
:10365000C1C0C8010E943616E4CFC816D90608F4C6
:1036600053C0F601E81BF90BCF01863E910508F423
:1036700050C0F12C7C2DD98AC88A89890E948A1968
:10368000E2E9F1E086E0DF011D928A95E9F70E9408
:10369000CA19A0C0751314C0341312C0611110C030
:1036A00080919701F8018583C8010E94361686E053
:1036B000E2E9F1E0DF011D928A95E9F7FE2C8AC06C
:1036C0004D875E878D859E856A8B0E946A196A89FF
:1036D000882309F4BECF662309F4BBCF209197015C
:1036E000822F82958F7090E002970CF48ECF80919C
:1036F0009201909193019A8389831B82DD82CC820F
:103700002E83CE0101967FCF809590958C0D9D1DC7
:10371000ACCFF62E662309F49CCF75132EC034135C
:103720002CC02091970120FD1FC0822F82958F70A1
:10373000D9F0D80115962C9315978F3049F08F5FEB
:10374000982F9295907F822F8F70892B15968C934E
:10375000C8010E94361686E0F801A2E9B1E00190A6
:103760000D928A95E1F793CF86E0F801A2E9B1E0E6
:1037700001900D928A95E1F72DC04D875E878D856A
:103780009E850E946A19811140CF809197018160C6
:1037900080939701C8010E9436161CC0662309F465
:1037A00058CF4D875E878D859E850E946A19882334
:1037B00009F44FCF2ACF811148CF0CC024303105F6
:1037C0000CF047CF9F7009F440CFF8019581907FAE
:1037D00009F03BCF8F2D62960FB6F894DEBF0FBE77
:1037E000CDBFDF91CF911F910F91FF90EF90DF90B0
:1037F000CF9008951F93CF93DF93CDB7DEB72C976B
:103800000FB6F894DEBF0FBECDBF4F8358876987D0
:103810007A878B879C87CE0107960E94331A88236C
:1038200069F08F8198852A853B85232BF1F19F3F95
:1038300009F063C08F3F09F060C037C086E0FE0129
:103840003796DE01119601900D928A95E1F76F810E
:103850007885EA85FB85309741F17F3F11F46F3F12
:1038600021F12091610130E0C9010196877099270B
:103870004091600150E08417950709F447C06983BF
:103880007A83FD83EC8396E0929FD001939FB00DE5
:103890001124AE59BE4FFE01319601900D929A95BA
:1038A000E1F7809361010E94A91916E080916001FF
:1038B000909161018917C1F1189FC00111248E599F
:1038C0009E4F0E94331A882379F1E09160011E9F78
:1038D000F0011124EE59FE4F4081518162817381C4
:1038E000848195810E9499198091600190E00196F0
:1038F0008770992780936001D9CF4F81588569855A
:103900007A858B859C850E949919CFCF0E94661974
:103910001092610110926001E2E9F1E086E0DF01BE
:103920001D928A95E9F7C1CF2C960FB6F894DEBFA9
:103930000FBECDBFDF91CF911F910895EF92FF92FF
:103940000F931F93CF93DF938C01892B09F46AC0E7
:10395000F12CEE24E394E8012196F8018491843758
:1039600040F4843008F04FC0813081F0823019F18A
:1039700059C0853709F442C098F19CE7980F9037F9
:1039800008F050C08F770E94D9153FC00E5F1F4FBF
:10399000FE01C49180E28C0F883048F4C7708E2DF0
:1039A00001C0880FCA95EAF70E94421F2FC08C2FD2
:1039B0000E9411152BC00E5F1F4FFE01C49180E2C3
:1039C0008C0F883048F4C7708E2D01C0880FCA95BF
:1039D000EAF70E94481F1AC08C2F0E94D91516C002
:1039E0000E5F1F4FFE01C491CC2381F08FE99FE051
:1039F0000197F1F700C00000C150F6CF0E5F1F4FD6
:103A0000FE01F49003C00E9411158E018F2D8823B2
:103A100009F4A1CFEFE9FFE03197F1F700C0000012
:103A20008150F5CFDF91CF911F910F91FF90EF90D3
:103A30000895089560939C0170939D0180939E0169
:103A400090939F010C9454190F931F9300919C0124
:103A500010919D0120919E0130919F01DC01CB01CD
:103A6000802B912BA22BB32B80939C0190939D01D3
:103A7000A0939E01B0939F011F910F910C94541934
:103A80000F931F9300919C0110919D0120919E0125
:103A900030919F01DC01CB0180239123A223B3232A
:103AA00080939C0190939D01A0939E01B0939F01F0
:103AB0001F910F910C9454190F931F9300919C0127
:103AC00010919D0120919E0130919F01DC01CB015D
:103AD00080279127A227B32780939C0190939D0173
:103AE000A0939E01B0939F011F910F910C945419C4
:103AF000109298011092990110929A0110929B01D4
:103B00000C94541941E050E060E070E004C0440FB0
:103B1000551F661F771F8A95D2F7409398015093DF
:103B2000990160939A0170939B010C94541941E0A0
:103B300050E060E070E004C0440F551F661F771F1F
:103B40008A95D2F78091980190919901A0919A015C
:103B5000B0919B01482B592B6A2B7B2B40939801EA
:103B60005093990160939A0170939B010C9454199E
:103B700041E050E060E070E004C0440F551F661F54
:103B8000771F8A95D2F740955095609570958091F2
:103B9000980190919901A0919A01B0919B014823BD
:103BA00059236A237B234093980150939901609392
:103BB0009A0170939B010C94541941E050E060E02D
:103BC00070E004C0440F551F661F771F8A95D2F717
:103BD0008091980190919901A0919A01B0919B01D7
:103BE000482759276A277B274093980150939901CA
:103BF00060939A0170939B010C9454190F931F9337
:103C0000009198011091990120919A0130919B01A6
:103C1000DC01CB01802B912BA22BB32B809398013D
:103C200090939901A0939A01B0939B011F910F91DA
:103C30000C9454190F931F930091980110919901BE
:103C400020919A0130919B01DC01CB0180239123CB
:103C5000A223B3238093980190939901A0939A0192
:103C6000B0939B011F910F910C9454190F931F93C4
:103C7000009198011091990120919A0130919B0136
:103C8000DC01CB0180279127A227B32780939801DD
:103C900090939901A0939A01B0939B011F910F916A
:103CA0000C9454190895CF92DF92EF92FF920F93E4
:103CB0001F93CF93DF938C01C0909C01D0909D0106
:103CC000E0909E01F0909F014091980150919901E0
:103CD00060919A0170919B01C42AD52AE62AF72A9D
:103CE000CFE1D0E0D701C6010C2E04C0B695A79550
:103CF000979587950A94D2F780FF07C0B8018C2F5B
:103D00000E9431208130910531F4219758F7B80194
:103D100080E00E943120DF91CF911F910F91FF90A1
:103D2000EF90DF90CF90089590910F01992359F172
:103D3000982F9695969596959F30A0F4E091100156
:103D4000F0911101E90FF11D877021E030E0A90128
:103D500002C0440F551F8A95E2F7CA019181892B51
:103D6000818308959091B30190FF29C01F928F9392
:103D700085E197E09F938F930E94700A0F900F90B8
:103D80000F900F9008952091100130911101F901C9
:103D900032969FEF40E05191581789F09F3F19F4F8
:103DA000511101C0942F4F5F4E30A9F79F3F39F05A
:103DB000F901E90FF11D97FDFA95828308950895A1
:103DC00090910F01992361F1982F9695969596956C
:103DD0009F30A8F4E0911001F0911101E90FF11D5D
:103DE000877021E030E0A90102C0440F551F8A9579
:103DF000E2F7CA018095918189238183089590918A
:103E0000B30190FF1DC01F928F9387EF96E09F93A1
:103E10008F930E94700A0F900F900F900F9008954B
:103E20002091100130911101F9013296205F3F4F2E
:103E30009081981301C010823196E217F307C1F701
:103E4000089581E090E0E0911001F0911101E80FF8
:103E5000F91F1082019680319105A9F7089590917C
:103E6000B201892B8093B201089580959091B2019F
:103E700089238093B20108951092B2010895809130
:103E8000B10108959091B101892B8093B1010895FA
:103E900080959091B10189238093B101089510928A
:103EA000B10108958093A00108951092A001089592
:103EB0008091100190911101FC0131969C01205FCD
:103EC0003F4F80E0919191118F5FE217F307D1F797
:103ED0000895E0911001F09111018091B201808369
:103EE000E0911001F091110190818091B101892B35
:103EF00080838091A001882361F0E0911001F0910E
:103F000011019081892B80830E94581F811110928A
:103F1000A00180911001909111010C9492138B3BA0
:103F200050F4883AE8F4853A90F4843070F48130A3
:103F300009F455C007C0803E28F0883E30F0803F2D
:103F400008F04AC080E090E0089590E00895853A36
:103F500009F448C0863A09F448C083E890E408951B
:103F6000883A09F445C0893A09F445C08A3A09F407
:103F700045C08B3A09F445C08C3A09F445C08D3AE6
:103F800009F445C0803B09F445C08E3A09F445C0A8
:103F90008F3A09F445C0813B09F445C0823B09F4DE
:103FA00045C0833B09F445C0843B09F445C0853BCB
:103FB00009F445C0863B09F445C0873B09F445C078
:103FC000883B09F445C0893B09F445C08A3B09F4A4
:103FD00045C080E094E4089590E09065089581E004
:103FE00090E0089581E890E4089582E890E40895CF
:103FF00082EE94E4089589EE94E408958AEE94E4C0
:10400000089585EB94E4089586EB94E4089587EB96
:1040100094E408958CEC94E408958DEC94E4089570
:1040200083E895E408958AE895E4089582E995E4A3
:10403000089584E995E4089581E296E4089583E281
:1040400096E4089584E296E4089585E296E408955E
:1040500086E296E4089587E296E408958AE296E47B
:1040600008950E94C40B803EA8F4803C00F5813383
:1040700009F45CC038F4893209F452C08A3209F478
:104080005BC05FC08933B1F08238A1F0853309F499
:1040900041C057C0833E41F128F4803E99F0823EF2
:1040A000B9F04FC0863E31F1873E71F14AC00E949F
:1040B000770B08959091CA0190FD02C091FF41C015
:1040C00080EE3FC08091CA0180FFFACF89E339C0FA
:1040D0008091CA0182FF0CC08091CA0184FF02C096
:1040E00080E02FC083EE2DC08091CA0182FFF4CF03
:1040F00082EE27C08091CA0183FF0AC08091CA0165
:1041000084FDEECF87EE1DC08091CA0183FFF6CFFC
:1041100086EE17C08091CA0185FF06C089E211C0F2
:104120008091CA0185FFFACF85E30BC08091CA0157
:1041300086FF06C08AE205C08091CA0186FFFACFD9
:1041400081E30E948F1F08959093B6018093B5017B
:104150000895CF92DF92EF92FF926C01EE24FF243C
:10416000C114D104E104F10421F0C701B60120E13A
:1041700001C020E0C72ED82EE92EFF24C114D1049F
:10418000E104F10419F0285FC701B6016B017C015D
:1041900054E0F694E794D794C7945A95D1F7C11494
:1041A000D104E104F10419F02C5FC701B6016B01E1
:1041B0007C0142E0F694E794D794C7944A95D1F7EE
:1041C000C114D104E104F10419F02E5FC701B60156
:1041D000DC01CB01B695A79597958795892B8A2BFE
:1041E0008B2B09F02F5F822FFF90EF90DF90CF9005
:1041F00008958295982F9C7C392F36953695282FD7
:10420000237344E0249FC0011124932F982B292F5E
:104210002A7A2695892F8575880F822B08951F93FA
:10422000CF93DF931F92CDB7DEB799830E94F92019
:10423000182F9981892F0E94F920212F30E0322FE9
:104240002227A901482BCA010F90DF91CF911F911E
:1042500008951092B40120E488E190E00FB6F8943C
:10426000A895809360000FBE2093600083B7817F84
:10427000846083BF83B7816083BF7894889583B758
:104280008E7F83BF0FB6F894A895809160008861F7
:1042900080936000109260000FBE0895CF930E943B
:1042A000790A0E942A0C0E947A0AC0E08C2F0E9490
:1042B000560D811104C0CF5FCE30C1F701C081E03F
:1042C000CF9108950C94661982E084BD93E095BD6A
:1042D0009AEF97BD80936E0008952FB7F894809160
:1042E000B7019091B801A091B901B091BA012FBF67
:1042F0000895CF92DF92EF92FF920F931F932FB703
:10430000F8944091B7015091B8016091B901709152
:10431000BA012FBF6A017B01EE24FF248C0120E04B
:1043200030E0C016D106E206F30610F44150510900
:104330009A01281B390BC9011F910F91FF90EF9033
:10434000DF90CF9008951F920F920FB60F92112415
:104350008F939F93AF93BF938091B7019091B801D2
:10436000A091B901B091BA010196A11DB11D809330
:10437000B7019093B801A093B901B093BA01BF916E
:10438000AF919F918F910F900FBE0F901F90189536
:10439000F89481E08093E00080E28093D80010924E
:1043A000C9008FE19EE40197F1F700C0000087E0AB
:1043B00090EBDC018093CB019093CC01A093CD01D5
:1043C000B093CE019CE088E10FB6F894A895809355
:1043D00060000FBE90936000FFCFEF92FF920F93AB
:1043E0001F93CF93DF93D82FC0E08C2F0E94560DE0
:1043F00000E010E0E82EF12CC701002E02C09595D8
:1044000087950A94E2F780FD06C00F5F1F4F0630C4
:10441000110591F709C0602F7C2F80E00E94C40B2A
:10442000D813F3CF81E004C0CF5FCE30F1F680E047
:10443000DF91CF911F910F91FF90EF900895CF934F
:10444000C82F8CE20E94ED21882321F08C2FCF9180
:104450000C94ED2180E0CF910895CF930E947C23AE
:10446000811102C00E9462238AE397E00E94D7096B
:10447000C5E6C15049F00E942A0C8FE39CE90197E0
:10448000F1F700C00000F5CF83E397E00E94D70961
:1044900089E20E941F22811113C18AE20E941F2219
:1044A00081110E94622385E00E941F2281110E94D7
:1044B000C8210E9487238093B30187E00E941F22B6
:1044C0008823A9F18BE10E941F22882351F080915B
:1044D000B30181FB222720F991E0922790FB81F91B
:1044E0000EC08EE00E941F22882361F08091B301EC
:1044F00082FB222720F991E0922790FB82F980939A
:10450000B30115C080E10E941F229091B30188235E
:1045100041F093FB222720F981E0822780FB93F969
:1045200004C0892F809580FB90F99093B30180910E
:10453000B3010E948B230E9499238093CA0180EECD
:104540000E941F22882341F08091CA01982F9095E4
:1045500090FB80F98093CA0189E30E941F2288237F
:1045600059F08091CA0181FB222720F991E092271E
:1045700090FB81F98093CA0182EE0E941F2288235A
:1045800059F08091CA0182FB222720F991E09227FD
:1045900090FB82F98093CA0186EE0E941F22882335
:1045A00059F08091CA0183FB222720F991E09227DC
:1045B00090FB83F98093CA0183EE0E941F22882317
:1045C00059F08091CA0184FB222720F991E09227BB
:1045D00090FB84F98093CA0185E30E941F228823FF
:1045E00059F08091CA0185FB222720F991E092279A
:1045F00090FB85F98093CA0181E30E941F228823E2
:1046000059F08091CA0186FB222720F991E0922778
:1046100090FB86F98093CA0181E10E941F228823C2
:1046200059F08091CA0187FB222720F991E0922757
:1046300090FB87F98093CA018091CA010E949D2353
:104640008091CA0187FB882780F980930F0187E258
:104650000E941F22C82F8EE10E941F228111C2607A
:104660008FE10E941F228111C46080E20E941F22FC
:104670008111C86081E20E941F228111C06182E223
:104680000E941F228111C06283E20E941F228111B9
:10469000C06484E20E941F22882311F0C06802C017
:1046A000CC2329F08C2F0E9494236C2F03C00E94EE
:1046B0009023682F70E080E090E0CF910C941A1D59
:1046C000CF9108956DEE7EEF80E090E00E941F2F65
:1046D00060E082E090E00E94112F60E083E090E0D3
:1046E0000E94112F60E084E090E00E94112F60E0B2
:1046F00085E090E00C94112F80E090E00E940B2F59
:1047000021E08D3E9E4F09F020E0822F089582E047
:1047100090E00C94032F682F82E090E00C94112F0E
:1047200083E090E00C94032F682F83E090E00C94DA
:10473000112F84E090E00C94032F682F84E090E028
:104740000C94112F8091BD0180FF0BC06091150169
:1047500085E0689FB00111247595679575956795FB
:104760002BC081FF09C06091150185E0689FB001F1
:1047700011247595679520C082FF07C060911501CF
:1047800085E0689FB001112417C09091BE01992364
:10479000D1F060911401961788F72091150185E0FA
:1047A000289F90011124929FA001939F500D1124E6
:1047B00070E0CA010E94D52E6038710540F4611581
:1047C000710539F002C065E070E0862F08958FE72B
:1047D000089581E008958091BD0180FF08C0609137
:1047E000130170E0759567957595679521C081FFF8
:1047F00006C06091130170E07595679519C082FF3E
:1048000004C06091130170E010C09091BE01992323
:10481000C1F0609112019617A0F780911301899F52
:10482000C001112470E00E94D52E6038710528F473
:104830006115710521F0862F08958FE7089581E0B5
:10484000089561E070E0F4CF803F21F40E94A2233C
:10485000819504C0813F29F40E94A2238093C10165
:104860000895823F21F40E94A223819504C0833FD2
:1048700029F40E94A2238093C0010895893F19F46E
:104880000E94EB2305C08A3F31F40E94EB238195FF
:104890008093C20108958B3F21F40E94EB23819500
:1048A00004C08C3F29F40E94EB238093C301089538
:1048B000843F21F48091BF01816017C0853F21F4BE
:1048C0008091BF01826011C0863F21F48091BF01B9
:1048D00084600BC0873F21F48091BF01886005C0D0
:1048E000883F31F48091BF0180618093BF010895BA
:1048F0008D3F21F48091BD0181600BC08E3F21F47A
:104900008091BD01826005C08F3F29F48091BD0177
:1049100084608093BD010895803F39F48091C10186
:1049200087FF6CC01092C10169C0813F29F480915A
:10493000C1011816BCF362C09091C001823F29F4F6
:1049400097FF5CC01092C00159C0833F19F419163B
:10495000CCF354C0893F41F48091C20118160CF089
:104960004DC01092C2014AC08A3F29F48091C20111
:1049700087FF44C0F6CF8B3F39F48091C30187FF96
:104980003DC01092C3013AC08C3F29F48091C3010D
:104990001816BCF333C0843F21F48091BF018E7F91
:1049A00017C0853F21F48091BF018D7F11C0863FE4
:1049B00021F48091BF018B7F0BC0873F21F4809150
:1049C000BF01877F05C0883F31F48091BF018F7E92
:1049D0008093BF0113C08D3F21F48091BD018E7F74
:1049E0000BC08E3F21F48091BD018D7F05C08F3FAC
:1049F00029F48091BD018B7F8093BD018091C0011E
:104A000081110EC08091C10181110AC08091C20143
:104A1000811106C08091C301811102C01092BE01B4
:104A200008958091B30183FF7EC086E797E00E94DE
:104A3000D7098091BF011F928F9381E797E09F93E1
:104A40008F930E94700A8FE697E00E94D7098091A9
:104A5000C001282F082E000C330B3F938F938CE658
:104A600097E09F938F930E94700A8AE697E00E94D6
:104A7000D7098091C101282F082E000C330B3F93DA
:104A80008F9387E697E09F938F930E94700A85E645
:104A900097E00E94D7098091C201282F082E000CB0
:104AA000330B3F938F9382E697E09F938F930E94FF
:104AB000700A80E697E00E94D7098091C301282FF1
:104AC000082E000C330B3F938F938DE597E09F9357
:104AD0008F930E94700A8AE597E00E94D70980911F
:104AE000BE011F928F9387E597E09F938F930E945B
:104AF000700A85E597E00E94D7098091BD011F9259
:104B00008F9382E597E09F938F930E94700A8FE4C2
:104B100097E00E94D7098DB79EB74C960FB6F894D0
:104B20009EBF0FBE8DBF8FEB91E00E94DB130E94F2
:104B30006D219093BC018093BB0108951F93CF9387
:104B4000DF938091BB019091BC010E947921AC015F
:104B50009091BE01992321F02091160130E006C00A
:104B6000209117018AE0289F9001112442175307D2
:104B700008F485C08091C001C091C101D091C201EB
:104B80001091C301811107C0C11175C0D11173C04B
:104B9000111171C074C09F3F19F09F5F9093BE01C7
:104BA000181624F40E94A2238093C0018091C001B2
:104BB00087FF05C00E94A22381958093C0011C1627
:104BC00024F40E94A2238093C1018091C10187FF38
:104BD00005C00E94A22381958093C1016091C0010C
:104BE000662331F1C091C101CC2311F1062E000CD6
:104BF000770B880B990B0E94DC2D23E333E343E30F
:104C00005FE30E94402E0E94A42D6093C0016C2F90
:104C1000CC0F770B880B990B0E94DC2D23E333E339
:104C200043E35FE30E94402E0E94A42D6093C101E4
:104C30001D1624F40E94EB238093C2018091C201CF
:104C400087FF05C00E94EB2381958093C201111656
:104C500024F40E94EB238093C3018091C30187FF5A
:104C600005C00E94EB2381958093C301DF91CF9112
:104C70001F910C9411259F3F09F08FCF97CFDF91A3
:104C8000CF911F910895EFEBF1E085E0DF011D92D8
:104C90008A95E9F71092BE011092BD01089585E44E
:104CA0009CE00E94D70988E39CE00E94D7098BE230
:104CB0009CE00C94D70988EA9BE00E94D7098BE915
:104CC0009BE00E94D70980E89BE00E94D70985E617
:104CD0009BE00E94D7098DE49BE00E94D70983E303
:104CE0009BE00E94D70985E19BE00E94D70985EFF0
:104CF0009AE00E94D70980EE9AE00E94D70989ECD9
:104D00009AE00E94D7098CEA9AE00E94D7098DE8C0
:104D10009AE00E94D7098DE69AE00E94D7098BE4B9
:104D20009AE00E94D70986E19AE00E94D70981E0C3
:104D30009AE00E94D7091F9285E08F938EEF99E049
:104D40009F938F930E94700A85EF99E00E94D70984
:104D50001F9281E08F9382EF99E09F938F930E943F
:104D6000700A80EF99E00E94D7098DB79EB7089628
:104D70000FB6F8949EBF0FBE8DBF83EC99E00C94E4
:104D8000D709833009F459C028F4813061F08230AA
:104D900079F10895853009F49AC008F473C086301B
:104DA00009F4BAC0089580911701262F30E0280F2A
:104DB000311D2F3F310524F4680F6093170103C0A4
:104DC0008FEF809317018FE998E00E94D7098091B7
:104DD00017011F928F938CE998E09F938F930E9405
:104DE000700A0F900F900F900F908AE998E0B8C06A
:104DF00080911601262F30E0280F311D2F3F3105FD
:104E000024F4680F6093160103C08FEF809316019E
:104E10008BE898E00E94D709809116011F928F932A
:104E200088E898E09F938F930E94700A0F900F90EC
:104E30000F900F9086E898E093C080911501262F7F
:104E400030E0280F311D2F3F310524F4680F6093A7
:104E5000150103C08FEF8093150186E798E00E944B
:104E6000D709809115011F928F9383E798E09F9354
:104E70008F930E94700A0F900F900F900F9081E710
:104E800098E06EC080911401262F30E0280F311D6C
:104E90002F3F310524F4680F6093140103C08FEF96
:104EA000809314018FE598E00E94D7098091140146
:104EB0001F928F938CE598E09F938F930E94700AC6
:104EC0000F900F900F900F908AE598E049C0809165
:104ED0001301262F30E0280F311D2F3F310524F418
:104EE000680F6093130103C08FEF8093130184E474
:104EF00098E00E94D709809113011F928F9381E45B
:104F000098E09F938F930E94700A0F900F900F90DC
:104F10000F908FE398E024C080911201262F30E09B
:104F2000280F311D2F3F310524F4680F60931201C3
:104F300003C08FEF8093120187E298E00E94D709A7
:104F4000809112011F928F9384E298E09F938F9338
:104F50000E94700A0F900F900F900F9082E298E0DD
:104F60000C94D709833009F44DC028F4813061F0E6
:104F7000823049F10895853009F482C008F461C097
:104F8000863009F49CC0089580911701681720F4B9
:104F9000861B8093170102C01092170186E198E0EA
:104FA0000E94D709809117011F928F9383E198E0A7
:104FB0009F938F930E94700A0F900F900F900F9005
:104FC00081E198E09AC080911601681720F4861B51
:104FD0008093160102C01092160182E098E00E94B0
:104FE000D709809116011F928F938FEF97E09F93BF
:104FF0008F930E94700A0F900F900F900F908DEF7B
:1050000097E07BC080911501681720F4861B809380
:10501000150102C0109215018DEE97E00E94D7098C
:10502000809115011F928F938AEE97E09F938F9343
:105030000E94700A0F900F900F900F9088EE97E0EB
:105040005CC080911401681720F4861B80931401C2
:1050500002C01092140186ED97E00E94D70980915A
:1050600014011F928F9383ED97E09F938F930E947B
:10507000700A0F900F900F900F9081ED97E03DC058
:1050800080911301681720F4861B8093130102C0DE
:10509000109213018BEB97E00E94D70980911301C6
:1050A0001F928F9388EB97E09F938F930E94700AD3
:1050B0000F900F900F900F9086EB97E01EC080919D
:1050C0001201681720F4861B8093120102C010920F
:1050D00012018EE997E00E94D709809112011F9278
:1050E0008F938BE997E09F938F930E94700A0F90A4
:1050F0000F900F900F9089E997E00C94D709CF9308
:10510000C82F84E19CE00E94D70960919C017091B6
:105110009D0180919E0190919F010E94A9201F9264
:105120008F9381E19CE09F938F930E94700A8CE0A3
:105130009CE00E94D7091F92CF9389E09CE09F9347
:105140008F930E94700A87E09CE00E94D70981E05B
:1051500090E0A0E0B0E0BC01CD0104C0660F771F75
:10516000881F991FCA95D2F70E941A1D8DB79EB746
:1051700008960FB6F8949EBF0FBE8DBFCF910C94CA
:105180006619CF93482F50E0FA013697E334F105C2
:1051900008F0F4C2EA59FF4F0C94E92E84EB92E137
:1051A0000E94D7090E945E2D0E9486130E94A30DC3
:1051B00043C189EA92E10E94D7098CE89FE00E94EE
:1051C000D7090E9490231F928F9389E89FE09F93B5
:1051D0008F930E94700A87E89FE00E94D7090E947F
:1051E0008723C82F84E79FE00E94D7091F92CF939F
:1051F0008FE69FE09F938F930E94700A8DE69FE059
:105200000E94D70983E69FE00E94D7098C2F817006
:105210001F928F9380E69FE09F938F930E94700A66
:105220008EE59FE00E94D70984E59FE00E94D709A0
:10523000C1FB882780F91F928F9381E59FE09F93A0
:105240008F930E94700A8FE49FE00E94D70983E445
:105250009FE00E94D709C2FB882780F91F928F9395
:1052600080E49FE09F938F930E94700A8EE39FE0FB
:105270000E94D70985E39FE00E94D709C3FBCC2792
:10528000C0F91F92CF9382E39FE09F938F930E9478
:10529000700A80E39FE00E94D7090E949923C82FDB
:1052A0008CE19FE00E94D7091F92CF9387E19FE096
:1052B0009F938F930E94700A85E19FE00E94D70917
:1052C0008CEF9EE00E94D7098C2F81701F928F93E4
:1052D00089EF9EE09F938F930E94700A8DB79EB7CF
:1052E00080960FB6F8949EBF0FBE8DBF87EF9EE0ED
:1052F0000E94D70980EE9EE00E94D709C1FB882753
:1053000080F91F928F938DED9EE09F938F930E9463
:10531000700A8BED9EE00E94D70989EC9EE00E9406
:10532000D709C2FB882780F91F928F9386EC9EE0F5
:105330009F938F930E94700A84EC9EE00E94D7098D
:1053400082EB9EE00E94D709C3FB882780F91F9259
:105350008F938FEA9EE09F938F930E94700A8DEA4D
:105360009EE00E94D70983EA9EE00E94D709C4FB11
:10537000882780F91F928F9380EA9EE09F938F93F6
:105380000E94700A8EE99EE00E94D7098CE89EE098
:105390000E94D709C5FB882780F91F928F9389E85F
:1053A0009EE09F938F930E94700A87E89EE00E9480
:1053B000D7098BE69EE00E94D709C6FB882780F9B3
:1053C0001F928F9388E69EE09F938F930E94700AAE
:1053D00086E69EE00E94D7098EE59EE00E94D709EE
:1053E000C7FBCC27C0F91F92CF938BE59EE09F931C
:1053F0008F930E94700A89E59EE00E94D7098DB7BD
:105400009EB74C960FB6F8949EBF0FBE8DBF14C0CA
:105410000E948113892B91F00E9481139093C60101
:105420008093C5010E94661980E090E00E947C1381
:1054300080EA92E10E94D709C1E0A5C18091C5012F
:105440009091C6010E947C1385E992E1F3CF8DE330
:105450009EE00E94D70986E29EE00E94D7098EE076
:105460009EE00E94D70986EF9DE00E94D7098CED4F
:105470009DE00E94D70985EC9DE00E94D7098BEA48
:105480009DE00E94D7098BE89DE00E94D70985E73F
:105490009DE00E94D70984E69DE00E94D7098CE434
:1054A0009DE00E94D7098CE39DE00E94D70982E22B
:1054B0009DE00E94D70989E09DE00E94D70980EF16
:1054C0009CE00E94D70987ED9CE00E94D7098EEBF3
:1054D0009CE00E94D7098DE99CE00E94D7098BE7E8
:1054E0009CE00E94D70981E69CE0A4CF8091B301A3
:1054F000817F8E7F8093B3010E944F2680E892E1E6
:105500000E94D7098CE792E10E94D70981E080933D
:10551000C40192CF0E94661983E692E10E94D709E6
:105520009FEF23ED80E3915020408040E1F700C0E1
:1055300000000E94C82183E592E17CCF8091B301F5
:10554000C82FC17080FF09C080E492E10E94D70992
:105550008091B301817F8E7F47C08EE292E10E94ED
:10556000D7098091B30181608093B30165CF909199
:10557000B30191FBCC27C0F981E0C827892FC0FB7C
:1055800081F98093B301CC2319F085E192E127C022
:105590008BEF91E14FCF9091B30192FBCC27C0F9F3
:1055A00081E0C827892FC0FB82F98093B301CC2307
:1055B00019F080EE91E113C084EC91E13BCF909122
:1055C000B30193FBCC27C0F981E0C827892FC0FB2A
:1055D00083F98093B301CC2351F08CEA91E10E94CE
:1055E000D7098091B30181608093B301CCC083E976
:1055F00091E120CF8CE791E10E94D70980E591E10C
:105600000E94D70989E191E10E94D70982EF90E1D8
:105610000E94D7098EEA90E10E94D70980E890E1C4
:1056200009CF8091B7019091B801A091B901B091D3
:10563000BA01BF93AF939F938F938CE690E19F93B2
:105640008F930E94700A0F900F900F900F900F9001
:105650000F90F2CE86E590E10E94D7090E94861352
:105660001F928F938CE390E19F938F930E94700A17
:1056700080910D011F928F9385E290E19F938F930C
:105680000E94700A80910C011F928F9382E190E139
:105690009F938F930E94700A8091E0001F928F93D6
:1056A00087E090E19F938F930E94700A8091E200BF
:1056B0001F928F938CEF9FE09F938F930E94700AAD
:1056C0008091E1001F928F9381EF9FE09F938F93D2
:1056D0000E94700A809143011F928F938AED9FE090
:1056E0009F938F930E94700A809144011F928F9321
:1056F0008DEB9FE09F938F930E94700A8DB79EB7AA
:1057000080960FB6F8949EBF0FBE8DBF95CE0E94B7
:105710006619C0910F0181E0C827C0930F01CC2307
:1057200029F08EEA9FE00E94D7092DC08EE99FE004
:1057300081CE80914701882339F0C0914801CC2364
:1057400019F00E9452101FC081E890E00E94E613F9
:1057500080E090E00E94E6139FEF29E688E19150F7
:1057600020408040E1F700C0000066CE80E003C02A
:105770008D5101C089530E947F285ECE8CE99FE045
:105780000E94D709C0E08C2FCF91089580E0089542
:1057900080E00895CF93C82F8091C401813081F0BB
:1057A00020F0823009F455C063C1E0911001F091FE
:1057B00011018081813169F0823209F05BC109C039
:1057C000E0911001F09111018081813111F082325C
:1057D00061F48C2F0E94C62B811104C08C2F0E9473
:1057E000C12835C081E090E032C08C2F0E94C82BC8
:1057F00081112CC0C431F1F090F4CB30A1F0C03154
:1058000001F50E945B2686ED9BE00E94D70982EDA0
:105810009BE00E94D70982E08093C40117C0C9327F
:1058200049F0C83371F40E944F2683E09CE00E9447
:10583000D7090CC08FEE9BE00E94D7091092C401DB
:105840001BC180ED9BE00E94D70916C181E08170E9
:1058500015C1C83220F5CE3108F0BFC0CB3099F168
:10586000C8F4C73009F0E7C08AE08093170194E1DB
:105870009093160193E0909315018093140188E0B2
:105880008093130188E28093120188E799E00E94D7
:10589000D709D6C0C33141F1C431C1F0CCC0CB343B
:1058A00009F4BEC028F4C93289F0C83361F0C3C01E
:1058B000C13509F4B3C0C23509F4AEC0CE3409F025
:1058C000BAC06AE0B3C00E945B26BAC01092C7019A
:1058D0008BEA99E00E94D70987EA99E00E94D709EC
:1058E00081E08093C401CAC08BE499E00E94D7098B
:1058F00086E399E00E94D709809117011F928F9348
:1059000083E399E09F938F930E94700A81E399E06B
:105910000E94D7098CE199E00E94D7098091160175
:105920001F928F9389E199E09F938F930E94700A51
:1059300087E199E00E94D70985E099E00E94D709A4
:10594000809115011F928F9382E099E09F938F932E
:105950000E94700A80E099E00E94D7098CEE98E0DE
:105960000E94D709809114011F928F9389EE98E0CD
:105970009F938F930E94700A87EE98E00E94D70948
:105980008FEC98E00E94D709809113011F928F93AA
:105990008CEC98E09F938F930E94700A8AEC98E0B9
:1059A0000E94D70980EB98E00E94D70980911201EC
:1059B0001F928F938DEA98E09F938F930E94700AB5
:1059C0008BEA98E00E94D7098DB79EB748960FB62C
:1059D000F8949EBF0FBE8DBF33C0CE51EC2FF0E0C8
:1059E000E85EFE4F80818093C70182E999E00E94C2
:1059F000D7098091C7011F928F938FE899E09F93F9
:105A00008F930E94700A8DE899E00E94D7090F9049
:105A10000F900F900F9014C061E003C061E006C0CA
:105A20006AE08091C7010E94C1260AC08091C70127
:105A30000E94B22705C086E799E00E94D70916C0E8
:105A400084E799E00E94D7098091C7011F928F9344
:105A500081E799E09F938F930E94700A8EE699E008
:105A60000E94D7090F900F900F900F9081E006C011
:105A70001092C40180E002C080E0E9CECF91089589
:105A8000E1E8F0E0808188608083808181608083AC
:105A90008FB7F89493E09093890090ED90938800ED
:105AA0008FBF0895EFE6F0E08081826080830895E3
:105AB000EFE6F0E080818D7F80830895EFE6F0E0EF
:105AC000908182E08927808308951F920F920FB6FC
:105AD0000F9211242F933F934F935F936F937F9374
