:100000000C9438090C947C090C947C090C947C09A0
:100010000C947C090C947C090C947C090C947C094C
:100020000C947C090C947C090C947C0F0C94291082
:100030000C947C090C947C090C947C090C947C092C
:100040000C947C090C949B2C0C947C090C947C09DA
:100050000C947C090C94E7200C947C090C947C098A
:100060000C947C090C947C090C947C090C947C09FC
:100070000C947C090C947C090C947C090C947C09EC
:100080000C947C090C947C090C947C090C947C09DC
:100090000C947C090C947C090C947C090C947C09CC
:1000A0000C947C090C947C090C947C09A715A71569
:1000B000D515D5152A166616571857187E165718CF
:1000C000751775173118571857184518B229DA29B6
:1000D0001528F72AF72A6329F72AF72A062AF72A82
:1000E000192AC02AF72AF72AF72AF72A632A4A2A5E
:1000F000F72A332AF72AF329F72A0A28F12AF12ABC
:10010000F12AF12AF12AF12AF12AF12AF12AEF2A19
:10011000F72AEF2AF72AF72AF72AF72AF72AF72ADF
:10012000F72AF72AF72AF72AF72AEF2AF72AF72ACF
:1001300063294429F32AF32AF32AF32AF32AF32A18
:10014000F32AF32AF32AF32AF32AF32AD22AF72AE4
:10015000C629750F01080208011B021B01040204D5
:100160000110021001130213010F020F010802080F
:1001700000750F01E001E2013B023B74FF02E20265
:10018000E074FF011B021B01100210011202120198
:10019000110211015202520128022874FF01E001EC
:1001A000E2013E023E74FF02E202E074FF006E6F65
:1001B0007420737570706F727465642E0A000A0A79
:1001C0004A756D7020746F20626F6F746C6F61641C
:1001D00065722E2E2E2000620159045A045B045CC5
:1001E000045D045E045F04600461042B032B014B77
:1001F000034E035601570100C001C001C001C000F9
:100200000031022D0236023702380200F033022D8F
:1002100002360237022A214C222924493828322C5E
:10022000312B2235212C24292834323031018F0200
:100230008F048FF1A2F1A1F1A231A71DA41BA30687
:10024000A819A904A416A307A809A2352B29E1E03F
:10025000001E14041DE34D1F1A151BE24C20091645
:1002600006D52C21131719D64A220A070500AAA879
:100270002F002D00A94630002E00AE230D0B0E00DE
:10028000AD240F1110514E25180836522A261C0C89
:10029000375028273312384F4B393134E5E400000A
:1002A00000000000003A00000000003B00000000D9
:1002B000013C00000000013D00000000003E000085
:1002C0000000004400000000004500000000003F66
:1002D000000000000040000000000041000000009D
:1002E0000142000000000143000000000000000087
:1002F00000000000000000000000000000000000FE
:1003000000000000010000000000010000000000EB
:1003100000000000000000000000000000000000DD
:100320000000000000C1380000535F5C59620054B7
:10033000605D5A620155615E5B63015657575858BC
:10034000000000000000000A002530313662003A4B
:10035000200025303258000A722F632030313233AA
:100360003435363738394142434445460A000A009D
:100370002530325800626F756E6365213A20006C3B
:10038000656674207369646520617474616368656F
:10039000640A006C6566742073696465206E6F740E
:1003A00020726573706F6E64696E670A007472798B
:1003B000696E6720746F207265736574206D637059
:1003C00032333031380A000A002530325800206DAF
:1003D0006F64733A2000200025303258006B657935
:1003E000733A2000000100000906120002000075A7
:1003F00004860021000087040900220000CA053F8E
:1004000000210100A0040900220100400551002143
:100410000200B90409002202002B05150021030087
:10042000D2040900220300FB043000210400D2049E
:100430000900220400910539000300007104040141
:100440000309045F0410020309044D04101003455E
:1004500000720067006F0064006F007800000010F9
:100460000354004D004B002F004300750062000054
:10047000000403090409028600050100A0320904F2
:1004800000000103010100092111010001223F00C8
:100490000705810308000A090401000103000000A8
:1004A0000921110100012251000705820308000102
:1004B00009040200010300000009211101000122CA
:1004C0001500070583032000010904030001030050
:1004D00000000921110100012230000705840308F2
:1004E000000A0904040001030000000921110100B1
:1004F000012239000705850310000105010980A1CB
:10050000018502150125B7190129B77510950181DB
:1005100000C0050C0901A10185031501269C0219E3
:10052000012A9C02751095018100C00631FF0974F3
:10053000A1537508150026FF00952009758102C09A
:1005400005010902A1010901A100050919012905F7
:10055000150025017501950581027503950181033B
:100560000501093009311581257F7508950281063D
:1005700009381581257F35004500750895018106EC
:10058000050C0A38021581257F750895018106C082
:10059000C005010906A10175019508050719E029A3
:1005A000E715002501810295057501050819012946
:1005B0000591029501750391039578750115002544
:1005C000010507190029778102C005010906A1016B
:1005D00075019508050719E029E715002501810235
:1005E000950175088103950575010508190129050F
:1005F000910295017503910395067508150025FF75
:100600000507190029FF8100C01201000200000047
:1006100020EDFE071301000102000101C10201C12A
:100620000201C12601C10601C116000A00253032AF
:100630005820006B6579626F6172645F7265706FDC
:1006400072743A20000A0025303258006B657962D6
:100650006F6172645F7365745F6C65643A200064F7
:10066000656C5F6B65795F6269743A2063616E27C0
:10067000742064656C3A20253032580A0061646445
:100680005F6B65795F6269743A2063616E277420DD
:100690006164643A20253032580A00646F6E652E1A
:1006A0000A00626F6F676D61676963207363616ED3
:1006B0003A202E2E2E2000290A002575002F002515
:1006C00075005D28002564002000256400200025B9
:1006D000640020002564007C0025303258006D6FD6
:1006E0007573656B6579205B62746E7C7820792008
:1006F0007620685D287265702F61636C293A205BF3
:10070000000A002575006D6B5F776865656C5F7426
:10071000696D655F746F5F6D6178203D20000A0030
:100720002575006D6B5F776865656C5F6D61785FDF
:100730007370656564203D20000A002575006D6BAF
:100740005F74696D655F746F5F6D6178203D200037
:100750000A002575006D6B5F6D61785F737065656C
:1007600064203D20000A002575006D6B5F696E7482
:10077000657276616C203D20000A002575006D6B66
:100780005F64656C6179203D20000A002575006D6D
:100790006B5F776865656C5F74696D655F746F5FCB
:1007A0006D6178203D20000A002575006D6B5F7734
:1007B0006865656C5F6D61785F7370656564203D29
:1007C00020000A002575006D6B5F74696D655F74AC
:1007D0006F5F6D6178203D20000A002575006D6B0C
:1007E0005F6D61785F7370656564203D20000A006D
:1007F0002575006D6B5F696E74657276616C203D66
:1008000020000A002575006D6B5F64656C617920BE
:100810003D20000A00257500363A206D6B5F776831
:1008200065656C5F74696D655F746F5F6D61783A63
:1008300020000A00257500353A206D6B5F776865EA
:10084000656C5F6D61785F73706565643A20000A5E
:1008500000257500343A206D6B5F74696D655F74B7
:100860006F5F6D61783A20000A00257500333A20E9
:100870006D6B5F6D61785F73706565643A20000A27
:1008800000257500323A206D6B5F696E7465727673
:10089000616C286D73293A20000A00257500313AF1
:1008A000206D6B5F64656C6179282A31306D732926
:1008B0003A20000A0A2D2D2D2D2D204D6F757365C0
:1008C0006B657920506172616D6574657273202D5E
:1008D0002D2D2D2D0A003E20002575004D003F00D6
:1008E0007365742064656661756C742076616C75DF
:1008F00065732E0A000A0025750073656C656374C4
:10090000656420706172616D657465723A200043A0
:100910003E20000A51756974204D6F7573656B65D3
:100920007920436F6E736F6C650A005365652068AC
:100930007474703A2F2F656E2E77696B69706564D9
:1009400069612E6F72672F77696B692F4D6F7573B1
:10095000655F6B6579730A000A002575002C2077A6
:100960006865656C3D002575007768657265206473
:10097000656C74613A20637572736F723D000A731F
:1009800070656564203D2064656C7461202A206D6B
:1009900061785F7370656564202A202872657065D0
:1009A0006174202F2074696D655F746F5F6D61786D
:1009B000290A007067646F776E3A0964656372652F
:1009C00061736520706172616D6574657273282D45
:1009D0003130290A00706775703A09696E63726573
:1009E00061736520706172616D6574657273282B27
:1009F0003130290A00646F776E3A09646563726565
:100A000061736520706172616D6574657273282D04
:100A100031290A0075703A09696E63726561736500
:100A200020706172616D6574657273282B31290ABB
:100A300000643A097365742064656661756C74209E
:100A400076616C7565730A00703A097072696E742C
:100A500020706172616D65746572730A00363A09BF
:100A600073656C656374206D6B5F776865656C5F3B
:100A700074696D655F746F5F6D61780A00353A095E
:100A800073656C656374206D6B5F776865656C5F1B
:100A90006D61785F73706565640A00343A09736547
:100AA0006C656374206D6B5F74696D655F746F5FF7
:100AB0006D61780A00333A0973656C656374206D63
:100AC0006B5F6D61785F73706565640A00323A0927
:100AD00073656C656374206D6B5F696E74657276A7
:100AE000616C286D73290A00313A0973656C65637E
:100AF00074206D6B5F64656C6179282A31306D7389
:100B0000290A004553432F713A09717569740A0027
:100B10000A0A2D2D2D2D2D204D6F7573656B65796E
:100B200020506172616D65746572732048656C70E8
:100B3000202D2D2D2D2D0A003F004D303E000A4561
:100B40006E746572204D6F7573656B657920436FA8
:100B50006E736F6C650A000A5175697420436F6E7D
:100B6000736F6C65204D6F64650A00433E20000A78
:100B70000025750020746F20002575007377697457
:100B800063685F64656661756C745F6C61796572DA
:100B90003A20006D3A096D6F7573656B65790A00CF
:100BA0004553432F713A09717569740A000A0A2D79
:100BB0002D2D2D2D20436F6E736F6C652048656C55
:100BC00070202D2D2D2D2D0A00506175733A096A64
:100BD000756D7020746F20626F6F746C6F616465E7
:100BE000720A00436170733A094C6F636B204B6566
:100BF00079626F617264284368696C642050726F17
:100C00006F66290A00505363723A09706F776572F4
:100C100020646F776E2F72656D6F74652077616BDE
:100C2000652D75700A00342F46343A09737769745C
:100C3000636820746F204C6179657234200A003338
:100C40002F46333A0973776974636820746F204CB8
:100C50006179657233200A00322F46323A09737780
:100C60006974636820746F204C6179657232200A60
:100C700000312F46313A0973776974636820746FC5
:100C8000204C6179657231200A00302F4631303AAC
:100C90000973776974636820746F204C6179657299
:100CA00030200A006E3A09746F67676C65204E4BFE
:100CB000524F0A00653A097072696E74206565705A
:100CC000726F6D20636F6E6669670A00733A097010
:100CD00072696E74207374617475730A00743A09D2
:100CE0007072696E742074696D657220636F756EC1
:100CF000740A00763A097072696E742064657669C8
:100D000063652076657273696F6E202620696E6652
:100D10006F0A007A3A09746F67676C6520736C65B7
:100D20006570204C454420746573740A006D3A095F
:100D3000746F67676C65206D6F757365206465629D
:100D400075670A006B3A09746F67676C65206B659D
:100D500079626F6172642064656275670A00783A2F
:100D600009746F67676C65206D61747269782064BF
:100D7000656275670A00643A09746F67676C65207D
:100D8000646562756720656E61626C650A00633A2E
:100D900009656E74657220636F6E736F6C65206D8C
:100DA0006F64650A000A0A2D2D2D2D2D20436F6DCD
:100DB0006D616E642048656C70202D2D2D2D2D0ADF
:100DC000000A002575002E6E6B726F3A20000A0033
:100DD0002575002E737761705F6261636B736C6160
:100DE00073685F6261636B73706163653A20000AC8
:100DF000002575002E737761705F67726176655F9D
:100E00006573633A20000A002575002E6E6F5F67D8
:100E100075693A20000A002575002E737761705FAE
:100E200072616C745F726775693A20000A002575FB
:100E3000002E737761705F6C616C745F6C677569AD
:100E40003A20000A002575002E636170736C6F6391
:100E50006B5F746F5F636F6E74726F6C3A20000A21
:100E6000002575002E737761705F636F6E74726F0B
:100E70006C5F636170736C6F636B3A20000A0025CE
:100E8000303258006B65796D61705F636F6E6669B3
:100E9000672E7261773A20000A002575002E6D6F6B
:100EA0007573653A20000A002575002E6B6579621E
:100EB0006F6172643A20000A002575002E6D61741E
:100EC0007269783A20000A002575002E656E61620D
:100ED0006C653A20000A002530325800646562755E
:100EE000675F636F6E6669672E7261773A20000AEA
:100EF0000025750064656661756C745F6C61796569
:100F0000723A20003F004E4B524F3A2064697361A1
:100F1000626C65640A004E4B524F3A20656E616206
:100F20006C65640A007573625F6B6579626F6172EC
:100F3000645F69646C655F636F756E743A202558F1
:100F40000A007573625F6B6579626F6172645F6CD2
:100F50006564733A2025580A005544494E543A2096
:100F600025580A00554449454E3A2025580A00554F
:100F700044434F4E3A2025580A006B6579626F61F1
:100F800072645F69646C653A2025580A006B657964
:100F9000626F6172645F70726F746F636F6C3A201E
:100FA00025580A00686F73745F6B6579626F6172B0
:100FB000645F6C65647328293A2025580A000A0A80
:100FC0002D2D2D2D2D20537461747573202D2D2DF5
:100FD0002D2D0A0074696D65725F636F756E743ACA
:100FE000202530346C580A004743433A20342E38C9
:100FF0002E32204156522D4C4942433A20312E3850
:101000002E30204156525F415243483A2061767259
:10101000350A004F5054494F4E533A20504A5243DC
:1010200020424F4F544D41474943204D4F55534562
:101030004B45592045585452414B455920434F4E3A
:10104000534F4C4520434F4D4D414E44204E4B5243
:101050004F203531320A004255494C443A206364EE
:1010600035633661332D6469727479202832333ADE
:1010700030303A31312041707220313220323031FB
:1010800036290A005649443A2030784645454428D6
:10109000544D4B2F43756229205049443A203078F3
:1010A00031333037284572676F646F782920564591
:1010B000523A203078303030310A00444553433AB8
:1010C00020742E6D2E6B2E206B6579626F617264B9
:1010D000206669726D7761726520666F7220457255
:1010E000676F646F780A000A0A2D2D2D2D2D20566A
:1010F000657273696F6E202D2D2D2D2D0A000A4407
:10110000454255473A206D6F757365206469736178
:10111000626C65642E0A000A44454255473A206DC8
:101120006F75736520656E61626C65642E0A000AD6
:1011300044454255473A206B6579626F617264207D
:1011400064697361626C65642E0A000A4445425505
:10115000473A206B6579626F61726420656E6162E7
:101160006C65642E0A000A44454255473A206D6179
:10117000747269782064697361626C65642E0A0018
:101180000A44454255473A206D617472697820657A
:101190006E61626C65642E0A000A44454255473A06
:1011A00020656E61626C65642E0A000A44454255F2
:1011B000473A2064697361626C65642E0A006E6F41
:1011C0007420737570706F727465642E0A000A0A59
:1011D0004A756D7020746F20626F6F746C6F6164FC
:1011E00065722E2E2E2000433E20000A456E746547
:1011F0007220436F6E736F6C65204D6F64650A00DB
:10120000556E6C6F636B65642E0A004C6F636B6583
:10121000642E0A006565636F6E6669673A0A00535B
:101220006C656570204C454420746573740A000039
:1012300000000000000000000000010204060A0F88
:1012400017202C3A4A5D71879DB3C7DAE9F5FCFF98
:10125000FCF5E9DAC7B39D87715D4A3A2C20170F78
:101260000A06040201000000000000000000000067
:1012700011241FBECFEFDAE0DEBFCDBF04B603FE00
:1012800024C08091CB019091CC01A091CD01B0916F
:10129000CE018730904BA740B04BB9F41092CB01F0
:1012A0001092CC011092CD011092CE0114BE84B7E1
:1012B000877F84BF88E10FB6F89480936000109216
:1012C00060000FBEE0E0FFE3099511E0A0E0B1E0AF
:1012D000EAEBFCE502C005900D92A232B107D9F706
:1012E00011E0A2E2B1E001C01D92AB3CB107E1F711
:1012F0000E94140E0C945B2E0C940000FF93EF934D
:10130000E091B501F091B601309709F00995EF91A0
:10131000FF910895FC018591803011F0EFDFFBCF44
:101320000895FF27E0E230E247FF0CC0419597FFA8
:1013300009C0EDE26095709580959095611D711DD5
:10134000811D911D27FF02C0219530E350E2AA279D
:10135000660F771F881F991FAA1FA41710F0A41BE0
:1013600063955A95A9F7AA3008F0A95FA05DAF93DD
:10137000F395611571058105910541F7ED3211F481
:10138000EF93F395F21718F43F93F395FBCF8F91FA
:10139000B5DFFA95E1F70895E991F99185918030EB
:1013A00021F0853219F0AADFF9CF089520E0E89402
:1013B00055915532C1F3503311F4689455915A3315
:1013C00048F4505390F3220F022E220F220F200DCB
:1013D000250FF4CF0EF4219589919991533619F385
:1013E000533729F1533559F1BC0188279927E894DF
:1013F0005C3621F48991999168945591543639F469
:1014000046EF7EF077FF0DC08FEF9FEF0AC0553794
:101410004AE039F0583540E121F0523642E009F017
:101420000895FF93EF937DDFEF91FF91B7CFFF9387
:10143000EF93FC0181918030B9F360DFFBCFFF9324
:10144000EF9368DFF1CFDF93CF93CDB7DEB725966B
:10145000A3DFCF91DF910895089508950F931F930F
:10146000CF93DF931F92CDB7DEB78C01611117C008
:1014700069830E9478188EEB91E00E948A092FEF11
:1014800080E792E0215080409040E1F700C00000EA
:101490000E940C218EEA91E00E948A0969818EEFF8
:1014A000860F8230C0F5F8019581292F207F828137
:1014B000222311F090FF1FC0623019F415E005E0FF
:1014C00002C016E000E5882359F0812F0E94E51C38
:1014D000802F0F90DF91CF911F910F910C94881E58
:1014E000802F0E948E1E812F0F90DF91CF911F9130
:1014F0000F910C94061D882321F088E20E94DD1DC7
:1015000003C088E20E942A1E0F90DF91CF911F91A5
:101510000F910C94B11E0F90DF91CF911F910F91FD
:101520000895FC018281882341F0662319F061301F
:1015300039F003C081E791E0089580E090E00895DC
:1015400082E591E00895CF93C82F60919801709142
:10155000990180919A0190919B010E94F11F2C2F7B
:1015600030E0843059F4F901E05CF109E630F1052E
:1015700090F5EE0FFF1FE150FE4F19C0873059F470
:10158000F901E05CF109E430F10528F5EE0FFF1FE9
:10159000E950FE4F0CC0893071F4F901E05CF109AB
:1015A000E031F10540F4EE0FFF1FE952FE4F859147
:1015B0009491009799F4205C31092032310540F470
:1015C000F901EE0FFF1FE55FFD4F8591949106C075
:1015D00080E090E003C080E090E0EBCFCF910895F1
:1015E000272F70E030E0833060F496E0929FF001A6
:1015F000939FF00D112494E5899FE00DF11D1124B6
:1016000006C086E0829FF001839FF00D1124E60F53
:10161000F71FE55BFD4F84910895809101018111D1
:101620001AC080E40E94CF0D80930101811111C086
:1016300082E10E94F90D8093010181110AC080911D
:101640003F0187958827879580950E94F90D8093A3
:1016500001010E94F10D84B1807F84B985B1807F42
:1016600085B98AB1837F8AB98BB1837F8BB93E9864
:10167000469808950E94E30C0E94720D8093010128
:101680000E942A0D0E940D0B80B38C7080BB81B329
:10169000836F81BBE1E3F1E0A3E2B1E011921D921F
:1016A00081E0EF33F807D1F708959F92AF92BF9290
:1016B000CF92DF92EF92FF920F931F93CF93DF931E
:1016C000809101018823E1F0809122018F5F809356
:1016D0002201811115C08DEA93E00E948A090E94BF
:1016E000720D80930101882329F083E993E00E9421
:1016F0008A0906C08FE793E00E948A090E942A0D9A
:1017000003E211E0C0E0D0E0BB24B39482E0A82E55
:10171000CC24C394D12C20E7E22E23E0F22EC73054
:1017200030F580910101811168C080E40E94CF0DE5
:1017300080930101811118C082E10E94F90D80930C
:101740000101811111C080913F01879588278795FC
:1017500096010C2E01C0220F0A94EAF7822B809585
:101760000E94F90D809301010E94F10D46C0CA301C
:10177000A1F028F4C83059F0C93061F005C0CC3070
:1017800089F070F0CD3089F0209A289810C0219A05
:1017900029980DC0229A2A980AC0239A2B9807C02C
:1017A000529A01C0539A5B9802C03E9A4698E0EA6A
:1017B000EA95F1F78FB179997FC092E081708B251E
:1017C000892B7C9B02C090E001C094E0892B7D9B1B
:1017D00002C090E001C098E0892B7E9B02C090E09F
:1017E00001C090E1892B9FB19095991F9927991F6E
:1017F0009295990F907E892B10C0809101018111E3
:1018000070C080E40E94CF0D80930101882309F409
:1018100055C0912C0E94F10D892DF80190819817E7
:1018200039F1808380910001882301F18091B30117
:1018300080FF04C085E793E00E948A098091B3018C
:1018400080FF0CC0809100011F928F93FF92EF9256
:101850000E94230A0F900F900F900F908091B30178
:1018600080FF04C08EE693E00E948A09A0920001E6
:101870000E940D0B21960F5F1F4FCE30D10509F04E
:101880004ECF80910001882371F181508093000137
:10189000882339F08FE99FE00197F1F700C000003D
:1018A00022C0A1E3B1E0E3E2F1E081918D9391E008
:1018B000E133F907D1F717C090E080CF83E10E94B0
:1018C000F90D809301018111A4CF81E40E94CF0D15
:1018D0008093010181119DCF0E940A0E982E909451
:1018E00099CF80E09ACF81E0DF91CF911F910F9146
:1018F000FF90EF90DF90CF90BF90AF909F900895B2
:10190000E82FF0E0EF5CFE4F80810895CF92DF92E8
:10191000EF92FF920F931F93CF93DF9387E593E0AE
:101920000E948A0931E3E32E31E0F32EC0E0D0E0DB
:1019300042E5C42E43E0D42E09E413E0DF93CF93B5
:10194000DF92CF920E94230A8FE493E00E948A09DB
:10195000F70181917F0190E00E9456209F938F9321
:101960001F930F930E94230A87E493E00E948A0941
:1019700021968DB79EB708960FB6F8949EBF0FBEFE
:101980008DBFCE30D105D1F6DF91CF911F910F9150
:10199000FF90EF90DF90CF90089580FF03C0259ACD
:1019A0002D9A02C025982D9881FF03C0269A2E9A61
:1019B00002C026982E9882FF03C0279A2F9A089576
:1019C00027982F98089589EA8093800089E0809372
:1019D000810024982C983F988AB18F748AB96E98A8
:1019E000479A8BB1806B8BB9769A089580910101EB
:1019F00081112FC080E40E94CF0D809301018111DD
:101A000024C084E10E94F90D8093010181111DC061
:101A100080913F0187958827879580950E94F90DD1
:101A200080930101811111C0809141018795882720
:101A30008795909140019295990F990F907C892BF1
:101A400080950E94F90D809301010E94F10D809113
:101A50000101089556985E9825982D9826982E98FD
:101A600027982F98109241011092400110923F0147
:101A70000E94F60C8FEF90E090938900809388008D
:101A800090938B0080938A0090938D0080938C00BC
:101A9000569A5E9A259A2D9A269A2E9A279A2F9AC6
:101AA00081E0809341018093400180933F010E9437
:101AB000F60C2FE782E490E1215080409040E1F75E
:101AC00000C0000056985E9825982D9826982E986C
:101AD00027982F98109241011092400110923F01D7
:101AE0000C94F60C80E280930101809142018111F7
:101AF0000EC00E94C90D81E0809342012FEF83ED5B
:101B000090E3215080409040E1F700C0000080E465
:101B10000E94CF0D8093010181112EC00E94F90D0A
:101B200080930101811128C00E94F90D8093010169
:101B3000811122C08FE30E94F90D80930101811170
:101B40001BC00E94F10D80E40E94CF0D8093010123
:101B5000811112C08CE00E94F90D80930101811166
:101B60000BC00E94F90D80930101811105C08FE324
:101B70000E94F90D809301010E94F10D80910101F5
:101B8000811104C00E94F60C809301018091010133
:101B900008951092B9008AE08093B800089594EAFD
:101BA0009093BC009091BC0097FFFCCF9091B9003E
:101BB000987F983021F0903111F081E00895809362
:101BC000BB0084E88093BC008091BC0087FFFCCF01
:101BD0008091B900887F883111F0803471F780E0FE
:101BE000089584E98093BC008091BC0084FDFCCF03
:101BF00008958093BB0084E88093BC008091BC0072
:101C000087FFFCCF9091B900987F81E0983209F46A
:101C100080E0089584E88093BC008091BC0087FF39
:101C2000FCCF8091BB00089580E880936100109202
:101C300061000E944E0F0E94670F8823E1F380E04D
:101C40009FE00E94EC1F0E943C130E94530E0E94D2
:101C5000AA120E94762C80914701882369F00E9485
:101C60007020809148018823B1F30E94922088233C
:101C700091F30E94720FEFCF0E946A13ECCF809114
:101C8000430108950C94A2120C94A6120F93FC0128
:101C9000008124814381628181810E9405120F911C
:101CA00008950C94E30E82E091E00895FF920F9363
:101CB0001F93CF93DF93D82FF92E162F042F0E9456
:101CC000670F811102C08FEF2AC02FB7F8941093CD
:101CD000E900C091E400CE5C8091E80085FF04C07B
:101CE0009D2FED2FFF2D0EC02FBF0E94670F882361
:101CF00051F38091E4008C1731F32FB7F8941093CF
:101D0000E900EACF8E2F891B801720F48191809300
:101D1000F100F8CF8AE38093E8002FBF80E0DF91E5
:101D2000CF911F910F91FF900895EF92FF920F9323
:101D30001F93CF93DF938C018091B30182FF3CC04E
:101D40008DED93E00E948A09C0E0D0E088EDE82E96
:101D500083E0F82EF801EC0FFD1F82811F928F9314
:101D6000FF92EF920E94230A86ED93E00E948A0977
:101D700021960F900F900F900F90CE30D10551F714
:101D80008EEC93E00E948A09F80180811F928F9364
:101D900089EC93E09F938F930E94230A0F900F90FA
:101DA0000F900F9087EC93E0DF91CF911F910F91EF
:101DB000FF90EF900C948A09DF91CF911F910F91C2
:101DC000FF90EF9008951F93CF93DF93EC018091E4
:101DD0000F01882319F040E165E002C048E061E0AE
:101DE000CE010E94560E182F811105C01092440199
:101DF000CE010E94950E812FDF91CF911F91089502
:101E00001F93CF93DF93D82F0E94670F882371F021
:101E10009FB7F89483E08093E9008091460188237E
:101E200049F08091E80085FD03C09FBF8FEF2DC072
:101E300010924601C091E400CC5F13E08091E8006D
:101E400085FD12C09FBF8091E4008C1304C081E027
:101E500080934601EBCF0E94670F882339F39FB729
:101E6000F8941093E900EACFD093F1008091E80054
:101E700085FD06C08AE38093E8001092450103C007
:101E800082E0809345019FBF80E0DF91CF911F9159
:101E900008958091E80080FFFCCF089581E0809351
:101EA000D70080EA8093D80082E189BD09B400FEA2
:101EB000FDCF80E98093D8001092E00010924A0193
:101EC000109247018DE18093E2007894089580910B
:101ED0004A01882329F08091470191E089270895DC
:101EE00080E008958091E00082608093E00080911E
:101EF000E00081FDFCCF08951F920F920FB60F9264
:101F000011242F933F934F935F936F937F938F93FE
:101F10009F93AF93BF93CF93EF93FF93C091E10053
:101F20001092E100C0FF17C08091E20080FF13C053
:101F300080914A01882379F00E94882C8091E200E8
:101F40008E7F8093E2008091E20080618093E200C6
:101F500081E080934701C4FF1CC08091E20084FFB0
:101F600018C080914A018823A1F00E94A7200E94F6
:101F70008E2C0E94B4120E94CD0C8091E2008160F0
:101F80008093E2008091E2008F7E8093E2001092C5
:101F90004701C3FF0FC01092E90081E08093EB007E
:101FA0001092EC0082E28093ED0088E08093F000D4
:101FB00010924A01C2FF3BC080914A018823B9F1C7
:101FC00080914501882391F08150809345018111D2
:101FD0000DC083E08093E9008091E80085FF03C095
:101FE0001092F100F9CF8AE38093E80080910F010D
:101FF00081111DC080910C018823C9F08091490195
:102000008F5F80934901837091F481E08093E900B0
:102010008091E80085FF0BC0809144018F5F809321
:10202000440190910C01891302C010924401FF9168
:10203000EF91CF91BF91AF919F918F917F916F91D0
:102040005F914F913F912F910F900FBE0F901F9076
:1020500018951F920F920FB60F921124EF92FF92D4
:102060000F931F932F933F934F935F936F937F93A0
:102070008F939F93AF93BF93EF93FF93CF93DF9390
:102080001F92CDB7DEB71092E9008091E80083FF80
:10209000A1C19091F1008091F1003091F100209167
:1020A000F100E32EF12CF22A0091F1002091F100D1
:1020B00010E0122B2091F1004091F10030E0342B20
:1020C00042EF4093E800863009F044C06FE084EEB0
:1020D00093E0FC01459154914E155F0539F4FC01E4
:1020E0003296459154914017510721F0079661505F
:1020F00081F770C1FC01349645915491FC013696EC
:1021000084912F3F310519F010F02FEF30E02817A0
:1021100008F4822F3EEF9091E800292F2570D9F323
:1021200092FD5BC1982F813208F090E2FA01292FCD
:10213000222331F064916093F10021503196F8CF61
:10214000490F511D891B3093E8008111E4CF903273
:1021500011F343C1853051F48EEF8093E8000E9463
:10216000490F8E2D80688093E30037C1893061F577
:1021700091114AC0E0924A018EEF8093E80041E05D
:102180008BE196E051E04093E9009C012F5F3F4FC7
:10219000FC016491662379F05093EB00F9012491DE
:1021A0002093EC009C012D5F3F4FFC0132968491FF
:1021B0008093ED0002C01092EB004F5F473011F0AA
:1021C000C901E1CF8EE743C0883041F4903809F06F
:1021D00052C00E94490F80914A01CDC0811114C0A4
:1021E00099830E94490F9981923851F40093E90034
:1021F0008091EB0085FB882780F91092E90001C0EF
:1022000080E08093F100A6C0482F4D7F413099F5C2
:10221000923011F5E114F10409F085C0402F4F7799
:102220005FEF540F563008F07EC09EEF9093E800A9
:102230004093E900833009F4CDC089E18093EB003D
:1022400081E090E0042E01C0880F0A94EAF78093A1
:10225000EA001092EA00C1C091110DC0F1E0EF1642
:10226000F10409F060C0833019F4409348018CC038
:102270001092480189C00115110509F058C0913A22
:1022800061F58130D9F40E94490FE0911001F0917D
:10229000110180818093F1001092F10080E090E0C4
:1022A000E0911001F0911101E80FF91F22812093B4
:1022B000F10001968630910599F766C0823029F4C5
:1022C0000E94490F80910C0156C0833009F082C0F2
:1022D0000E94490F80910D014EC0913209F07AC0E1
:1022E000893061F48091E80082FFFCCF8091F10099
:1022F000809343018BEF8093E80046C08A3029F435
:10230000F0920C01109244013FC08B3009F062C082
:10231000E0920D0181E0E11001C080E080930F01A7
:102320000E94781831C00115110509F453C001301D
:10233000110571F5913A11F58130B9F451E0E516C6
:10234000F10459F40E94490F1092F1001092F1002B
:102350001092F1001092F10017C083E0E816F1042A
:10236000C9F50E94490F85E006C0833099F50E94A7
:10237000490F80910E018093F10006C0913251F512
:102380008B3041F5E0920E018EEF8093E80025C07E
:1023900002301105F9F48130E9F4913AD9F43EEFB5
:1023A0008091E800982F9570D9F382FD16C0822F96
:1023B000213208F080E2982F992321F01092F10049
:1023C0009150FACF281B3093E8002111E9CF8032D9
:1023D00039F303C081E28093EB000F90DF91CF913E
:1023E000FF91EF91BF91AF919F918F917F916F91ED
:1023F0005F914F913F912F911F910F91FF90EF901F
:102400000F900FBE0F901F901895EF92FF920F93B1
:102410001F93CF93DF9300D01F92CDB7DEB7E82E86
:10242000142F2B836A830E94670F2B816A8181118D
:1024300002C08FEF43C080E8E81202C041E8E42EFA
:10244000603809F461E8103809F411E8203809F41B
:1024500021E88FB7F89492E09093E9009091E4001E
:102460009E5C32E0F32E3091E80035FD14C08FBF42
:102470002B836A8399830E94670F2B816A819981DC
:102480008823B9F28091E400891799F28FB7F89404
:10249000F092E900E8CF0093F100E092F100609340
:1024A000F10090910E01992321F01093F1002093F7
:1024B000F1009AE39093E8008FBF80E00F900F90B7
:1024C0000F90DF91CF911F910F91FF90EF900895A2
:1024D000FF920F931F93CF93DF93D82F8B010E940E
:1024E000670F811102C08FEF27C09FB7F89484E077
:1024F0008093E900C091E400CE5C84E0F82E8091E6
:10250000E80085FD0EC09FBF0E94670F882359F326
:102510008091E4008C1739F39FB7F894F092E900AA
:10252000EECFD093F1000093F1001093F1008AE315
:102530008093E8009FBF80E0DF91CF911F910F91C2
:10254000FF900895BC0183E00C946812BC0182E006
:102550000C9468129093500180934F0108958091DC
:102560004F01909150010895E0914F01F091500179
:10257000309721F00190F081E02D099480E00895DA
:10258000FF920F931F93CF93DF938C01E0914F0144
:10259000F0915001309799F10280F381E02D099577
:1025A0008091B30182FF2BC080FF04C083E396E0DB
:1025B0000E948A09E80180E1F82E0DE216E0809180
:1025C000B30180FF0BC088811F928F931F930F93DD
:1025D0000E94230A0F900F900F900F90FA9421966B
:1025E000F110EDCF8091B30180FF09C08BE296E03E
:1025F000DF91CF911F910F91FF900C948A09DF9189
:10260000CF911F910F91FF900895E0914F01F091AC
:102610005001309721F00480F581E02D0994089550
:1026200020914D0130914E018217930771F09093E4
:102630004E0180934D01E0914F01F0915001309790
:1026400021F00680F781E02D0994089520914B0137
:1026500030914C018217930771F090934C01809355
:102660004B01E0914F01F0915001309721F000842F
:10267000F185E02D099408950E94A9200E943A0B4B
:102680000C947221CF93C82F8091B30182FF1EC09A
:1026900080FF04C08CE496E00E948A098091B30117
:1026A00080FF0CC01F92CF9327E436E03F932F9317
:1026B0000E94230A0F900F900F900F908091B3010A
:1026C00080FF04C085E496E00E948A098C2FCF9198
:1026D0000C94CD0CCF92DF92EF92FF920F931F9349
:1026E000CF93DF93CDB7DEB72B970FB6F894DEBF4D
:1026F0000FBECDBF0E94550B32E5E32E31E0F32E25
:1027000000E010E0C02E802F0E94800CF701D190D5
:102710007F01D826B1F40F5F1F4F0E30110591F7DE
:102720008FEF89838A831B820E94B2208160782F79
:102730009D838C8349815A816B818D810E940D1408
:1027400041C09091B30191FF04C08B870E94860C19
:102750008B8520E030E04D2D50E0922FBA01022E03
:1027600002C0759567950A94E2F760FF25C02E8335
:10277000CF82EE24E394F12C02C0EE0CFF1C9A955C
:10278000E2F790E08E219F2121E0892B09F420E0DF
:1027900028870E94B2208160782F9A8789874E818E
:1027A0005F8168858A850E940D14F801EE5AFE4FFC
:1027B00080818E25808306C02F5F3F4F26303105F4
:1027C00061F6A9CF0E94E024109151010E94B41239
:1027D0001817A1F00E94B412809351012B960FB6E6
:1027E000F894DEBF0FBECDBFDF91CF911F910F9147
:1027F000FF90EF90DF90CF900C9442132B960FB682
:10280000F894DEBF0FBECDBFDF91CF911F910F9126
:10281000FF90EF90DF90CF900895CF93DF93CDB7E7
:10282000DEB72B970FB6F894DEBF0FBECDBF4F8338
:10283000588769877A878B87DE01119686E0FD01CC
:1028400011928A95E9F785E0FE01379601900D9285
:102850008A95E1F749815A816B817C818D819E81C6
:102860000E94401B2B960FB6F894DEBF0FBECDBF63
:10287000DF91CF910895CF93C82F882309F4C1C069
:10288000823859F40E94B41281FDBBC089E30E94D2
:10289000DD1D0E94B11E89E30CC0833879F40E94CB
:1028A000B41280FDAEC083E50E94DD1D0E94B11E02
:1028B00083E50E942A1ECF910C94B11E843859F4EE
:1028C0000E94B41282FD9DC087E40E94DD1D0E941B
:1028D000B11E87E4EECF8CEF8C0F813A48F48C2F39
:1028E0000E94032B81118DC08C2F0E94DD1DE3CF30
:1028F00080E28C0F883048F4C77081E001C0880FF7
:10290000CA95EAF70E94781ED6CF8BE58C0F8330EC
:1029100078F4C53A29F0C63A31F482E890E005C06F
:1029200081E890E002C083E890E0CF910C9410130E
:1029300088E58C0F833108F064C0C83A39F1C93A90
:1029400041F1CA3A49F1CB3A51F1CC3A59F1CD3A79
:1029500061F1C03B69F1CE3A71F1CF3A79F1C13BF7
:1029600081F1C23B89F1C33B91F1C43B99F1C53B75
:10297000A1F1C63BA9F1C73BB1F1C83BB9F1C93BD5
:10298000C1F1CA3BC9F58AE292E038C082EE90E01C
:1029900035C089EE90E032C08AEE90E02FC085EB22
:1029A00090E02CC086EB90E029C087EB90E026C039
:1029B0008CEC90E023C08DEC90E020C083E891E0A7
:1029C0001DC08AE891E01AC082E991E017C084E94D
:1029D00091E014C081E292E011C083E292E00EC067
:1029E00084E292E00BC085E292E008C086E292E0C9
:1029F00005C087E292E002C080E090E0CF910C94A5
:102A00002613CF910895882309F44BC0823859F4D6
:102A10000E94B41281FF45C089E30E94DD1D0E941F
:102A2000B11E89E30CC0833871F40E94B41280FF98
:102A300038C083E50E94DD1D0E94B11E83E50E941F
:102A40002A1E0C94B11E843859F40E94B41282FFDD
:102A500028C087E40E94DD1D0E94B11E87E4EFCFED
:102A60009CEF980F913A58F390E2980F983050F4F9
:102A7000877091E001C0990F8A95EAF7892F0E942B
:102A80007E1EDFCF9BE5980F933020F480E090E02E
:102A90000C941013885A833120F480E090E00C9459
:102AA00026130895882321F00E94781E0C94B11EED
:102AB0000895882321F00E947E1E0C94B11E089573
:102AC000CF92DF92EF92FF920F931F93CF93DF93FA
:102AD000CDB7DEB728970FB6F894DEBF0FBECDBFD7
:102AE0008C0185E0F801DE01119601900D928A9526
:102AF000E1F7F80140813181F280258122952F7024
:102B000083819481892B31F03F3F31F481E04F3F45
:102B100019F403C081E001C080E080FDC8C2498390
:102B20003A8389819A812F830E949B1D9E83888787
:102B30000E949A1D0E946D1C4E81E42FE295EF7059
:102B4000F0E0EA5AFF4F2F8168850C94102E842FF5
:102B5000807F142F1F70882311F01295107FFF20A3
:102B600059F0112309F458C2812F68870E94881EEA
:102B70000E94B11E688550C2862F0E940315112342
:102B800009F495C2812F0E948E1E28960FB6F894E4
:102B9000DEBF0FBECDBFDF91CF911F910F91FF9090
:102BA000EF90DF90CF900C94B11E342F307F842FA4
:102BB0008F70303211F08295807F662319F061307A
:102BC00009F12AC0FF20A1F0222381F1213071F503
:102BD00028960FB6F894DEBF0FBECDBFDF91CF9120
:102BE0001F910F91FF90EF90DF90CF900C94981E63
:102BF000222319F0213009F45AC28E830E949B1EB1
:102C00008E818EC1FF2021F0263008F050C20EC008
:102C1000253008F04CC284C1FF20C1F0222331F0DE
:102C2000F801958190FFF8C19F70958328960FB6A3
:102C3000F894DEBF0FBECDBFDF91CF911F910F91F2
:102C4000FF90EF90DF90CF900C945215222309F45F
:102C500067C1F6C1242F26952695237030E02115F3
:102C6000310521F021303105C9F021C2FF2021F0CA
:102C7000862F942F937002C080E090E028960FB6C4
:102C8000F894DEBF0FBECDBFDF91CF911F910F91A2
:102C9000FF90EF90DF90CF900C941013FF2021F065
:102CA000862F942F937002C080E090E028960FB694
:102CB000F894DEBF0FBECDBFDF91CF911F910F9172
:102CC000FF90EF90DF90CF900C942613862FFF207B
:102CD00019F00E94662302C00E94CE2328960FB6E8
:102CE000F894DEBF0FBECDBFDF91CF911F910F9142
:102CF000FF90EF90DF90CF900C945324842F83703B
:102D000009F076C0F110D3C1262F229526952770A1
:102D1000220F220F862F8F70C82ED12CE12CF12C80
:102D2000022E04C0CC0CDD1CEE1CFF1C0A94D2F752
:102D300064FF10C06FE070E080E090E004C0660FB8
:102D4000771F881F991F2A95D2F7609570958095F7
:102D5000909503C060E070E0CB01242F2695269566
:102D60002370422F50E042305105D1F043305105DD
:102D700059F16C297D298E299F294130510541F156
:102D800028960FB6F894DEBF0FBECDBFDF91CF916E
:102D90001F910F91FF90EF90DF90CF900C94921CB9
:102DA0006C297D298E299F2928960FB6F894DEBFBD
:102DB0000FBECDBFDF91CF911F910F91FF90EF908C
:102DC000DF90CF900C94AC1C0E94921CC701B601FE
:102DD00028960FB6F894DEBF0FBECDBFDF91CF911E
:102DE0001F910F91FF90EF90DF90CF900C94781C83
:102DF000FF2019F0842F817001C08695882309F483
:102E000056C1262F229526952770220F220F862F36
:102E10008F70C82ED12CE12CF12C022E04C0CC0CCA
:102E2000DD1CEE1CFF1C0A94D2F764FF10C06FE09B
:102E300070E080E090E004C0660F771F881F991F44
:102E40002A95D2F7609570958095909503C060E0C3
:102E500070E0CB01242F269526952370422F50E059
:102E600042305105D1F04330510559F16C297D298B
:102E70008E299F294130510541F128960FB6F894CB
:102E8000DEBF0FBECDBFDF91CF911F910F91FF909D
:102E9000EF90DF90CF900C94661D6C297D298E29D0
:102EA0009F2928960FB6F894DEBF0FBECDBFDF91E5
:102EB000CF911F910F91FF90EF90DF90CF900C94E6
:102EC000801D0E94661DC701B60128960FB6F894B2
:102ED000DEBF0FBECDBFDF91CF911F910F91FF904D
:102EE000EF90DF90CF900C944C1D603F49F118F4A7
:102EF000603E48F48CC0623F09F451C0E0F1633F8A
:102F000009F461C084C0162F1F70842F8F71FF20B9
:102F100021F00E94E51C812F89CE0E94061D812F81
:102F200028960FB6F894DEBF0FBECDBFDF91CF91CC
:102F30001F910F91FF90EF90DF90CF900C94591557
:102F4000FF20A9F0253008F0B2C0842F8F71289699
:102F50000FB6F894DEBF0FBECDBFDF91CF911F91AA
:102F60000F91FF90EF90DF90CF900C942B1D2630A7
:102F700008F09DC0EACFFF20A1F0842F8F71289622
:102F80000FB6F894DEBF0FBECDBFDF91CF911F917A
:102F90000F91FF90EF90DF90CF900C94E51CFF20F5
:102FA00061F3842F8F7128960FB6F894DEBF0FBEA1
:102FB000CDBFDF91CF911F910F91FF90EF90DF90E8
:102FC000CF900C94061DFF2091F0842F8F712896CE
:102FD0000FB6F894DEBF0FBECDBFDF91CF911F912A
:102FE0000F91FF90EF90DF90CF900C94D01C28961B
:102FF0000FB6F894DEBF0FBECDBFDF91CF911F910A
:103000000F91FF90EF90DF90CF900C94C61CFF20A3
:10301000A1F0222309F4B1CF862F28960FB6F89499
:10302000DEBF0FBECDBFDF91CF911F910F91FF90FB
:10303000EF90DF90CF900C943B14222309F4B1CF92
:10304000862F28960FB6F894DEBF0FBECDBFDF9156
:10305000CF911F910F91FF90EF90DF90CF900C9444
:1030600003154F70C8010E94910A28960FB6F89474
:10307000DEBF0FBECDBFDF91CF911F910F91FF90AB
:10308000EF90DF90CF900C94ED1B4F70C801289605
:103090000FB6F894DEBF0FBECDBFDF91CF911F9169
:1030A0000F91FF90EF90DF90CF900C942E0A28960E
:1030B0000FB6F894DEBF0FBECDBFDF91CF911F9149
:1030C0000F91FF90EF90DF90CF9008950E94951E92
:1030D0000E946A1E0E94B11E0E9481250E945324F4
:1030E00080E090E00E94101380E090E00C942613A2
:1030F0000E94851E0C9466180E949B1D292F229504
:103100002F7030E02C3031054CF42A3031056CF44E
:10311000225031092230310570F407C02C303105BE
:1031200031F02F30310519F006C081E0089593FB8E
:10313000882780F9089580E00895CF93DF9300D029
:1031400000D01F92CDB7DEB70F900F900F900F9069
:103150000F90DF91CF910895CF93DF9300D000D0EF
:1031600000D0CDB7DEB726960FB6F894DEBF0FBEFF
:10317000CDBFDF91CF9108951F93CF93DF93C0917F
:10318000600116E080916101C81799F0D0E01C9FA2
:10319000F0011D9FF00D1124EE59FE4F4081518129
:1031A00062817381848195810E94AC182196C770D9
:1031B000E9CFDF91CF911F910895409192015091F5
:1031C0009301609194017091950180919601909185
:1031D00097010C94AC18CF938091970182958F70D2
:1031E00009F05FC080919401882309F45AC02091AE
:1031F0006001A091610160919201709193018091B1
:1032000095019091960131E06F3F09F030E0B32FC6
:10321000C6E02A1709F445C0009721F07F3F21F44A
:103220004B2F03C041E001C040E030E040FD35C01D
:10323000C29FF001C39FF00D1124EE59FE4F418152
:1032400074132BC04081641328C04281411125C0F2
:10325000438154814817590710F441505109481BC4
:10326000590B463E5105C8F4809197018F708061DB
:103270008093970186E0829FF001839FF00D1124D7
:10328000E959FE4F80818F708061808382E991E0EF
:103290000E946015CF910C94BC182F5F3F4F277090
:1032A000B8CFCF910895CF92DF92EF92FF920F9314
:1032B0001F93CF93DF93CDB7DEB762970FB6F89425
:1032C000DEBF0FBECDBF8C0185E0F801DE011D968B
:1032D00001900D928A95E1F7D8014C9111965C917D
:1032E000119712966C9112971396ED90FC9014978B
:1032F00070919201E0919301209195013091960196
:103300002115310531F0EF3F31F481E07F3F19F4B1
:1033100003C081E001C080E0B82FB170CB2E80FDEA
:103320006CC1D0909401DD2009F4F5C0F0919701B3
:10333000E216F30638F0C701821B930B863E910517
:1033400048F09BC0209530952E0D3F1D263E31053F
:1033500008F093C08F2F807F09F052C0E51314C08E
:10336000741312C0D62E61110FC0FF70F061F0937C
:1033700097010E94DD1882E991E00E94601580911A
:103380009701F80185836CC1EF2831F05F3F31F47C
:1033900081E04F3F19F403C081E001C080E080FD6F
:1033A00003C081E0862701C080E0F82FF170FF2E76
:1033B00080FF1CC0809160012091610136E082177E
:1033C00009F428C190E0389FF001399FF00D1124D5
:1033D000EE59FE4F7181571306C07081471303C029
:1033E0007281671303C001968770E9CFD62E6623DA
:1033F00009F436C18091970181608093970153C091
:10340000E51308C0741306C0611104C0D8011596F5
:10341000FC93AEC04D875E878D859E856A8B0E942A
:103420007C186A89882329F1D62E662311F1209110
:103430009701822F82958F7090E002970CF460C004
:10344000809192019091930198878F831986FB86D2
:10345000EA862C87CE01079651C0E51731F14D87DA
:103460005E878D859E856A8B0E947C186A89811192
:103470002EC0C8010E946015A4C08F2F807F69F7FD
:103480007E2DF98AE88A89890E949D1882E991E057
:103490000E946015E2E9F1E086E0DF011D928A9565
:1034A000E9F70E94DD18D12CDBC07413D8CF61116D
:1034B000D6CFD8011596FC93C8010E946015E2E9A9
:1034C000F1E086E0DF011D928A95E9F7C9C0D62EAA
:1034D000662379F220919701822F82958F7090E078
:1034E000029774F080919201909193019A8389835D
:1034F0001B82FD82EC822E83CE0101960E94601514
:1035000086E0F801A2E9B1E001900D928A95E1F719
:103510000E94EB186FC0E216F30628F0C701821B69
:10352000930B9C0104C0209530952E0D3F1D263E27
:10353000310508F052C0D62E662309F49ACFE51360
:103540002CC074132AC08091970180FD1DC0982F54
:1035500092959F70C9F0D80115968C9315979F305E
:1035600039F09F5F9295907F8F70892B15968C9381
:10357000C8010E94601586E0F801A2E9B1E001905F
:103580000D928A95E1F736C086E0F801A2E9B1E034
:1035900001900D928A95E1F763C04D875E878D8516
:1035A0009E850E947C18882379F086E0F801A2E9C4
:1035B000B1E001900D928A95E1F70E94EB180E940C
:1035C000DD18DD24D3944CC08091970181608093F5
:1035D0009701C8010E94601543C07E2DF98AE88AD0
:1035E00089890E949D18E2E9F1E086E0DF011D92E1
:1035F0008A95E9F70E94DD1833C0662309F439CFB4
:103600004D875E878D859E850E947C18882309F4EE
:1036100030CFCBCF4D875E878D859E850E949B1DC9
:10362000292F22952F7030E0223031052CF49F7025
:1036300041F0811106C00CC0243031052CF49F707C
:1036400049F4805E883020F0C8010E946015CF2CBC
:10365000DC2C06C0D80115969C91907F91F7F8CF8D
:103660008D2D62960FB6F894DEBF0FBECDBFDF91F1
:10367000CF911F910F91FF90EF90DF90CF90089521
:103680001F93CF93DF93CDB7DEB72C970FB6F89487
:10369000DEBF0FBECDBF4F83588769877A878B8780
:1036A0009C87CE0107960E9453198823C1F02F8171
:1036B00038858A859B85892B31F03F3F11F080E06A
:1036C00003C02F3FE1F781E0811147C04F8158854A
:1036D00069857A858B859C850E94AC183EC086E002
:1036E000FE013796DE01119601900D928A95E1F761
:1036F000FF81E8854A855B854115510531F0EF3F33
:1037000031F481E0FF3F19F403C081E001C080E0A3
:1037100080FD23C02091610130E0C90101968770CE
:1037200099276091600170E086179707F1F1F9839E
:10373000EA835D834C8396E0929FD001939FB00D06
:103740001124AE59BE4FFE01319601900D929A950B
:10375000E1F7809361010E94BC1816E0809160013E
:1037600090916101891779F1189FC00111248E5938
:103770009E4F0E945319882331F1E09160011E9FF2
:10378000F0011124EE59FE4F408151816281738115
:10379000848195810E94AC188091600190E001962F
:1037A0008770992780936001D9CF0E947818109272
:1037B000610110926001E2E9F1E086E0DF011D9213
:1037C0008A95E9F7CACF2C960FB6F894DEBF0FBEE4
:1037D000CDBFDF91CF911F910895EF92FF920F938C
:1037E0001F93CF93DF939C01009709F46FC0F12CD6
:1037F000EE24E394E9012196F9018491843740F4A1
:10380000843008F054C0813081F0823021F15EC0F4
:10381000853709F447C0B0F19CE7980F903708F05E
:1038200055C08F770E94031544C089010E5F1F4F5A
:10383000FE01849190E2980F983050F48770FE2D2D
:1038400001C0FF0F8A95EAF78F2F0E94881E15C0CE
:103850000E943B1412C089010E5F1F4FFE0184912C
:1038600090E2980F983058F48770FE2D01C0FF0F3A
:103870008A95EAF78F2F0E948E1EE8011AC00E94D7
:103880000315FBCF2E5F3F4FFE01C491CC2341F0C7
:103890008FE99FE00197F1F700C00000C150F6CF1B
:1038A000E90107C0FE01F490E901229602C00E94DE
:1038B0003B148F2D882341F0EFE9FFE03197F1F7BA
:1038C00000C000008150F6CF9E0194CFDF91CF91D0
:1038D0001F910F91FF90EF900895089560939C01C0
:1038E00070939D0180939E0190939F010C946618A4
:1038F0000F931F9300919C0110919D0120919E01B7
:1039000030919F01062B172B282B392B00939C01FC
:1039100010939D0120939E0130939F011F910F9161
:103920000C9466180F931F9300919C0110919D01B8
:1039300020919E0130919F010623172328233923CC
:1039400000939C0110939D0120939E0130939F0151
:103950001F910F910C9466180F931F9300919C0177
:1039600010919D0120919E0130919F0106271727FC
:103970002827392700939C0110939D0120939E01D5
:1039800030939F011F910F910C946618109298012B
:103990001092990110929A0110929B010C94661852
:1039A00041E050E060E070E004C0440F551F661F26
:1039B000771F8A95D2F740939801509399016093AD
:1039C0009A0170939B010C94661841E050E060E00E
:1039D00070E004C0440F551F661F771F8A95D2F709
:1039E0008091980190919901A0919A01B0919B01C9
:1039F000842B952BA62BB72B80939801909399013C
:103A0000A0939A01B0939B010C94661841E050E09A
:103A100060E070E004C0440F551F661F771F8A9551
:103A2000D2F740955095609570958091980190914E
:103A30009901A0919A01B0919B0184239523A6231B
:103A4000B7238093980190939901A0939A01B09322
:103A50009B010C94661841E050E060E070E004C007
:103A6000440F551F661F771F8A95D2F780919801E2
:103A700090919901A0919A01B0919B01842795277B
:103A8000A627B7278093980190939901A0939A0154
:103A9000B0939B010C9466180F931F9300919801AB
:103AA0001091990120919A0130919B01062B172BBF
:103AB000282B392B009398011093990120939A0198
:103AC00030939B011F910F910C9466180F931F93D5
:103AD000009198011091990120919A0130919B01D8
:103AE0000623172328233923009398011093990163
:103AF00020939A0130939B011F910F910C946618AB
:103B00000F931F93009198011091990120919A01B0
:103B100030919B0106271727282739270093980102
:103B20001093990120939A0130939B011F910F915B
:103B30000C9466180895CF92DF92EF92FF920F9344
:103B40001F93CF93DF93EC01C0909C01D0909D0117
:103B5000E0909E01F0909F018091980190919901D1
:103B6000A0919A01B0919B01C82AD92AEA2AFB2A7E
:103B70000FE110E0B701A601002E04C0769567950D
:103B8000579547950A94D2F740FF07C0BE01802F92
:103B90000E94791F8130910539F40150110950F7C5
:103BA000BE0180E00E94791FDF91CF911F910F919C
:103BB000FF90EF90DF90CF90089590910F0199239F
:103BC00041F1982F9695969596959F3088F4E091BF
:103BD0001001F0911101E90FF11D877021E030E033
:103BE00001C0220F8A95EAF78181822B8183089593
:103BF0009091B30190FF2DC01F928F938DE796E0B7
:103C00009F938F930E94230A0F900F900F900F9015
:103C10000895409110015091110120E030E09FEF94
:103C2000FA01E20FF31F6281681799F09F3F19F4C0
:103C3000611101C0922F2F5F3F4F2E30310581F768
:103C40009F3F39F0FA01E90FF11D97FDFA95828344
:103C50000895089590910F01992349F1982F969511
:103C6000969596959F3090F4E0911001F091110196
:103C7000E90FF11D877021E030E001C0220F8A9525
:103C8000EAF7209581812823218308959091B3013B
:103C900090FF1FC01F928F938FE596E09F938F93A5
:103CA0000E94230A0F900F900F900F90089540915B
:103CB00010015091110120E030E0FA01E20FF31FF2
:103CC0009281981301C012822F5F3F4F2E30310531
:103CD000A1F7089581E090E0E0911001F0911101C9
:103CE000E80FF91F1082019680319105A9F7089518
:103CF0009091B201982B9093B20108958095909184
:103D0000B20198239093B20108951092B2010895E0
:103D10009091B101982B9093B10108958095909165
:103D2000B10198239093B10108951092B1010895C3
:103D30008093A00108951092A00108954091100170
:103D40005091110120E030E080E0FA01E20FF31F12
:103D5000918191118F5F2F5F3F4F2F303105A9F770
:103D60000895E0911001F09111018091B2018083DA
:103D7000E0911001F091110180819091B101892BA6
:103D800080839091A001992361F0E0911001F0915E
:103D900011018081892B80830E949E1E81111092C7
:103DA000A00180911001909111010C94C0128B3BE5
:103DB00060F4883A00F5853AA8F4843088F48130BC
:103DC00009F055C081E090E00895803E08F44FC0AE
:103DD000883E30F0803F08F44AC090E09065089536
:103DE00090E00895853A09F445C0863A09F045C047
:103DF00082E890E40895883A09F442C0893A09F4C7
:103E000042C08A3A09F442C08B3A09F442C08C3A63
:103E100009F442C08D3A09F442C0803B09F442C023
:103E20008E3A09F442C08F3A09F442C0813B09F44A
:103E300042C0823B09F442C0833B09F442C0843B48
:103E400009F442C0853B09F442C0863B09F442C0F4
:103E5000873B09F442C0883B09F442C0893B09F41E
:103E600042C08A3B09F042C08AE296E4089580E0AD
:103E700090E0089581E890E4089583E890E408953F
:103E800082EE94E4089589EE94E408958AEE94E431
:103E9000089585EB94E4089586EB94E4089587EB08
:103EA00094E408958CEC94E408958DEC94E40895E2
:103EB00083E895E408958AE895E4089582E995E415
:103EC000089584E995E4089581E296E4089583E2F3
:103ED00096E4089584E296E4089585E296E40895D0
:103EE00086E296E4089587E296E4089580E094E4FB
:103EF00008950E94F00A803EA8F4803C00F58133CA
:103F000009F45CC038F4893209F452C08A3209F4E9
:103F10005BC05FC08933B1F08238A1F0853309F40A
:103F200041C057C0833E41F128F4803E99F0823E63
:103F3000B9F04FC0863E31F1873E71F14AC00E9410
:103F4000A30A08959091CA0190FD02C091FF41C05B
:103F500080EE3FC08091CA0180FFFACF89E339C06B
:103F60008091CA0182FF0CC08091CA0184FF02C007
:103F700080E02FC083EE2DC08091CA0182FFF4CF74
:103F800082EE27C08091CA0183FF0AC08091CA01D6
:103F900084FDEECF87EE1DC08091CA0183FFF6CF6E
:103FA00086EE17C08091CA0185FF06C089E211C064
:103FB0008091CA0185FFFACF85E30BC08091CA01C9
:103FC00086FF06C08AE205C08091CA0186FFFACF4B
:103FD00081E30E94D71E08959093B6018093B501A6
:103FE0000895CF92DF92EF92FF920F931F936C018F
:103FF000EE24FF24C114D104E104F10421F46B0187
:104000007C0180E001C080E133272F2D1E2D0D2D76
:10401000011511052105310519F0885F6801790145
:1040200097018601A4E03695279517950795AA95DF
:10403000D1F7011511052105310519F08C5F6801D3
:10404000790197018601F2E0369527951795079536
:10405000FA95D1F7011511052105310519F08E5F8B
:1040600068017901B701A60176956795579547953F
:10407000452B462B472B09F08F5F1F910F91FF9027
:10408000EF90DF90CF9008958295982F9C7C969525
:104090009695837344E0849F90011124922B892F7D
:1040A0008A7A86959575990F892B08951F93CF93DA
:1040B000DF931F92CDB7DEB799830E944420182F5B
:1040C0009981892F0E944420212F30E0322F22270E
:1040D000A901482BCA010F90DF91CF911F9108953C
:1040E0001092B40120E488E190E00FB6F894A8950E
:1040F000809360000FBE2093600083B7817F84604F
:1041000083BF83B7816083BF7894889583B78E7FA0
:1041100083BF88E10FB6F89480936000109260002E
:104120000FBE0895CF930E942C0A0E94550B0E9447
:104130002D0AC0E08C2F0E94800C811105C0CF5F3A
:10414000CE30C1F780E001C081E0CF9108950C949A
:10415000781882E084BD93E095BD9AEF97BD809377
:104160006E0008952FB7F8948091B7019091B8012F
:10417000A091B901B091BA012FBF0895CF92DF92FB
:10418000EF92FF920F931F932FB7F8944091B701CE
:104190005091B8016091B9017091BA012FBF6A01C5
:1041A0007B01EE24FF248C0120E030E0C016D10614
:1041B000E206F30610F441505109481B590BCA019D
:1041C0001F910F91FF90EF90DF90CF9008951F9275
:1041D0000F920FB60F9211248F939F93AF93BF93BB
:1041E0008091B7019091B801A091B901B091BA0145
:1041F0000196A11DB11D8093B7019093B801A093C2
:10420000B901B093BA01BF91AF919F918F910F9077
:104210000FBE0F901F901895F89481E08093E000F6
:1042200080E28093D8001092C9008FE19EE401974C
:10423000F1F700C0000087E090EBDC018093CB0138
:104240009093CC01A093CD01B093CE012CE088E1F6
:1042500090E00FB6F894A895809360000FBE20936D
:104260006000FFCFEF92FF920F931F93CF93DF93E6
:10427000E82EF12C8F2D0E94800CC0E0D0E0082F9A
:1042800010E098010C2E02C0359527950A94E2F7AC
:1042900020FD05C02196C630D10599F709C06C2FC5
:1042A0007F2D80E00E94F00AE812F4CF81E005C083
:1042B000F3948EE0F812DECF80E0DF91CF911F9172
:1042C0000F91FF90EF900895CF93C82F8CE20E943A
:1042D0003221882321F08C2FCF910C94322180E061
:1042E000CF910895CF930E94BF22811102C00E94F6
:1042F000A52282EA96E00E948A09C5E6C15049F0EB
:104300000E94550B8FE39CE90197F1F700C0000074
:10431000F5CF8BE996E00E948A0989E20E94642128
:10432000811111C18AE20E94642181110E94A5229B
:1043300085E00E94642181110E940C210E94CA2202
:104340008093B30187E00E946421882399F18BE177
:104350000E946421882351F09091B30191FB88273A
:1043600080F921E0822780FB91F922C08EE00E9433
:104370006421882351F09091B30192FB882780F942
:1043800021E0822780FB92F913C080E10E94642122
:104390009091B301882341F093FB882780F921E0B5
:1043A000822780FB93F904C0892F809580FB90F9C8
:1043B0009093B3018091B3010E94CE220E94DC222F
:1043C0008093CA0180EE0E946421882341F080918D
:1043D000CA01982F909590FB80F98093CA0189E3D8
:1043E0000E946421882359F09091CA0191FB88278B
:1043F00080F921E0822780FB91F99093CA0182EE37
:104400000E946421882359F09091CA0192FB882769
:1044100080F921E0822780FB92F99093CA0186EE11
:104420000E946421882359F09091CA0193FB882748
:1044300080F921E0822780FB93F99093CA0183EEF3
:104440000E946421882359F09091CA0194FB882727
:1044500080F921E0822780FB94F99093CA0185E3DB
:104460000E946421882359F09091CA0195FB882706
:1044700080F921E0822780FB95F99093CA0181E3BE
:104480000E946421882359F09091CA0196FB8827E5
:1044900080F921E0822780FB96F99093CA0181E19F
:1044A0000E946421882359F09091CA0197FB8827C4
:1044B00080F921E0822780FB97F99093CA018091CF
:1044C000CA010E94E0228091CA0187FB882780F9F7
:1044D00080930F0187E20E946421C82F8EE10E9421
:1044E00064218111C2608FE10E9464218111C46046
:1044F00080E20E9464218111C86081E20E946421EF
:104500008111C06182E20E9464218111C06283E254
:104510000E9464218111C06484E20E946421882386
:1045200011F0C06802C0CC2329F08C2F0E94D72242
:104530006C2F03C00E94D322682F70E080E090E0CF
:10454000CF910C946E1CCF9108956DEE7EEF80E0BC
:1045500090E00E94462E60E082E090E00E94382EBB
:1045600060E083E090E00E94382E60E084E090E01C
:104570000E94382E60E085E090E00C94382E80E0B8
:1045800090E00E94322E21E08D3E9E4F09F020E007
:10459000822F089582E090E00C942A2E682F82E00A
:1045A00090E00C94382E83E090E00C942A2E682F33
:1045B00083E090E00C94382E84E090E00C942A2E56
:1045C000682F84E090E00C94382E8091BD0180FF2C
:1045D0000BC06091150185E0689FB00111247595AD
:1045E0006795759567952AC081FF09C0609115018F
:1045F00085E0689FB0011124759567951FC082FF03
:1046000007C06091150185E0689FB001112416C0B4
:104610004091BE014423C9F060911401461788F708
:104620002091150185E0289F90011124429FC0012F
:10463000439F900D112470E00E94FC2D603871059D
:1046400040F46115710539F002C065E070E0862F15
:1046500008958FE7089581E008958091BD0180FF5E
:1046600008C06091130170E0759567957595679521
:1046700021C081FF06C06091130170E075956795B8
:1046800019C082FF04C06091130170E010C08091D6
:10469000BE018823C1F0609112018617A0F79091A6
:1046A0001301989FC001112470E00E94FC2D603816
:1046B000710528F46115710521F0862F08958FE7A3
:1046C000089581E0089561E070E0F4CF803F21F427
:1046D0000E94E522819504C0813F29F40E94E522D1
:1046E0008093C1010895823F21F40E94E5228195C3
:1046F00004C0833F29F40E94E5228093C0010895FD
:10470000893F19F40E942D2305C08A3F31F40E948D
:104710002D2381958093C20108958B3F21F40E943F
:104720002D23819504C08C3F29F40E942D23809372
:10473000C3010895843F21F48091BF01816017C0B7
:10474000853F21F48091BF01826011C0863F21F432
:104750008091BF0184600BC0873F21F48091BF012D
:10476000886005C0883F31F48091BF0180618093EB
:10477000BF0108958D3F21F48091BD0181600BC080
:104780008E3F21F48091BD01826005C08F3F29F4E6
:104790008091BD0184608093BD010895803F39F40C
:1047A0008091C10187FF6CC01092C10169C0813F37
:1047B00029F48091C1011816BCF362C09091C00128
:1047C000823F29F497FF5CC01092C00159C0833F1B
:1047D00019F41916CCF354C0893F41F48091C201F9
:1047E00018160CF04DC01092C2014AC08A3F29F43D
:1047F0008091C20187FF44C0F6CF8B3F39F480918E
:10480000C30187FF3DC01092C3013AC08C3F29F419
:104810008091C3011816BCF333C0843F21F480910A
:10482000BF018E7F17C0853F21F48091BF018D7F2E
:1048300011C0863F21F48091BF018B7F0BC0873F61
:1048400021F48091BF01877F05C0883F31F48091BA
:10485000BF018F7E8093BF0113C08D3F21F48091F3
:10486000BD018E7F0BC08E3F21F48091BD018D7FF5
:1048700005C08F3F29F48091BD018B7F8093BD01DE
:104880008091C00181110EC08091C10181110AC0C7
:104890008091C201811106C08091C301811102C0C3
:1048A0001092BE0108958091B30183FF7EC08EED0A
:1048B00096E00E948A098091BF011F928F9389ED33
:1048C00096E09F938F930E94230A87ED96E00E94C3
:1048D0008A092091C001822F992787FD90959F9387
:1048E0002F9384ED96E09F938F930E94230A82ED8D
:1048F00096E00E948A092091C101822F992787FDA5
:1049000090959F932F938FEC96E09F938F930E94A7
:10491000230A8DEC96E00E948A092091C201822F21
:10492000992787FD90959F932F938AEC96E09F930C
:104930008F930E94230A88EC96E00E948A092091B6
:10494000C301822F992787FD90959F932F9385EC24
:1049500096E09F938F930E94230A82EC96E00E9438
:104960008A098091BE011F928F938FEB96E09F93EF
:104970008F930E94230A8DEB96E00E948A09809112
:10498000BD011F928F938AEB96E09F938F930E94B5
:10499000230A87EB96E00E948A098DB79EB74C9652
:1049A0000FB6F8949EBF0FBE8DBF8FEB91E00E94B3
:1049B00005130E94B2209093BC018093BB0108951F
:1049C0001F93CF93DF938091BB019091BC010E9414
:1049D000BE204091BE01442321F02091160130E019
:1049E00006C0209117015AE0259F900111248217DB
:1049F000930708F482C08091C0011091C101D09149
:104A0000C201C091C301811107C0111105C0D111AC
:104A100003C0CC2309F471C04F3F19F04F5F40939E
:104A2000BE01181624F40E94E5228093C0018091F3
:104A3000C00187FF05C00E94E52281958093C001D7
:104A4000111624F40E94E5228093C1018091C101D6
:104A500087FF05C00E94E52281958093C101609186
:104A6000C001662339F11091C101112319F1772793
:104A700067FD7095872F972F0E940D2D23E333E359
:104A800043E35FE30E94712D0E94DA2C6093C00122
:104A9000612F772767FD7095872F972F0E940D2D27
:104AA00023E333E343E35FE30E94712D0E94DA2C9A
:104AB0006093C1011D1624F40E942D238093C2012E
:104AC0008091C20187FF05C00E942D2381958093AC
:104AD000C2011C1624F40E942D238093C3018091EF
:104AE000C30187FF05C00E942D2381958093C301D8
:104AF000DF91CF911F910C945324DF91CF911F919F
:104B00000895EFEBF1E085E0DF011D928A95E9F76A
:104B10001092BE011092BD0108958DEA9BE00E94A3
:104B20008A0980EA9BE00E948A0983E99BE00C9451
:104B30008A0980E19BE00E948A0983E09BE00E9451
:104B40008A0988EE9AE00E948A098DEC9AE00E9418
:104B50008A0985EB9AE00E948A098BE99AE00E9413
:104B60008A098DE79AE00E948A098DE59AE00E9401
:104B70008A0988E49AE00E948A0981E39AE00E9407
:104B80008A0984E19AE00E948A0985EF99E00E94EF
:104B90008A0985ED99E00E948A0983EB99E00E94D9
:104BA0008A098EE799E00E948A0989E699E00E94C5
:104BB0008A091F9285E08F9386E699E09F938F93F1
:104BC0000E94230A8DE599E00E948A091F9281E0E4
:104BD0008F938AE599E09F938F930E94230A88E53B
:104BE00099E00E948A098DB79EB708960FB6F8948F
:104BF0009EBF0FBE8DBF8BE299E00C948A09833073
:104C000009F459C028F4813061F0823079F10895B7
:104C1000853009F49AC008F473C0863009F4BAC02C
:104C2000089520911701862F90E0820F911D8F3FEC
:104C3000910520F4620F6093170103C08FEF8093FA
:104C4000170187E098E00E948A09809117011F925E
:104C50008F9384E098E09F938F930E94230A0F9094
:104C60000F900F900F9082E098E0B8C0209116014D
:104C7000862F90E0820F911D8F3F910520F4620FE7
:104C80006093160103C08FEF8093160183EF97E0C6
:104C90000E948A09809116011F928F9380EF97E0FE
:104CA0009F938F930E94230A0F900F900F900F9065
:104CB0008EEE97E093C020911501862F90E0820F31
:104CC000911D8F3F910520F4620F6093150103C081
:104CD0008FEF809315018EED97E00E948A098091F5
:104CE00015011F928F938BED97E09F938F930E94F6
:104CF000230A0F900F900F900F9089ED97E06EC0F0
:104D000020911401862F90E0820F911D8F3F910515
:104D100020F4620F6093140103C08FEF809314019D
:104D200087EC97E00E948A09809114011F928F936B
:104D300084EC97E09F938F930E94230A0F900F902B
:104D40000F900F9082EC97E049C020911301862FBD
:104D500090E0820F911D8F3F910520F4620F6093C8
:104D6000130103C08FEF809313018CEA97E00E9438
:104D70008A09809113011F928F9389EA97E09F938C
:104D80008F930E94230A0F900F900F900F9087EA45
:104D900097E024C020911201862F90E0820F911D90
:104DA0008F3F910520F4620F6093120103C08FEFD3
:104DB000809312018FE897E00E948A098091120186
:104DC0001F928F938CE897E09F938F930E94230A02
:104DD0000F900F900F900F908AE897E00C948A093B
:104DE000833009F44DC028F4813061F0823049F1FC
:104DF0000895853009F482C008F461C0863009F452
:104E00009CC0089580911701681720F4861B809339
:104E1000170102C0109217018EE797E00E948A09DD
:104E2000809117011F928F938BE797E09F938F9349
:104E30000E94230A0F900F900F900F9089E797E040
:104E40009AC080911601681720F4861B8093160182
:104E500002C0109216018AE697E00E948A098091AA
:104E600016011F928F9387E697E09F938F930E947E
:104E7000230A0F900F900F900F9085E697E07BC06C
:104E800080911501681720F4861B8093150102C0DC
:104E90001092150185E597E00E948A09809115011D
:104EA0001F928F9382E597E09F938F930E94230A2E
:104EB0000F900F900F900F9080E597E05CC080916D
:104EC0001401681720F4861B8093140102C010920D
:104ED00014018EE397E00E948A09809114011F92C9
:104EE0008F938BE397E09F938F930E94230A0F90F9
:104EF0000F900F900F9089E397E03DC080911301D0
:104F0000681720F4861B8093130102C010921301CE
:104F100083E297E00E948A09809113011F928F9388
:104F200080E297E09F938F930E94230A0F900F9047
:104F30000F900F908EE197E01EC0809112016817CC
:104F400020F4861B8093120102C01092120186E0A9
:104F500097E00E948A09809112011F928F9383E04B
:104F600097E09F938F930E94230A0F900F900F90CA
:104F70000F9081E097E00C948A09CF93C82F8CE7BB
:104F80009BE00E948A0960919C0170919D01809133
:104F90009E0190919F010E94F11F1F928F9329E71C
:104FA0003BE03F932F930E94230A84E79BE00E94FB
:104FB0008A091F92CF9321E73BE03F932F930E94F2
:104FC000230A8FE69BE00E948A0961E070E080E09E
:104FD00090E004C0660F771F881F991FCA95D2F70B
:104FE0000E946E1C8DB79EB708960FB6F8949EBFB0
:104FF0000FBE8DBFCF910C947818CF93482F50E0FF
:10500000FA013697E334F10508F0F1C2EA59FF4F8F
:105010000C94102E8FE192E10E948A090E94942C38
:105020000E94B4120E94CD0C43C184E192E10E941F
:105030008A0984EF9EE00E948A090E94D3221F926F
:105040008F9381EF9EE09F938F930E94230A8FEEB0
:105050009EE00E948A090E94CA22C82F8CED9EE021
:105060000E948A091F92CF9327ED3EE03F932F9332
:105070000E94230A85ED9EE00E948A098BEC9EE047
:105080000E948A098C2F81701F928F9328EC3EE03A
:105090003F932F930E94230A86EC9EE00E948A0988
:1050A0008CEB9EE00E948A09C1FB882780F91F9241
:1050B0008F9329EB3EE03F932F930E94230A87EBC7
:1050C0009EE00E948A098BEA9EE00E948A09C2FB48
:1050D000882780F91F928F9328EA3EE03F932F9311
:1050E0000E94230A86EA9EE00E948A098DE99EE0DA
:1050F0000E948A09C3FBCC27C0F91F92CF938AE98B
:105100009EE09F938F930E94230A88E99EE00E946D
:105110008A090E94DC22C82F84E89EE00E948A0946
:105120001F92CF932FE73EE03F932F930E94230AD5
:105130008DE79EE00E948A0984E69EE00E948A092B
:105140008C2F81701F928F9321E63EE03F932F9327
:105150000E94230A8DB79EB780960FB6F8949EBF23
:105160000FBE8DBF8FE59EE00E948A0988E49EE015
:105170000E948A09C1FB882780F91F928F9325E43A
:105180003EE03F932F930E94230A83E49EE00E9417
:105190008A0981E39EE00E948A09C2FB882780F980
:1051A0001F928F932EE23EE03F932F930E94230A9B
:1051B0008CE29EE00E948A098AE19EE00E948A09B0
:1051C000C3FB882780F91F928F9327E13EE03F932E
:1051D0002F930E94230A85E19EE00E948A098BE0BA
:1051E0009EE00E948A09C4FB882780F91F928F9352
:1051F00028E03EE03F932F930E94230A86E09EE042
:105200000E948A0984EF9DE00E948A09C5FB8827D5
:1052100080F91F928F9321EF3DE03F932F930E94DF
:10522000230A8FEE9DE00E948A0983ED9DE00E9493
:105230008A09C6FB882780F91F928F9320ED3DE0F5
:105240003F932F930E94230A8EEC9DE00E948A09CF
:1052500086EC9DE00E948A09C7FBCC27C0F91F920B
:10526000CF9383EC9DE09F938F930E94230A81EC60
:105270009DE00E948A098DB79EB74C960FB6F894B0
:105280009EBF0FBE8DBF14C00E94AF12892B91F03C
:105290000E94AF129093C6018093C5010E947818B6
:1052A00080E090E00E94AA128BE092E10E948A09BD
:1052B000C1E0A2C18091C5019091C6010E94AA12CD
:1052C00080E092E1F3CF85EA9DE00E948A098EE8B2
:1052D0009DE00E948A0986E79DE00E948A098EE58A
:1052E0009DE00E948A0984E49DE00E948A098DE283
:1052F0009DE00E948A0983E19DE00E948A0983EF74
:105300009CE00E948A098DED9CE00E948A098CEC49
:105310009CE00E948A0984EB9CE00E948A0984EA4E
:105320009CE00E948A098AE89CE00E948A0981E741
:105330009CE00E948A0988E59CE00E948A098FE32C
:105340009CE00E948A0986E29CE00E948A0985E02E
:105350009CE00E948A0983EE9BE00E948A0989EC06
:105360009BE0A4CF8091B301817F8E7F8093B301B6
:105370000E948D258BEE91E10E948A0987EE91E1D2
:105380000E948A0981E08093C40192CF0E9478181C
:105390008EEC91E10E948A099FEF23ED80E391500A
:1053A00020408040E1F700C000000E940C218EEBFD
:1053B00091E17CCF8091B301C82FC17080FF09C0FB
:1053C0008BEA91E10E948A098091B301817F8E7FEF
:1053D00044C089E991E10E948A098091B30181600A
:1053E0008093B30165CF8091B30181FBCC27C0F9D5
:1053F00091E0C927C0FB81F98093B301CC2319F058
:1054000080E891E125C086E691E150CF8091B3011B
:1054100082FBCC27C0F991E0C927C0FB82F98093B9
:10542000B301CC2319F08BE491E112C08FE291E13A
:105430003DCF8091B30183FBCC27C0F991E0C92710
:10544000C0FB83F98093B301CC2351F087E191E154
:105450000E948A098091B30181608093B301CCC01E
:105460008EEF90E123CF87EE90E10E948A098BEBCB
:1054700090E10E948A0984E890E10E948A0987E508
:1054800090E10E948A0983E190E10E948A0988EEF6
:105490009FE00CCF8091B7019091B801A091B90124
:1054A000B091BA01BF93AF939F938F9384ED9FE028
:1054B0009F938F930E94230A0F900F900F900F904D
:1054C0000F900F90F5CE8EEB9FE00E948A090E940C
:1054D000B4121F928F9384EA9FE09F938F930E9450
:1054E000230A80910D011F928F938DE89FE09F9377
:1054F0008F930E94230A80910C011F928F938AE759
:105500009FE09F938F930E94230A8091E0001F9257
:105510008F938FE69FE09F938F930E94230A809141
:10552000E2001F928F9384E69FE09F938F930E94E7
:10553000230A8091E1001F928F9389E59FE09F935A
:105540008F930E94230A809143011F928F9382E4DC
:105550009FE09F938F930E94230A809144011F92A2
:105560008F9385E29FE09F938F930E94230A8DB7CC
:105570009EB780960FB6F8949EBF0FBE8DBF98CE93
:105580000E947818C0910F0181E0C827C0930F01D5
:10559000CC2329F086E19FE00E948A092DC086E095
:1055A0009FE084CE80914701882339F080914801A3
:1055B000882319F00E94720F7BCE81E890E00E9450
:1055C000101380E090E00E9410139FEF29E688E11D
:1055D000915020408040E1F700C0000069CE80E09B
:1055E00003C08D5101C089530E94BD2761CE84E064
:1055F0009FE00E948A09C0E08C2FCF91089580E03F
:10560000089580E00895CF93C82F8091C401813020
:1056100081F020F0823009F452C060C1A0911001E5
:10562000B09111018C91813169F0823209F058C139
:1056300009C0A0911001B09111018C91813111F03C
:10564000823249F48C2F0E94FF2A811135C08C2FA1
:105650000E94FD2732C08C2F0E94012B81112CC08B
:10566000C431F1F090F4CB30A1F0C03101F50E94CB
:1056700099258EE39BE00E948A098AE39BE00E94C1
:105680008A0982E08093C40117C0C93249F0C83347
:1056900071F40E948D258BE69BE00E948A090CC064
:1056A00087E59BE00E948A091092C4011BC188E330
:1056B0009BE00E948A0916C181E0817015C1C83241
:1056C00020F5CE3108F0BFC0CB3099F1C8F4C73017
:1056D00009F0E7C08AE08093170194E190931601E6
:1056E00093E0909315018093140188E08093130157
:1056F00088E28093120180EE98E00E948A09D6C069
:10570000C33141F1C431C1F0CCC0CB3409F4BEC0C7
:1057100028F4C93289F0C83361F0C3C0C13509F437
:10572000B3C0C23509F4AEC0CE3409F0BAC06AE0E5
:10573000B3C00E949925BAC01092C70183E199E0D5
:105740000E948A098FE099E00E948A0981E0809393
:10575000C401CAC083EB98E00E948A098EE998E0F0
:105760000E948A09809117011F928F938BE998E01C
:105770009F938F930E94230A89E998E00E948A09E7
:1057800084E898E00E948A09809116011F928F9305
:1057900081E898E09F938F930E94230A8FE798E017
:1057A0000E948A098DE698E00E948A09809115017D
:1057B0001F928F938AE698E09F938F930E94230A0B
:1057C00088E698E00E948A0984E598E00E948A09A8
:1057D000809114011F928F9381E598E09F938F939E
:1057E0000E94230A8FE498E00E948A0987E398E0E8
:1057F0000E948A09809113011F928F9384E398E09D
:105800009F938F930E94230A82E398E00E948A0963
:1058100088E198E00E948A09809112011F928F937B
:1058200085E198E09F938F930E94230A83E198E09B
:105830000E948A098DB79EB748960FB6F8949EBF0E
:105840000FBE8DBF33C0CE51EC2FF0E0E85EFE4FAF
:1058500080818093C7018AEF98E00E948A09809135
:10586000C7011F928F9387EF98E09F938F930E94B9
:10587000230A85EF98E00E948A090F900F900F90FD
:105880000F9014C061E003C061E006C06AE080913F
:10589000C7010E94FF250AC08091C7010E94F0261F
:1058A00005C08EED98E00E948A0916C08CED98E044
:1058B0000E948A098091C7011F928F9389ED98E019
:1058C0009F938F930E94230A86ED98E00E948A0995
:1058D0000F900F900F900F9081E006C01092C401BE
:1058E00080E002C080E0E9CECF910895E1E8F0E0E9
:1058F0008081886080838081816080838FB7F89405
:1059000093E09093890090ED909388008FBF089565
:10591000EFE6F0E08081826080830895EFE6F0E0BA
:1059200080818D7F80830895EFE6F0E0808192E0B2
:105930008927808308951F920F920FB60F9211242A
:105940002F933F934F935F936F937F938F939F9387
:10595000AF93BF93EF93FF938091C8019091C901DA
:1059600001969093C9018093C801811103C082E020
:105970000E94CD0CE091C901E695E695F0E0E15D6D
:10598000FD4EE4918091C8018E1303C080E00E9417
:10599000CD0CFF91EF91BF91AF919F918F917F912E
:1059A0006F915F914F913F912F910F900FBE0F908C
:1059B0001F90189504D06894B1118DC0089570D0CF
:1059C00088F09F5790F0B92F9927B751A0F0D1F0E8
:1059D000660F771F881F991F1AF0BA95C9F712C072
:1059E000B13081F077D0B1E0089574C0672F782F7F
:1059F0008827B85F39F0B93FCCF3869577956795DE
:105A0000B395D9F73EF490958095709561957F4F49
:105A10008F4F9F4F0895E89409C097FB3EF49095EF
:105A20008095709561957F4F8F4F9F4F9923A9F077
:105A3000F92F96E9BB279395F69587957795679506
:105A4000B795F111F8CFFAF4BB0F11F460FF1BC04A
:105A50006F5F7F4F8F4F9F4F16C0882311F096E9DD
:105A600011C0772321F09EE8872F762F05C066238B
:105A700071F096E8862F70E060E02AF09A95660F44
:105A8000771F881FDAF7880F9695879597F90895FD
:105A900057FD9058440F551F59F05F3F71F04795DF
:105AA000880F97FB991F61F09F3F79F087950895C4
:105AB000121613061406551FF2CF4695F1DF08C0E3
:105AC000161617061806991FF1CF86957105610500
:105AD00008940895E894BB2766277727CB0197F9A8
