:100000000C94F5080C943C090C943C090C943C09A4
:100010000C943C090C943C090C943C090C943C094C
:100020000C943C090C943C090C94F0110C94C012F3
:100030000C943C090C943C090C943C090C943C092C
:100040000C943C090C94122F0C943C090C943C0920
:100050000C943C090C9487230C943C090C943C09A7
:100060000C943C090C943C090C943C090C943C09FC
:100070000C943C090C943C090C943C090C943C09EC
:100080000C943C090C943C090C943C090C943C09DC
:100090000C943C090C943C090C943C090C943C09CC
:1000A0000C943C090C943C090C943C0935145714ED
:1000B0004615571446159C14C014461515152815D9
:1000C0005718571886188618E0181E19271B271B63
:1000D0003719271B381A381AFB1A271B271B121B24
:1000E000572C7F2CBA2A6B2D6B2D082C6B2D6B2D6A
:1000F000AC2C6B2DC02C362D6B2D6B2D6B2D6B2DE1
:100100000B2DF22C6B2DDB2C6B2D982C6B2DAF2A2D
:10011000652D652D652D652D652D652D652D652D4F
:10012000652D632D6B2D632D6B2D6B2D6B2D6B2D25
:100130006B2D6B2D6B2D6B2D6B2D6B2D6B2D632D07
:100140006B2D6B2D082CE92B672D672D672D672DE7
:10015000672D672D672D672D672D672D672D672DFF
:10016000482D6B2D6B2C750F01080208011B021B1B
:10017000010402040110021001130213010F020F07
:100180000108020800750F01E001E2013B023B7427
:10019000FF02E202E074FF011B021B0110021001CA
:1001A0001202120111021101520252012802287496
:1001B000FF01E001E2013E023E74FF02E202E07450
:1001C000FF006E6F7420737570706F727465642EAB
:1001D0000A000A0A4A756D7020746F20626F6F748E
:1001E0006C6F616465722E2E2E2000620159045AD4
:1001F000045B045C045D045E045F04600461042B22
:10020000032B014B034E035601570100C001C001EF
:10021000C001C0000031022D023602370238020050
:10022000F033022D02360237022A214C22292449BA
:100230003828322C312B2235212C242928343230F5
:1002400031018F028F048FF1A2F1A1F1A231A71D1C
:10025000A41BA306A819A904A416A307A809A235DC
:100260002B29E1E0001E14041DE34D1F1A151BE2AB
:100270004C20091606D52C21131719D64A220A0735
:100280000500AAA82F002D00A94630002E00AE239D
:100290000D0B0E00AD240F1110514E2518083652CB
:1002A0002A261C0C375028273312384F4B3931344B
:1002B000E5E4000000000000003A00000000003B00
:1002C00000000000013C000000D5013D00000000DE
:1002D000003E000000000044000000000045000057
:1002E0000000003F0000000000400000000000414E
:1002F0000000000001420000000001430000000077
:1003000000000000000000000000000000000000ED
:1003100000000000000000000100000000000100DB
:10032000000000D6000000000000000000000000F7
:10033000000000000000000000C1380000535F5CB6
:1003400059620054605D5A620155615E5B630156FB
:1003500057575858000000000000000A00253031AF
:100360003662003A200025303258000A722F63208E
:1003700030313233343536373839414243444546DB
:100380000A000A002530325800626F756E636521DD
:100390003A20006C6566742073696465206174742A
:1003A00061636865640A006C6566742073696465DE
:1003B000206E6F7420726573706F6E64696E670A69
:1003C00000747279696E6720746F2072657365744A
:1003D000206D637032333031380A005B735D004B3F
:1003E0006579626F6172642073746172742E0A00A1
:1003F00055534220636F6E666967757265642E0A95
:10040000005B575D005B535D005B525D005B445DCC
:10041000005B435D0010034500720067006F0064DD
:10042000006F0078000000100354004D004B002FB7
:100430000043007500620000000403090409028DF6
:1004400000050100A03209040000010301010009B8
:100450002111010001223F000705810308000A095C
:100460000401000103010200092111010001224DD4
:10047000000705820308000A0904020001030000C6
:10048000000921110100012236000705830308003D
:100490000A09040300020300000009211101000100
:1004A0002220000705840320000107050403200023
:1004B00001090404000103000000092111010001E9
:1004C0002239000705850310000112011001000008
:1004D0000008EDFE071301000102000105010906F5
:1004E000A101050719E029E7150025019508750107
:1004F00081020508190129059505750191029501EB
:1005000075039101050719002977150025019578D4
:1005100075018102C00631FF0974A101097515003A
:1005200025FF9520750881020976150025FF952085
:1005300075089102C005010980A10185021601001C
:1005400026B7001A01002AB700751095018100C076
:10055000050C0901A1018503160100269C021A0160
:10056000002A9C02751095018100C005010902A1B5
:10057000010901A1000509190129051500250195A9
:100580000575018102950175038101050109300995
:10059000311581257F950275088106093815812559
:1005A0007F950175088106050C0A38021581257FA3
:1005B000950175088106C0C005010906A10105075E
:1005C00019E029E7150025019508750181029501BB
:1005D0007508810105081901290595057501910224
:1005E0009501750391010507190029FF150025FFE5
:1005F000950675088100C00A002530325820006B2E
:100600006579626F6172645F7265706F72743A20AF
:10061000000A0025303258006B6579626F617264A0
:100620005F7365745F6C65643A200064656C5F6B32
:1006300065795F6269743A2063616E27742064652E
:100640006C3A20253032580A006164645F6B65792A
:100650005F6269743A2063616E2774206164643A52
:1006600020253032580A00646F6E652E0A00626FD2
:100670006F676D61676963207363616E3A202E2E28
:100680002E2000290A002575002F002575005D2801
:10069000002564002000256400200025640020005F
:1006A0002564007C0025303258006D6F7573656BD2
:1006B0006579205B62746E7C782079207620685D95
:1006C000287265702F61636C293A205B000A00254F
:1006D00075006D6B5F776865656C5F74696D655FEC
:1006E000746F5F6D6178203D20000A002575006DF4
:1006F0006B5F776865656C5F6D61785F737065656A
:1007000064203D20000A002575006D6B5F74696DE3
:10071000655F746F5F6D6178203D20000A0025756C
:10072000006D6B5F6D61785F7370656564203D205F
:10073000000A002575006D6B5F696E7465727661E5
:100740006C203D20000A002575006D6B5F64656CB0
:100750006179203D20000A002575006D6B5F776888
:1007600065656C5F74696D655F746F5F6D6178203E
:100770003D20000A002575006D6B5F776865656C2C
:100780005F6D61785F7370656564203D20000A00CD
:100790002575006D6B5F74696D655F746F5F6D616A
:1007A00078203D20000A002575006D6B5F6D617833
:1007B0005F7370656564203D20000A002575006D3B
:1007C0006B5F696E74657276616C203D20000A0073
:1007D0002575006D6B5F64656C6179203D20000AB2
:1007E00000257500363A206D6B5F776865656C5F34
:1007F00074696D655F746F5F6D61783A20000A00FF
:10080000257500353A206D6B5F776865656C5F6DA7
:1008100061785F73706565643A20000A0025750091
:10082000343A206D6B5F74696D655F746F5F6D61E5
:10083000783A20000A00257500333A206D6B5F6D11
:1008400061785F73706565643A20000A0025750061
:10085000323A206D6B5F696E74657276616C286DDB
:1008600073293A20000A00257500313A206D6B5F2C
:1008700064656C6179282A31306D73293A20000A49
:100880000A2D2D2D2D2D204D6F7573656B657920EB
:10089000506172616D6574657273202D2D2D2D2D43
:1008A0000A003E20002575004D003F00736574204E
:1008B00064656661756C742076616C7565732E0A6B
:1008C000000A0025750073656C65637465642070AB
:1008D0006172616D657465723A2000433E20000AC2
:1008E00051756974204D6F7573656B657920436F21
:1008F0006E736F6C650A0053656520687474703A96
:100900002F2F656E2E77696B6970656469612E6F34
:1009100072672F77696B692F4D6F7573655F6B65B4
:1009200079730A000A002575002C20776865656CCC
:100930003D0025750077686572652064656C74619B
:100940003A20637572736F723D000A737065656457
:10095000203D2064656C7461202A206D61785F738E
:1009600070656564202A2028726570656174202F87
:100970002074696D655F746F5F6D6178290A00701E
:1009800067646F776E3A09646563726561736520A9
:10099000706172616D6574657273282D3130290A3A
:1009A00000706775703A09696E63726561736520DE
:1009B000706172616D6574657273282B3130290A1C
:1009C00000646F776E3A09646563726561736520D0
:1009D000706172616D6574657273282D31290A002A
:1009E00075703A09696E6372656173652070617232
:1009F000616D6574657273282B31290A00643A09A8
:100A00007365742064656661756C742076616C75BD
:100A100065730A00703A097072696E7420706172B1
:100A2000616D65746572730A00363A0973656C65A9
:100A30006374206D6B5F776865656C5F74696D6565
:100A40005F746F5F6D61780A00353A0973656C6594
:100A50006374206D6B5F776865656C5F6D61785F4F
:100A600073706565640A00343A0973656C65637474
:100A7000206D6B5F74696D655F746F5F6D61780A7F
:100A800000333A0973656C656374206D6B5F6D614B
:100A9000785F73706565640A00323A0973656C6546
:100AA0006374206D6B5F696E74657276616C286D1E
:100AB00073290A00313A0973656C656374206D6BA4
:100AC0005F64656C6179282A31306D73290A0045AD
:100AD00053432F713A09717569740A000A0A2D2D62
:100AE0002D2D2D204D6F7573656B657920506172CA
:100AF000616D65746572732048656C70202D2D2DB5
:100B00002D2D0A003F004D303E000A456E7465727F
:100B1000204D6F7573656B657920436F6E736F6CD5
:100B2000650A000A5175697420436F6E736F6C65B6
:100B3000204D6F64650A00433E20000A00257500C1
:100B400020746F20002575007377697463685F6493
:100B5000656661756C745F6C617965723A20006DD1
:100B60003A096D6F7573656B65790A004553432FBC
:100B7000713A09717569740A000A0A2D2D2D2D2DFF
:100B800020436F6E736F6C652048656C70202D2D4F
:100B90002D2D2D0A00506175733A096A756D70200C
:100BA000746F20626F6F746C6F616465720A0043CA
:100BB0006170733A094C6F636B204B6579626F61AA
:100BC0007264284368696C642050726F6F66290AEA
:100BD00000505363723A09706F77657220646F77C3
:100BE0006E2F72656D6F74652077616B652D757002
:100BF0000A00342F46343A097377697463682074A5
:100C00006F204C6179657234200A00332F46333AE5
:100C10000973776974636820746F204C6179657219
:100C200033200A00322F46323A09737769746368B9
:100C300020746F204C6179657232200A00312F4692
:100C4000313A0973776974636820746F204C617955
:100C5000657231200A00302F4631303A09737769C6
:100C600074636820746F204C6179657230200A00CB
:100C70006E3A09746F67676C65204E4B524F0A00DD
:100C8000653A097072696E7420656570726F6D20C7
:100C9000636F6E6669670A00733A097072696E74F1
:100CA000207374617475730A00743A097072696E06
:100CB000742074696D657220636F756E740A0076B6
:100CC0003A097072696E742064657669636520768E
:100CD000657273696F6E202620696E666F0A007AEE
:100CE0003A09746F67676C6520736C656570204C9A
:100CF000454420746573740A006D3A09746F676720
:100D00006C65206D6F7573652064656275670A0098
:100D10006B3A09746F67676C65206B6579626F6108
:100D200072642064656275670A00783A09746F67B7
:100D3000676C65206D61747269782064656275679F
:100D40000A00643A09746F67676C652064656275B0
:100D50006720656E61626C650A00633A09656E74AE
:100D6000657220636F6E736F6C65206D6F64650ACA
:100D7000000A0A2D2D2D2D2D20436F6D6D616E649F
:100D80002048656C70202D2D2D2D2D0A000A002580
:100D900075002E6E6B726F3A20000A002575002ECA
:100DA000737761705F6261636B736C6173685F62BC
:100DB00061636B73706163653A20000A00257500FA
:100DC0002E737761705F67726176655F6573633AF2
:100DD00020000A002575002E6E6F5F6775693A2046
:100DE000000A002575002E737761705F72616C7464
:100DF0005F726775693A20000A002575002E7377C7
:100E000061705F6C616C745F6C6775693A20000A91
:100E1000002575002E636170736C6F636B5F746F78
:100E20005F636F6E74726F6C3A20000A0025750064
:100E30002E737761705F636F6E74726F6C5F636146
:100E400070736C6F636B3A20000A002530325800D3
:100E50006B65796D61705F636F6E6669672E726135
:100E6000773A20000A002575002E6D6F7573653A7C
:100E700020000A002575002E6B6579626F6172642F
:100E80003A20000A002575002E6D61747269783A67
:100E900020000A002575002E656E61626C653A209F
:100EA000000A00253032580064656275675F636F21
:100EB0006E6669672E7261773A20000A0025750018
:100EC00064656661756C745F6C617965723A200067
:100ED0003F004E4B524F3A2064697361626C656407
:100EE0000A004E4B524F3A20656E61626C65640A8F
:100EF000006B6579626F6172645F69646C653A204A
:100F000025580A006B6579626F6172645F70726F59
:100F1000746F636F6C3A2025580A00686F73745FB2
:100F20006B6579626F6172645F6C65647328293ADE
:100F30002025580A000A0A2D2D2D2D2D20537461CD
:100F4000747573202D2D2D2D2D0A0074696D657219
:100F50005F636F756E743A202530346C580A004711
:100F600043433A20342E392E32204156522D4C49DB
:100F700042433A20312E382E3073766E204156523D
:100F80005F415243483A20617672350A004F50540F
:100F9000494F4E533A204C55464120424F4F544DF5
:100FA00041474943204D4F5553454B4559204558DE
:100FB0005452414B455920434F4E534F4C452043CB
:100FC0004F4D4D414E44204E4B524F203531320A49
:100FD000004255494C443A20343836326333332D7D
:100FE0006469727479202832323A31363A313820C5
:100FF0004A756C2020342032303136290A00564997
:10100000443A2030784645454428544D4B2F43758B
:101010006229205049443A2030783133303728450E
:1010200072676F646F7829205645523A20307830C5
:101030003030310A00444553433A20742E6D2E6BF4
:101040002E206B6579626F617264206669726D77BC
:1010500061726520666F72204572676F646F780AEF
:10106000000A0A2D2D2D2D2D2056657273696F6E85
:10107000202D2D2D2D2D0A000A44454255473A209A
:101080006D6F7573652064697361626C65642E0AA7
:10109000000A44454255473A206D6F7573652065D7
:1010A0006E61626C65642E0A000A44454255473AF7
:1010B000206B6579626F6172642064697361626C30
:1010C00065642E0A000A44454255473A206B65790B
:1010D000626F61726420656E61626C65642E0A00E5
:1010E0000A44454255473A206D617472697820641C
:1010F000697361626C65642E0A000A444542554773
:101100003A206D617472697820656E61626C656405
:101110002E0A000A44454255473A20656E61626CCA
:1011200065642E0A000A44454255473A20646973B3
:1011300061626C65642E0A006E6F74207375707046
:101140006F727465642E0A000A0A4A756D70207405
:101150006F20626F6F746C6F616465722E2E2E202B
:1011600000433E20000A456E74657220436F6E7323
:101170006F6C65204D6F64650A00556E6C6F636B14
:1011800065642E0A004C6F636B65642E0A0065650A
:10119000636F6E6669673A0A00536C656570204C30
:1011A000454420746573740A0000000000000000CC
:1011B00000000000010204060A0F17202C3A4A5DC5
:1011C00071879DB3C7DAE9F5FCFFFCF5E9DAC7B32F
:1011D0009D87715D4A3A2C20170F0A060402010010
:1011E0000000000000000000000011241FBECFEF2F
:1011F000DAE0DEBFCDBF04B603FE27C08091FB015D
:101200009091FC01A091FD01B091FE018730904BBF
:10121000A740B04BD1F41092FB011092FC01109248
:10122000FD011092FE0114BE84B7877F84BF0FB604
:10123000F894A89580916000886180936000109276
:1012400060000FBEE0E0FFE3099511E0A0E0B1E02F
:10125000E6ECF1E602C005900D92AA33B107D9F78A
:1012600021E0AAE3B1E001C01D92AB3FB207E1F774
:101270000E9435100C94E1300C940000FF93EF9322
:10128000E091D801F091D901309709F00995EF91DB
:10129000FF910895FC018591803011F0EFDFFBCFC5
:1012A0000895FF27E0E230E247FF0CC0419597FF29
:1012B00009C0EDE26095709580959095611D711D56
:1012C000811D911D27FF02C0219530E350E2AA271E
:1012D000660F771F881F991FAA1FA41710F0A41B61
:1012E00063955A95A9F7AA3008F0A95FA05DAF935E
:1012F000F395611571058105910541F7ED3211F402
:10130000EF93F395F21718F43F93F395FBCF8F917A
:10131000B5DFFA95E1F70895E991F991859180306B
:1013200021F0853219F0AADFF9CF089520E0E89482
:1013300055915532C1F3503311F4689455915A3395
:1013400048F4505390F3220F022E220F220F200D4B
:10135000250FF4CF0EF4219589919991533619F305
:10136000533729F1533559F1BC0188279927E8945F
:101370005C3621F48991999168945591543639F4E9
:1013800046EF7EF077FF0DC08FEF9FEF0AC0553715
:101390004AE039F0583540E121F0523642E009F098
:1013A0000895FF93EF937DDFEF91FF91B7CFFF9308
:1013B000EF93FC0181918030B9F360DFFBCFFF93A5
:1013C000EF9368DFF1CFDF93CF93CDB7DEB72596EC
:1013D000A3DFCF91DF910895089508950F931F9390
:1013E000CF93DF931F92CDB7DEB78C01611117C089
:1013F00069830E94491B82ED91E00E944A092FEF08
:1014000080E792E0215080409040E1F700C000006A
:101410000E94AC2382EC91E00E944A0969818EEF20
:10142000860F8230C0F5F8019581292F207F8281B7
:10143000222311F090FF1FC0623019F006E010E582
:1014400002C005E015E0882359F0802F0E947A1F22
:10145000812F0F90DF91CF911F910F910C9422213A
:10146000812F0E942821802F0F90DF91CF911F9113
:101470000F910C949B1F882321F088E20E94772013
:1014800003C088E20E94C3200F90DF91CF911F918B
:101490000F910C9449210F90DF91CF911F910F91E3
:1014A0000895FC018281882339F0662341F0613080
:1014B00019F486E691E0089580E090E0089585E8CB
:1014C00091E00895CF93C82F6091BB017091BC014A
:1014D0008091BD019091BE010E9489222C2F30E0A5
:1014E000843059F4F901E05CF109E630F10590F53A
:1014F000EE0FFF1FED5EFD4F19C0873059F4F90163
:10150000E05CF109E430F10528F5EE0FFF1FE55F1F
:10151000FD4F0CC0893071F4F901E05CF109E03154
:10152000F10540F4EE0FFF1FE551FE4F85919491B8
:10153000009799F4205C31092032310540F4F9011B
:10154000EE0FFF1FE15EFD4F8591949106C080E094
:1015500090E003C080E090E0EBCFCF910895E62FBC
:10156000F0E0472F50E0833060F496E0949F9001C4
:10157000959F300D112494E5899F200D311D112474
:1015800006C086E0849F9001859F300D1124E20FF4
:10159000F31FE15AFD4F849108958091010181115B
:1015A0001AC080E40E94910D80930101811111C045
:1015B00082E10E94BB0D8093010181110AC08091DC
:1015C000570187958827879580950E94BB0D80934A
:1015D00001010E94B30D84B1807F84B985B1807F01
:1015E00085B98AB1837F8AB98BB1837F8BB93E98E5
:1015F000469808950E94A40C0E94340D8093010126
:101600000E94EC0C0E94CD0A80B38C7080BB81B329
:10161000836F81BBABE3B1E0E9E4F1E08EE08E0FD4
:1016200011921D928E13FCCF08959F92AF92BF929C
:10163000CF92DF92EF92FF920F931F93CF93DF939E
:10164000809101018823E1F080913A018F5F8093BE
:101650003A01811115C081EC93E00E944A090E9471
:10166000340D80930101882329F087EA93E00E94DA
:101670004A0906C083E993E00E944A090E94EC0CE3
:101680000BE311E0C0E0D0E0BB24B39482E0A82ECD
:10169000CC24C394D12C24E8E22E23E0F22EC730D0
:1016A000D10530F58091010181116AC080E40E946A
:1016B000910D80930101811118C082E10E94BB0D40
:1016C00080930101811111C080915701879588276E
:1016D000879596010C2E01C0220F0A94EAF7822BFF
:1016E00080950E94BB0D809301010E94B30D48C0FC
:1016F000CA30A1F028F4C83059F0C93061F005C0F3
:10170000CC3089F070F0CD3089F0209A289810C044
:10171000219A29980DC0229A2A980AC0239A2B98B8
:1017200007C0529A01C0539A5B9802C03E9A4698ED
:1017300090EA9A95F1F79FB1799902C082E001C0D1
:1017400080E091709B25982B7C9902C084E001C0B9
:1017500080E0892B7D9902C038E001C030E0832B06
:101760007E9902C020E101C020E0822B9FB19095BC
:10177000991F9927991F9295990F907E892B10C0D8
:101780008091010181116EC080E40E94910D8093CF
:101790000101882309F453C0912C0E94B30D892DB7
:1017A000F8019081981739F1808380910001882396
:1017B00001F18091D60180FF04C089E893E00E9486
:1017C0004A098091D60180FF0CC0809100011F92D0
:1017D0008F93FF92EF920E94E3090F900F900F906A
:1017E0000F908091D60180FF04C082E893E00E94B0
:1017F0004A09A09200010E94CD0A21960F5F1F4F57
:10180000CE30D10509F04BCF80910001882361F1E2
:10181000815080930001882339F08FE99FE0019780
:10182000F1F700C0000020C0A9E4B1E0EBE3F1E073
:10183000CF01825F91919D938E13FCCF15C083E100
:101840000E94BB0D809301018111A6CF81E40E940B
:10185000910D8093010181119FCF0E94CC0D982E94
:1018600090949BCF80E09CCF81E0DF91CF911F913E
:101870000F91FF90EF90DF90CF90BF90AF909F902F
:101880000895E82FF0E0E75BFE4F80810895CF9246
:10189000DF92EF92FF920F931F93CF93DF938BE62C
:1018A00093E00E944A0989E4E82E81E0F82EC0E026
:1018B000D0E096E6C92E93E0D92E0DE513E0DF9334
:1018C000CF93DF92CF920E94E30983E693E00E94D8
:1018D0004A09F70181917F0190E00E94EF229F93D6
:1018E0008F931F930F930E94E3098BE593E00E946F
:1018F0004A0921968DB79EB708960FB6F8949EBFF9
:101900000FBE8DBFCE30D105D1F6DF91CF911F91A3
:101910000F91FF90EF90DF90CF90089580FF03C06C
:10192000259A2D9A02C025982D9881FF03C0269AEA
:101930002E9A02C026982E9882FF03C0279A2F9ACB
:10194000089527982F98089589EA8093800089E068
:101950008093810024982C983F988AB18F748AB91B
:101960006E98479A8BB1806B8BB9769A0895809167
:101970000101811130C080E40E94910D809301012A
:10198000811125C084E10E94BB0D8093010181116A
:101990001EC08091570187958827879580950E9462
:1019A000BB0D80930101811112C080915901982FC4
:1019B000979599279795809158018295880F880F60
:1019C000807C892B80950E94BB0D809301010E9431
:1019D000B30D80910101089556985E9825982D9831
:1019E00026982E9827982F981092590110925801F6
:1019F000109257010E94B70C8FEF90E090938900EE
:101A00008093880090938B0080938A0090938D0040
:101A100080938C00569A5E9A259A2D9A269A2E9A31
:101A2000279A2F9A81E080935901809358018093DF
:101A300057010E94B70C2FE782E490E121508040CB
:101A40009040E1F700C0000056985E9825982D98C8
:101A500026982E9827982F98109259011092580185
:101A6000109257010C94B70C80E280930101809191
:101A70005A0181110EC00E948B0D81E080935A01A2
:101A80002FEF83ED90E3215080409040E1F700C0BC
:101A9000000080E40E94910D8093010181112EC00D
:101AA0000E94BB0D80930101811128C00E94BB0DD3
:101AB00080930101811122C08FE30E94BB0D8093AE
:101AC000010181111BC00E94B30D80E40E94910DA1
:101AD00080930101811112C08CE00E94BB0D8093A4
:101AE000010181110BC00E94BB0D80930101811186
:101AF00005C08FE30E94BB0D809301010E94B30DCE
:101B000080910101811104C00E94B70C80930101F2
:101B10008091010108951092B9008AE08093B80085
:101B2000089594EA9093BC009091BC0097FFFCCF7D
:101B30009091B900987F983021F0903111F081E0B8
:101B400008958093BB0084E88093BC008091BC0022
:101B500087FFFCCF8091B900887F883111F08034F5
:101B600071F780E0089584E98093BC008091BC0007
:101B700084FDFCCF08958093BB0084E88093BC0073
:101B80008091BC0087FFFCCF9091B900987F81E0E5
:101B9000983209F480E0089584E88093BC00809135
:101BA000BC0087FFFCCF8091BB00089580916D0140
:101BB00008959091F201943009F04CC09091E900A1
:101BC0009F703091EC00232F217030FD20E8922B84
:101BD00024E02093E9002091EB0020FF38C0209101
:101BE000EE0027FF34C020915C01222321F02091D8
:101BF000E80025FF2CC010925C0126E03091E8003F
:101C000035FD15C03091F201343009F53091EB000B
:101C100035FD1DC0215021F481E080935C0117C087
:101C2000EFE9FFE03197F1F700C00000E7CF8093C4
:101C3000F1008091E80085FD05C08091E8008E7775
:101C40008093E8009F709093E90080E008959F7072
:101C50009093E9008FEF0895CF93DF9300D01F9208
:101C6000CDB7DEB79C018091F201843019F593E085
:101C700099833B832A839093E9008FEF9091E8004A
:101C8000815095FD06C095ED9A95F1F70000811100
:101C9000F5CF8091E80085FF0DC040E050E063E0A3
:101CA00070E0CE0101960E9404138091E8008E77C7
:101CB0008093E8000F900F900F90DF91CF910895DF
:101CC000CF93DF9300D01F92CDB7DEB72091F20102
:101CD000243021F522E029839B838A8383E080934B
:101CE000E9008FEF9091E800815095FD06C095EDD9
:101CF0009A95F1F700008111F5CF8091E80085FFFA
:101D00000DC040E050E063E070E0CE0101960E941B
:101D100004138091E8008E778093E8000F900F9075
:101D20000F90DF91CF9108952091F2012430F1F4CA
:101D300022E02093E9002FEF3091E800215035FD9B
:101D400006C035ED3A95F1F700002111F5CF20914D
:101D5000E80025FF0BC040E050E065E070E00E9425
:101D600004138091E8008E778093E8000895CF9364
:101D7000DF932091F201243009F044C0EC018091FE
:101D80000D018823C1F085E08093E9008FEF9091E9
:101D9000E800815095FD06C095E19A95F1F70000A5
:101DA0008111F5CF8091E80085FF2CC040E050E024
:101DB00060E170E017C081E08093E9008FEF9091BF
:101DC000E800815095FD06C095ED9A95F1F7000069
:101DD0008111F5CF8091E80085FF14C040E050E00C
:101DE00068E070E0CE010E9404138091E8008E77D5
:101DF0008093E80080E1FE01ADE5B1E001900D9235
:101E00008A95E1F7DF91CF91089581E194E00E94F6
:101E10004A098091F101811109C00E947A110E9442
:101E2000D7118091E20084608093E20008958DE0F4
:101E300094E00E944A091092F101089589E094E02B
:101E40000C944A0985E094E00E944A090E94ED0939
:101E50000C94FF2E81E094E00E944A090E944623E0
:101E60000E94052F0E9469150C948E0C8091F2013E
:101E7000843041F58091E9008F702091EC00922F21
:101E8000917020FD90E8892B94E09093E900909167
:101E9000EB0090FF14C09091EE0097FF10C090915E
:101EA000E80095FF03C01092F100F9CF9091E8008F
:101EB00090FF05C09091E8009E779093E8008F70A6
:101EC0008093E900089542E061EC81E00E94F41003
:101ED00042E061EC82E00E94F41042E061EC83E0B9
:101EE0000E94F41046E261EC84E00E94F41042E1AA
:101EF00061EC85E00C94F4108091F401833009F4D6
:101F000055C030F4813071F0823009F495C00895E5
:101F10008A3009F481C08B3009F460C0893009F03F
:101F2000A3C020C08091F301813A09F09DC0809147
:101F3000E800877F8093E8008091F7019091F80195
:101F4000892B21F460E18DE591E003C060E080E041
:101F500090E070E00E944F138091E8008B778093AF
:101F6000E80008958091F301813209F07DC08091ED
:101F7000F7019091F801009719F0049709F074C0E7
:101F80008091E800877F8093E8008091E80082FDDF
:101F900005C08091F2018111F8CF66C08091F100F7
:101FA00080936D018091E8008B775AC08091F30196
:101FB000813A09F059C08091F7019091F801892B7D
:101FC00009F052C08091E800877F8093E8008091FB
:101FD000E80080FFFCCF80910C013DC08091F301AF
:101FE000813209F041C08091F7019091F801892B6D
:101FF000D9F58091E800877F8093E8000E9429113D
:102000009091F50181E0911101C080E080930C0175
:1020100080930D010C94491B8091F301813221F5CD
:102020008091E800877F8093E8000E9429118091C9
:10203000F60180935B0108958091F301813AA1F448
:102040008091E800877F8093E8008091E80080FF1E
:10205000FCCF80915B018093F1008091E8008E7746
:102060008093E8000C942911089584B7877F84BF7A
:102070000FB6F894A8958091600088618093600005
:10208000109260000FBE90E080E80FB6F894809345
:102090006100909361000FBE0E947A110E94D711D7
:1020A0008091E20084608093E20089ED9DE00E94CF
:1020B000842278948091F2018430E1F780EF93E0FC
:1020C0000E944A090E94F51582E091E00E945F1586
:1020D0000E94ED2E8FED93E00E944A098091F2015B
:1020E000853089F48BED93E00E944A090E94092310
:1020F0008091F001882391F30E943223882371F3A9
:102100000E94DE10EBCF0E942316E8CF292F332741
:1021100023303105C9F064F42130310581F02230DB
:10212000310509F043C08DE890E02DE334E042C072
:1021300021323105F1F02232310541F137C082E11F
:1021400090E02AEC34E036C099278130910541F0C7
:102150008230910541F0892B49F5E9E3F4E005C0AF
:10216000E7E2F4E002C0E5E1F4E0849190E09F0151
:1021700021C06530D8F4E62FF0E0EE0FFF1FEB5DD5
:10218000FE4F2081318189E090E014C0653070F409
:1021900070E0FB01EE0FFF1FE55EFE4F20813181F5
:1021A000FB01EA5EFE4F808190E004C080E090E099
:1021B00020E030E0FA0131832083089580E189BD79
:1021C00082E189BD09B400FEFDCF8091D8008F7DEA
:1021D0008093D8008091E00082608093E00080913D
:1021E000E00081FDFCCF0895982F973058F590932B
:1021F000E900981739F07091EC002091ED005091B2
:10220000F00003C0242F762F50E021FF19C0309139
:10221000EB003E7F3093EB003091ED003D7F30933B
:10222000ED003091EB0031603093EB007093EC00E7
:102230002093ED005093F0002091EE0027FF07C09F
:102240009F5FD3CF8F708093E90081E0089580E095
:1022500008958091F30187FF11C08091E80082FD0D
:1022600005C08091F2018111F8CF11C08091E80082
:102270008B770BC08091F201882349F08091E800B0
:1022800080FFF8CF8091E8008E778093E800089572
:102290002091E4003091E50095E64091EC00842F18
:1022A000817040FF22C08091E80080FD1CC08091B9
:1022B000F201882391F0853091F08091EB0085FD4B
:1022C00010C04091E4005091E5004217530729F3F4
:1022D0009A01915011F784E0089582E0089583E017
:1022E000089581E0089580E008954091E80042FF5C
:1022F000DECF08950E94E3110E94EB11E0EEF0E0C2
:10230000808181608083E8EDF0E080818F77808339
:1023100019BCA7EDB0E08C918E7F8C9380818F7E6D
:1023200080831092F10108950F931F93CF93DF9351
:102330000E94E3110E94EB11C8EDD0E088818F77F5
:10234000888388818068888388818F7D888319BC91
:102350001092F2011092EE011092F0011092EF0132
:1023600000EE10E0F80180818B7F8083888181609E
:10237000888342E060E080E00E94F410E1EEF0E04B
:1023800080818E7F8083E2EEF0E0808181608083B7
:10239000808188608083F80180818E7F808388813E
:1023A00080618883DF91CF911F910F910895E7EDB0
:1023B000F0E080818160808384E082BF81E080934F
:1023C000F1010C949411E8EDF0E080818E7F808320
:1023D0001092E20008951092DA001092E100089540
:1023E0001F920F920FB60F9211242F933F934F938A
:1023F0005F936F937F938F939F93AF93BF93EF936D
:10240000FF938091E10082FF0BC08091E20082FF88
:1024100007C08091E1008B7F8093E1000E94360F1E
:102420008091DA0080FF1FC08091D80080FF1BC020
:102430008091DA008E7F8093DA008091D90080FF4E
:102440000DC080E189BD82E189BD09B400FEFDCFE8
:1024500081E08093F2010E94050F05C019BC109223
:10246000F2010E94170F8091E10080FF19C0809156
:10247000E20080FF15C08091E2008E7F8093E20031
:102480008091E20080618093E2008091D8008062B8
:102490008093D80019BC85E08093F2010E94220F3E
:1024A0008091E10084FF2EC08091E20084FF2AC069
:1024B00080E189BD82E189BD09B400FEFDCF809134
:1024C000D8008F7D8093D8008091E1008F7E80932B
:1024D000E1008091E2008F7E8093E2008091E20033
:1024E00081608093E2008091EE01811106C08091AD
:1024F000E30087FD02C081E001C084E08093F20127
:102500000E942A0F8091E10083FF29C08091E200A0
:1025100083FF25C08091E100877F8093E10082E006
:102520008093F2011092EE018091E1008E7F809302
:10253000E1008091E2008E7F8093E2008091E200D2
:1025400080618093E20042E060E080E00E94F4104D
:102550008091F00088608093F0000E941E0FFF9130
:10256000EF91BF91AF919F918F917F916F915F910B
:102570004F913F912F910F900FBE0F901F90189584
:102580001F920F920FB60F9211242F933F934F93E8
:102590005F936F937F938F939F93AF93BF93CF93EB
:1025A000DF93EF93FF93C091E900CF708091EC002F
:1025B000D82FD17080FDD0E81092E9008091F00012
:1025C000877F8093F00078940E940B141092E900AA
:1025D0008091F00088608093F000CD2BCF70C09385
:1025E000E900FF91EF91DF91CF91BF91AF919F9162
:1025F0008F917F916F915F914F913F912F910F90AC
:102600000FBE0F901F901895CF92DF92EF92FF921E
:102610000F931F93CF93DF93EC018B016A010E940C
:102620004811811133C0C114D10439F0F601808101
:102630009181081B190BC80FD91FE12CF12C011532
:10264000110519F18091E80085FD16C08091E80020
:102650008E778093E800C114D10449F0F60180819F
:102660009181E80EF91EF182E08285E00FC00E94A0
:102670004811882321F30AC089918093F100015009
:102680001109FFEFEF1AFF0ADACF80E0DF91CF9157
:102690001F910F91FF90EF90DF90CF9008952091C0
:1026A000F9013091FA012617370748F061157105D5
:1026B00039F42091E8002E772093E80001C0B90199
:1026C00040E061157105A9F12091F201222309F47E
:1026D00041C0253009F440C02091E80023FD38C0F6
:1026E0002091E80022FD2EC02091E80020FFE9CFD4
:1026F0004091F3002091F20030E0342BFC01CF0137
:102700006115710559F02830310540F481918093AD
:10271000F100615071092F5F3F4FF1CF41E0283048
:10272000310509F040E02091E8002E772093E80081
:10273000C8CF4111C9CF06C08091F201882351F062
:10274000853051F08091E80082FFF6CF80E0089557
:1027500081E0089582E0089583E008952091F901D1
:102760003091FA012617370748F06115710539F4E1
:102770002091E8002E772093E80001C0B901FC0108
:1027800020E06115710591F18091F201882309F42F
:102790003EC0853009F43DC08091E80083FD35C01E
:1027A0008091E80082FD2BC08091E80080FFE9CF96
:1027B0002091F3008091F20090E0922B6115710559
:1027C00059F08830910540F424912093F10031961E
:1027D000615071090196F2CF21E0089709F020E0DD
:1027E0008091E8008E778093E800CBCF2111CCCF89
:1027F00006C08091F201882351F0853051F080911C
:10280000E80082FFF6CF80E0089581E0089582E03D
:10281000089583E008950F931F93CF93DF93CDB76F
:10282000DEB7AA970FB6F894DEBF0FBECDBFE3EFB9
:10283000F1E088E08E0F9091F10091938E13FBCF21
:102840000E947C0F8091E80083FF20C18091F301FA
:102850009091F401492F50E04A30510508F016C11B
:10286000FA01EA5AFF4F0C949630803881F0823892
:1028700009F00CC18091F7018F708093E90080917D
:10288000EB0085FB882780F91092E90006C0809153
:10289000EF019091F001911182609091E800977F93
:1028A0009093E8008093F1001092F100C9C0282FA6
:1028B0002D7F09F0EBC0882319F0823061F0E6C06B
:1028C0008091F501813009F0E1C0933009F080E09A
:1028D0008093F0012BC08091F501811127C0809178
:1028E000F7018F7009F4D2C08093E9002091EB00CA
:1028F00020FF1CC0933021F48091EB00806214C053
:102900009091EB0090619093EB0021E030E0A90101
:1029100002C0440F551F8A95E2F74093EA001092D7
:10292000EA008091EB0088608093EB001092E90050
:102930008091E800877F87C08111A8C01091F501C0
:102940001F770FB7F8948091E800877F8093E800A5
:102950000E9429118091E80080FFFCCF8091E30064
:102960008078812B8093E30080688093E3001111CD
:1029700002C082E001C083E08093F2010FBF86C0F5
:102980008058823008F082C08091F5019091F60164
:102990008C3D53E0950779F583E08A838AE2898349
:1029A0004FB7F894DE01139620E03EE051E2E32FAA
:1029B000F0E050935700E49120FF03C0E295EF70E0
:1029C0003F5FEF708E2F90E0EA3010F0C79601C0A5
:1029D000C0968D939D932F5F243149F74FBF80910F
:1029E000E800877F8093E8006AE270E0CE010196FC
:1029F0000E944F1314C0AE014F5F5F4F6091F7010B
:102A00000E948610BC01892B09F440C09091E80017
:102A1000977F9093E80089819A810E94AE138091FC
:102A2000E8008B778093E80031C0803879F5809199
:102A3000E800877F8093E8008091EE018093F100A9
:102A40008091E8008E778093E8000E9429111EC0D3
:102A500081111CC09091F5019230C0F48091E80082
:102A6000877F8093E8009093EE010E942911809166
:102A7000EE01811106C08091E30087FD02C081E074
:102A800001C084E08093F2010E94630F8091E8000E
:102A900083FF0AC08091EB0080628093EB008091FD
:102AA000E800877F8093E800AA960FB6F894DEBF0F
:102AB0000FBECDBFDF91CF911F910F9108959093DD
:102AC0007301809372010895809172019091730156
:102AD0000895E0917201F0917301309721F0019017
:102AE000F081E02D099480E00895EF92FF920F931A
:102AF0001F93CF93DF93E0917201F09173013097B0
:102B0000B1F18C010280F381E02D09958091D6010D
:102B100082FF2DC080FF04C08FEF95E00E944A091C
:102B2000E80110E189EFE82E85E0F82E8091D601CA
:102B300080FF0BC088811F928F93FF92EF920E94BB
:102B4000E3090F900F900F900F90115021961111E3
:102B5000EDCF8091D60180FF0AC087EF95E0DF912D
:102B6000CF911F910F91FF90EF900C944A09DF9144
:102B7000CF911F910F91FF90EF900895E091720116
:102B8000F0917301309721F00480F581E02D0994D4
:102B9000089520917001309171018217930771F0AF
:102BA0009093710180937001E0917201F091730133
:102BB000309721F00680F781E02D09940895209147
:102BC0006E0130916F018217930771F090936F013E
:102BD00080936E01E0917201F0917301309721F0C2
:102BE0000084F185E02D099408950E9448230E94F5
:102BF000FA0A0C940E24CF93C82F8091D60182FF3D
:102C00001EC080FF04C088E196E00E944A098091BE
:102C1000D60180FF0CC01F92CF9383E196E09F9373
:102C20008F930E94E3090F900F900F900F90809167
:102C3000D60180FF04C081E196E00E944A098C2FF2
:102C4000CF910C948E0CCF92DF92EF92FF920F9364
:102C50001F93CF93DF93CDB7DEB72B970FB6F894C2
:102C6000DEBF0FBECDBF0E94150B85E7C82E81E0E9
:102C7000D82E00E010E0E02E802F0E94410CF601DB
:102C800041916F01F42EF826B1F40F5F1F4F0E3003
:102C9000110589F78FEF89838A831B820E94512354
:102CA0008160782F9D838C8349815A816B818D81CE
:102CB0000E94C61640C09091D60191FF04C08B8738
:102CC0000E94470C8B8520E030E04F2D50E0922F82
:102CD000BA01022E02C0759567950A94E2F760FF6B
:102CE00024C02E83EF8221E030E0690102C0CC0CC9
:102CF000DD1C9A95E2F790E08C219D21892B09F447
:102D000020E028870E9451238160782F9A87898745
:102D10004E815F8168858A850E94C616F801EB584E
:102D2000FE4F8081C826C08206C02F5F3F4F2630ED
:102D3000310569F6AACF0E947F27109174010E9485
:102D400069151817A1F00E946915809374012B96DC
:102D50000FB6F894DEBF0FBECDBFDF91CF911F91AC
:102D60000F91FF90EF90DF90CF900C94FB152B9676
:102D70000FB6F894DEBF0FBECDBFDF91CF911F918C
:102D80000F91FF90EF90DF90CF900895CF93DF9356
:102D9000CDB7DEB72B970FB6F894DEBF0FBECDBF11
:102DA0004F83588769877A878B87DE01119686E083
:102DB000FD0111928A95E9F785E0FE0137960190B1
:102DC0000D928A95E1F749815A816B817C818D81D1
:102DD0009E810E94DD1D2B960FB6F894DEBF0FBEBC
:102DE000CDBFDF91CF910895CF93882309F4C2C05E
:102DF000C82F823859F40E94691581FDBBC089E350
:102E00000E9477200E94492189E30CC0833879F41D
:102E10000E94691580FDAEC083E50E9477200E9464
:102E2000492183E50E94C320CF910C944921843825
:102E300059F40E94691582FD9DC087E40E947720A5
:102E40000E94492187E4EECF8CEF8C0F813A48F441
:102E50008C2F0E94772D81118DC08C2F0E9477209E
:102E6000E3CF80E28C0F883048F4C77081E001C066
:102E7000880FCA95EAF70E941221D6CF8BE58C0FF6
:102E8000833078F4C53A29F0C63A31F083E890E00F
:102E900005C081E890E002C082E890E0CF910C94F8
:102EA000C91588E58C0F833108F064C0C83A39F140
:102EB000C93A41F1CA3A49F1CB3A51F1CC3A59F108
:102EC000CD3A61F1C03B69F1CE3A71F1CF3A79F177
:102ED000C13B81F1C23B89F1C33B91F1C43B99F104
:102EE000C53BA1F1C63BA9F1C73BB1F1C83BB9F164
:102EF000C93BC1F1CA3BC9F180E090E038C082EE25
:102F000090E035C089EE90E032C08AEE90E02FC0AC
:102F100085EB90E02CC086EB90E029C087EB90E039
:102F200026C08CEC90E023C08DEC90E020C083E8BC
:102F300091E01DC08AE891E01AC082E991E017C0D3
:102F400084E991E014C081E292E011C083E292E052
:102F50000EC084E292E00BC085E292E008C086E2F7
:102F600092E005C087E292E002C08AE292E0CF914F
:102F70000C94DF15CF910895882309F44BC0823853
:102F800059F40E94691581FF45C089E30E947720AA
:102F90000E94492189E30CC0833871F40E946915AD
:102FA00080FF38C083E50E9477200E94492183E595
:102FB0000E94C3200C944921843859F40E94691559
:102FC00082FF28C087E40E9477200E94492187E47D
:102FD000EFCF9CEF980F913A58F390E2980F98300A
:102FE00050F4877091E001C0990F8A95EAF7892F14
:102FF0000E941821DFCF9BE5980F933020F480E0EA
:1030000090E00C94C915885A833120F480E090E058
:103010000C94DF150895882321F00E9412210C944E
:1030200049210895882321F00E9418210C944921F8
:103030000895BF92CF92DF92EF92FF920F931F936A
:10304000CF93DF9300D000D000D0CDB7DEB725E01E
:10305000FC01DE01119601900D922A95E1F7FC0129
:10306000408131810281258122952F706381748195
:10307000672B09F4ECC23F3F19F44F3F09F4E7C254
:103080007C0149833A8389819A812E830E9436206C
:10309000182FB92E0E9435200E94FC1EEB2DE295C0
:1030A000EF70F0E0E05AFF4F2E810C9496308B2D9C
:1030B000807F9B2D9F70F92E882319F0F29480EF6A
:1030C000F822002349F0FF2009F46EC28F2D0E94E0
:1030D00022210E94492168C2812F0E94BC17FF2033
:1030E00009F4B5C28F2D0E94282126960FB6F894B8
:1030F000DEBF0FBECDBFDF91CF911F910F91FF902B
:10310000EF90DF90CF90BF900C9449218B2D807F62
:103110009B2D9F70803211F4892F03C0892F8295D7
:10312000807F112319F0113011F12BC00023A9F079
:10313000222389F1213079F526960FB6F894DEBF67
:103140000FBECDBFDF91CF911F910F91FF90EF90F8
:10315000DF90CF90BF900C943221222319F02130C0
:1031600009F475C28E830E9435218E819BC1002394
:1031700021F0263008F06BC20EC0253008F067C27F
:1031800091C10023C9F0222331F0F701958190FF0E
:103190000BC29F70958326960FB6F894DEBF0FBEC4
:1031A000CDBFDF91CF911F910F91FF90EF90DF90F6
:1031B000CF90BF900C940B18222309F473C109C25D
:1031C0002B2D26952695237030E02115310521F011
:1031D00021303105D1F03BC2002321F0812F9B2DFE
:1031E000937002C080E090E026960FB6F894DEBFA0
:1031F0000FBECDBFDF91CF911F910F91FF90EF9048
:10320000DF90CF90BF900C94C915002321F0812F3F
:103210009B2D937002C080E090E026960FB6F89444
:10322000DEBF0FBECDBFDF91CF911F910F91FF90F9
:10323000EF90DF90CF90BF900C94DF15812F00238B
:1032400019F00E94052602C00E946D2626960FB630
:10325000F894DEBF0FBECDBFDF91CF911F910F91CC
:10326000FF90EF90DF90CF90BF900C94F2268B2DC3
:10327000837009F07BC00111EAC1812F8295869588
:103280008770880F880F912F9F70C92ED12CE12C49
:10329000F12C082E04C0CC0CDD1CEE1CFF1C0A9483
:1032A000D2F714FF12C04FE050E060E070E004C0BD
:1032B000440F551F661F771F8A95D2F7CB01BA01BD
:1032C000609570958095909503C060E070E0CB01AB
:1032D0002B2D269526952370422F50E04230510524
:1032E000D9F04330510569F16C297D298E299F2938
:1032F0004130510551F126960FB6F894DEBF0FBE4E
:10330000CDBFDF91CF911F910F91FF90EF90DF9094
:10331000CF90BF900C94231F6C297D298E299F2963
:1033200026960FB6F894DEBF0FBECDBFDF91CF91CA
:103330001F910F91FF90EF90DF90CF90BF900C9472
:103340003F1F0E94231FC701B60126960FB6F894AF
:10335000DEBF0FBECDBFDF91CF911F910F91FF90C8
:10336000EF90DF90CF90BF900C94071F002319F0CF
:103370008B2D817001C08695882309F468C1812F47
:10338000829586958770880F880F912F9F70C92E20
:10339000D12CE12CF12C082E04C0CC0CDD1CEE1C31
:1033A000FF1C0A94D2F714FF12C04FE050E060E017
:1033B00070E004C0440F551F661F771F8A95D2F72F
:1033C000CB01BA01609570958095909503C060E03F
:1033D00070E0CB012B2D269526952370422F50E0CF
:1033E00042305105D9F04330510569F16C297D29EE
:1033F0008E299F294130510551F126960FB6F89438
:10340000DEBF0FBECDBFDF91CF911F910F91FF9017
:10341000EF90DF90CF90BF900C94FD1F6C297D2919
:103420008E299F2926960FB6F894DEBF0FBECDBF1A
:10343000DF91CF911F910F91FF90EF90DF90CF9090
:10344000BF900C9419200E94FD1FC701B60126965B
:103450000FB6F894DEBF0FBECDBFDF91CF911F91A5
:103460000F91FF90EF90DF90CF90BF900C94E11FF1
:10347000103F49F118F4103E48F491C0123F09F48E
:1034800053C0E8F1133F09F464C089C01F708B2D4D
:103490008F71002321F00E947A1F812F7CCE0E9421
:1034A0009B1F812F26960FB6F894DEBF0FBECDBFAF
:1034B000DF91CF911F910F91FF90EF90DF90CF9010
:1034C000BF900C9412180023B1F0253008F0BFC053
:1034D0008B2D8F7126960FB6F894DEBF0FBECDBF31
:1034E000DF91CF911F910F91FF90EF90DF90CF90E0
:1034F000BF900C94C01F263008F0A9C0E9CF00236C
:10350000A9F08B2D8F7126960FB6F894DEBF0FBEF3
:10351000CDBFDF91CF911F910F91FF90EF90DF9082
:10352000CF90BF900C947A1F002359F38B2D8F718D
:1035300026960FB6F894DEBF0FBECDBFDF91CF91B8
:103540001F910F91FF90EF90DF90CF90BF900C9460
:103550009B1F002399F08B2D8F7126960FB6F89440
:10356000DEBF0FBECDBFDF91CF911F910F91FF90B6
:10357000EF90DF90CF90BF900C94651F26960FB60A
:10358000F894DEBF0FBECDBFDF91CF911F910F9199
:10359000FF90EF90DF90CF90BF900C945B1F0023C3
:1035A000A9F0222309F4ADCF812F26960FB6F89407
:1035B000DEBF0FBECDBFDF91CF911F910F91FF9066
:1035C000EF90DF90CF90BF900C94F416222309F473
:1035D000ADCF812F26960FB6F894DEBF0FBECDBFBC
:1035E000DF91CF911F910F91FF90EF90DF90CF90DF
:1035F000BF900C94BC174B2D4F70612FC7010E94D8
:10360000510A26960FB6F894DEBF0FBECDBFDF91EC
:10361000CF911F910F91FF90EF90DF90CF90BF90CF
:103620000C94811E4B2D4F70612FC70126960FB64B
:10363000F894DEBF0FBECDBFDF91CF911F910F91E8
:10364000FF90EF90DF90CF90BF900C94EE092696FC
:103650000FB6F894DEBF0FBECDBFDF91CF911F91A3
:103660000F91FF90EF90DF90CF90BF9008950E9450
:103670002F210E9404210E9449210E9424280E9497
:10368000F22680E090E00E94C91580E090E00C9462
:10369000DF150E941F210C94371B0E943620292F12
:1036A00022952F7030E02C3031054CF42A30310552
:1036B00094F4225031092230310538F40CC02C30FA
:1036C000310529F02F30310511F080E0089593FB8A
:1036D000882780F9089581E00895CF93DF9300D083
:1036E00000D01F92CDB7DEB70F900F900F900F90C4
:1036F0000F90DF91CF910895CF93DF9300D000D04A
:1037000000D0CDB7DEB726960FB6F894DEBF0FBE59
:10371000CDBFDF91CF9108951F93CF93DF93C091D9
:10372000830116E080918401C81799F0D0E01C9FB6
:10373000F0011D9FF00D1124EB57FE4F4081518188
:1037400062817381848195810E947C1B2196C77060
:10375000E9CFDF91CF911F9108954091B50150912C
:10376000B6016091B7017091B8018091B901909153
:10377000BA010C947C1B8091BA0182958F7009F07C
:1037800054C08091B701882309F44FC08091830110
:10379000A09184016091B5017091B6014091B8018A
:1037A0005091B901B6E08A1709F43FC090E0411585
:1037B0005105C1F17F3F11F46F3FA1F1B89FF001B6
:1037C000B99FF00D1124EB57FE4F218172132AC0CF
:1037D0002081621327C02281211124C023813481DA
:1037E0002417350710F421503109241B350B263ED0
:1037F0003105C0F42091BA012F7020612093BA01E5
:1038000026E0289FF001299FF00D1124E657FE4F76
:1038100080818F708061808385EB91E00E94191810
:103820000C948C1B01968770BECF0895CF92DF92C7
:10383000EF92FF920F931F93CF93DF93CDB7DEB735
:1038400062970FB6F894DEBF0FBECDBF8C0185E046
:10385000F801DE011D9601900D928A95E1F7D801DD
:103860004C9111965C91119712966C911297139648
:10387000CD90DC9014973091B5017091B601809194
:10388000B8019091B901009709F46BC17F3F19F419
:103890003F3F09F466C1E090B701EE2009F4C0C0D3
:1038A0002091BA01C816D90628F0F601E81BF90BD9
:1038B000CF0104C0809590958C0D9D1DFF24F3943D
:1038C000863E910578F0F12C207F09F0C6C07C2D52
:1038D000D98AC88A89890E946D1B85EB91E00E9474
:1038E0001918B1C0822F807F09F046C0751314C02B
:1038F000341312C0611110C02F7020612093BA01DF
:103900000E94AD1B85EB91E00E9419188091BA01CD
:10391000D80115968C932EC0CD2819F15F3F11F474
:103920004F3FF9F0F62E61111CC080918301209168
:10393000840136E0821709F45AC090E0389FF00104
:10394000399FF00D1124EB57FE4F7181571306C0BC
:103950007081471303C07281711103C00196877093
:10396000E9CFF62E662309F418C18091BA0181606F
:103970008093BA01F12C11C1751308C0341306C02D
:10398000611104C08091BA01D801C3C04D875E8720
:103990008D859E856A8B0E944D1B6A898823E1F183
:1039A0006623D1F12091BA01822F82958F7090E029
:1039B000029774F08091B5019091B60198878F833A
:1039C0001986DB86CA862C87CE0107960E941918B5
:1039D00086E0F801A5EBB1E001900D928A95E1F740
:1039E0000E94BB1B0E94AD1BFF24F394D6C04D87E1
:1039F0005E878D859E850E943620292F22952F7007
:103A000030E0223031050CF0BCC09F7009F0B6C028
:103A1000805E883008F4C1C0C8010E941918E4CF44
:103A2000C816D90608F453C0F601E81BF90BCF01FC
:103A3000863E910508F450C0F12C7C2DD98AC88AA5
:103A400089890E946D1BE5EBF1E086E0DF011D92A4
:103A50008A95E9F70E94AD1BA0C0751314C03413FA
:103A600012C0611110C08091BA01F8018583C801AC
:103A70000E94191886E0E5EBF1E0DF011D928A95BE
:103A8000E9F7FE2C8AC04D875E878D859E856A8BFF
:103A90000E944D1B6A89882309F4BECF662309F46E
:103AA000BBCF2091BA01822F82958F7090E0029750
:103AB0000CF48ECF8091B5019091B6019A838983E1
:103AC0001B82DD82CC822E83CE0101967FCF809532
:103AD00090958C0D9D1DACCFF62E662309F49CCFDE
:103AE00075132EC034132CC02091BA0120FD1FC0C5
:103AF000822F82958F70D9F0D80115962C93159747
:103B00008F3049F08F5F982F9295907F822F8F7022
:103B1000892B15968C93C8010E94191886E0F8012C
:103B2000A5EBB1E001900D928A95E1F793CF86E085
:103B3000F801A5EBB1E001900D928A95E1F72DC057
:103B40004D875E878D859E850E944D1B811140CFDC
:103B50008091BA0181608093BA01C8010E9419184E
:103B60001CC0662309F458CF4D875E878D859E85DE
:103B70000E944D1B882309F44FCF2ACF811148CFD3
:103B80000CC0243031050CF047CF9F7009F440CFB2
:103B9000F8019581907F09F03BCF8F2D62960FB68B
:103BA000F894DEBF0FBECDBFDF91CF911F910F9173
:103BB000FF90EF90DF90CF9008951F93CF93DF9306
:103BC000CDB7DEB72C970FB6F894DEBF0FBECDBFD2
:103BD0004F83588769877A878B879C87CE010796A2
:103BE0000E94161C882369F08F8198852A853B8561
:103BF000232BF1F19F3F09F063C08F3F09F060C0B4
:103C000037C086E0FE013796DE01119601900D92D5
:103C10008A95E1F76F817885EA85FB85309741F1D8
:103C20007F3F11F46F3F21F12091840130E0C90101
:103C30000196877099274091830150E0841795077A
:103C400009F447C069837A83FD83EC8396E0929FF1
:103C5000D001939FB00D1124AB57BE4FFE0131969A
:103C600001900D929A95E1F7809384010E948C1B3C
:103C700016E080918301909184018917C1F1189F0A
:103C8000C00111248B579E4F0E94161C882379F186
:103C9000E09183011E9FF0011124EB57FE4F4081FC
:103CA000518162817381848195810E947C1B809106
:103CB000830190E001968770992780938301D9CF83
:103CC0004F81588569857A858B859C850E947C1BF0
:103CD000CFCF0E94491B1092840110928301E5EB23
:103CE000F1E086E0DF011D928A95E9F7C1CF2C96BD
:103CF0000FB6F894DEBF0FBECDBFDF91CF911F91FD
:103D00000895EF92FF920F931F93CF93DF938C014F
:103D1000892B09F46AC0F12CEE24E394E801219682
:103D2000F8018491843740F4843008F04FC081302A
:103D300081F0823019F159C0853709F442C098F1F9
:103D40009CE7980F903708F050C08F770E94BC17FF
:103D50003FC00E5F1F4FFE01C49180E28C0F883080
:103D600048F4C7708E2D01C0880FCA95EAF70E94EB
:103D700022212FC08C2F0E94F4162BC00E5F1F4FE4
:103D8000FE01C49180E28C0F883048F4C7708E2DFC
:103D900001C0880FCA95EAF70E9428211AC08C2F0B
:103DA0000E94BC1716C00E5F1F4FFE01C491CC23AA
:103DB00081F08FE99FE00197F1F700C00000C1504A
:103DC000F6CF0E5F1F4FFE01F49003C00E94F41661
:103DD0008E018F2D882309F4A1CFEFE9FFE0319701
:103DE000F1F700C000008150F5CFDF91CF911F9116
:103DF0000F91FF90EF90089508956093BF01709325
:103E0000C0018093C1019093C2010C94371B0F93A2
:103E10001F930091BF011091C0012091C101309109
:103E2000C201DC01CB01802B912BA22BB32B809301
:103E3000BF019093C001A093C101B093C2011F9133
:103E40000F910C94371B0F931F930091BF0110919A
:103E5000C0012091C1013091C201DC01CB0180235E
:103E60009123A223B3238093BF019093C001A09319
:103E7000C101B093C2011F910F910C94371B0F9396
:103E80001F930091BF011091C0012091C101309199
:103E9000C201DC01CB0180279127A227B3278093A1
:103EA000BF019093C001A093C101B093C2011F91C3
:103EB0000F910C94371B1092BB011092BC01109211
:103EC000BD011092BE010C94371B41E050E060E050
:103ED00070E004C0440F551F661F771F8A95D2F704
:103EE0004093BB015093BC016093BD017093BE0130
:103EF0000C94371B41E050E060E070E004C0440FD8
:103F0000551F661F771F8A95D2F78091BB0190914C
:103F1000BC01A091BD01B091BE01482B592B6A2B69
:103F20007B2B4093BB015093BC016093BD01709308
:103F3000BE010C94371B41E050E060E070E004C02B
:103F4000440F551F661F771F8A95D2F740955095ED
:103F5000609570958091BB019091BC01A091BD01CD
:103F6000B091BE01482359236A237B234093BB01B0
:103F70005093BC016093BD017093BE010C94371B3C
:103F800041E050E060E070E004C0440F551F661F40
:103F9000771F8A95D2F78091BB019091BC01A091C7
:103FA000BD01B091BE01482759276A277B2740935E
:103FB000BB015093BC016093BD017093BE010C9492
:103FC000371B0F931F930091BB011091BC012091EF
:103FD000BD013091BE01DC01CB01802B912BA22BC6
:103FE000B32B8093BB019093BC01A093BD01B09310
:103FF000BE011F910F910C94371B0F931F930091DB
:10400000BB011091BC012091BD013091BE01DC01CA
:10401000CB0180239123A223B3238093BB019093F0
:10402000BC01A093BD01B093BE011F910F910C94F0
:10403000371B0F931F930091BB011091BC0120917E
:10404000BD013091BE01DC01CB0180279127A22761
:10405000B3278093BB019093BC01A093BD01B093A3
:10406000BE011F910F910C94371B0895CF92DF92E0
:10407000EF92FF920F931F93CF93DF938C01C09029
:10408000BF01D090C001E090C101F090C201409109
:10409000BB015091BC016091BD017091BE01C42A69
:1040A000D52AE62AF72ACFE1D0E0D701C6010C2EA7
:1040B00004C0B695A795979587950A94D2F780FF87
:1040C00007C0B8018C2F0E9411228130910531F474
:1040D000219758F7B80180E00E941122DF91CF911B
:1040E0001F910F91FF90EF90DF90CF9008959091E6
:1040F0000D01992359F1982F9695969596959F3095
:10410000A0F4E0910E01F0910F01E90FF11D87700D
:1041100021E030E0A90102C0440F551F8A95E2F763
:10412000CA019181892B818308959091D60190FFD6
:1041300029C01F928F9389E496E09F938F930E94EA
:10414000E3090F900F900F900F90089520910E01AA
:1041500030910F01F90132969FEF40E051915817CD
:1041600089F09F3F19F4511101C0942F4F5F4E30D9
:10417000A9F79F3F39F0F901E90FF11D97FDFA9575
:1041800082830895089590910D01992361F1982FEC
:104190009695969596959F30A8F4E0910E01F09132
:1041A0000F01E90FF11D877021E030E0A90102C085
:1041B000440F551F8A95E2F7CA01809591818923A2
:1041C000818308959091D60190FF1DC01F928F9317
:1041D0008BE296E09F938F930E94E3090F900F90DC
:1041E0000F900F90089520910E0130910F01F90169
:1041F0003296205F3F4F9081981301C01082319614
:10420000E217F307C1F7089581E090E0E0910E0115
:10421000F0910F01E80FF91F10820196803191058E
:10422000A9F708959091D501892B8093D501089520
:1042300080959091D50189238093D501089510929E
:10424000D50108959091D401892B8093D4010895CC
:1042500080959091D40189238093D4010895109280
:10426000D40108958093C30108951092C301089565
:1042700080910E0190910F01FC0131969C01205F0D
:104280003F4F80E0919191118F5FE217F307D1F7D3
:104290000895E0910E01F0910F018091D501808386
:1042A000E0910E01F0910F0190818091D401892B52
:1042B00080838091C301882361F0E0910E01F09129
:1042C0000F019081892B80830E94382181111092E7
:1042D000C30180910E0190910F010C9475158B3BD9
:1042E00050F4883AE8F4853A90F4843070F48130E0
:1042F00009F455C007C0803E28F0883E30F0803F6A
:1043000008F04AC080E090E0089590E00895853A72
:1043100009F448C0863A09F448C083E890E4089557
:10432000883A09F445C0893A09F445C08A3A09F443
:1043300045C08B3A09F445C08C3A09F445C08D3A22
:1043400009F445C0803B09F445C08E3A09F445C0E4
:104350008F3A09F445C0813B09F445C0823B09F41A
:1043600045C0833B09F445C0843B09F445C0853B07
:1043700009F445C0863B09F445C0873B09F445C0B4
:10438000883B09F445C0893B09F445C08A3B09F4E0
:1043900045C080E094E4089590E09065089581E040
:1043A00090E0089581E890E4089582E890E408950B
:1043B00082EE94E4089589EE94E408958AEE94E4FC
:1043C000089585EB94E4089586EB94E4089587EBD3
:1043D00094E408958CEC94E408958DEC94E40895AD
:1043E00083E895E408958AE895E4089582E995E4E0
:1043F000089584E995E4089581E296E4089583E2BE
:1044000096E4089584E296E4089585E296E408959A
:1044100086E296E4089587E296E408958AE296E4B7
:1044200008950E94AF0A803EA8F4803C00F58133D5
:1044300009F45CC038F4893209F452C08A3209F4B4
:104440005BC05FC08933B1F08238A1F0853309F4D5
:1044500041C057C0833E41F128F4803E99F0823E2E
:10446000B9F04FC0863E31F1873E71F14AC00E94DB
:10447000620A08959091ED0190FD02C091FF41C044
:1044800080EE3FC08091ED0180FFFACF89E339C013
:104490008091ED0182FF0CC08091ED0184FF02C08C
:1044A00080E02FC083EE2DC08091ED0182FFF4CF1C
:1044B00082EE27C08091ED0183FF0AC08091ED015B
:1044C00084FDEECF87EE1DC08091ED0183FFF6CF16
:1044D00086EE17C08091ED0185FF06C089E211C00C
:1044E0008091ED0185FFFACF85E30BC08091ED014E
:1044F00086FF06C08AE205C08091ED0186FFFACFF3
:1045000081E30E946F2108959093D9018093D8018F
:104510000895CF92DF92EF92FF926C01EE24FF2478
:10452000C114D104E104F10421F0C701B60120E176
:1045300001C020E0C72ED82EE92EFF24C114D104DB
:10454000E104F10419F0285FC701B6016B017C0199
:1045500054E0F694E794D794C7945A95D1F7C114D0
:10456000D104E104F10419F02C5FC701B6016B011D
:104570007C0142E0F694E794D794C7944A95D1F72A
:10458000C114D104E104F10419F02E5FC701B60192
:10459000DC01CB01B695A79597958795892B8A2B3A
:1045A0008B2B09F02F5F822FFF90EF90DF90CF9041
:1045B00008958295982F9C7C392F36953695282F13
:1045C000237344E0249FC0011124932F982B292F9B
:1045D0002A7A2695892F8575880F822B08951F9337
:1045E000CF93DF931F92CDB7DEB799830E94D92274
:1045F000182F9981892F0E94D922212F30E0322F44
:104600002227A901482BCA010F90DF91CF911F915A
:1046100008958091F201843021F11092D70120E4B5
:1046200088E190E00FB6F894A895809360000FBEE3
:104630002093600083B7817F846083BF83B78160EC
:1046400083BF7894889583B78E7F83BF0FB6F89425
:10465000A89580916000886180936000109260004E
:104660000FBE0895CF930E94EC090E94150B0E9483
:10467000ED09C0E08C2F0E94410C811104C0CF5F76
:10468000CE30C1F701C081E0CF9108950C94491B51
:1046900082E084BD93E095BD9AEF97BD80936E0054
:1046A00008952FB7F8948091DA019091DB01A091E1
:1046B000DC01B091DD012FBF0895CF92DF92EF9220
:1046C000FF920F931F932FB7F8944091DA01509106
:1046D000DB016091DC017091DD012FBF6A017B017C
:1046E000EE24FF248C0120E030E0C016D106E20663
:1046F000F30610F4415051099A01281B390BC901E6
:104700001F910F91FF90EF90DF90CF9008951F922F
:104710000F920FB60F9211248F939F93AF93BF9375
:104720008091DA019091DB01A091DC01B091DD0173
:104730000196A11DB11D8093DA019093DB01A09336
:10474000DC01B093DD01BF91AF919F918F910F90EC
:104750000FBE0F901F9018950E947A11F8942FEFBA
:1047600087EA91E6215080409040E1F700C00000C8
:1047700087E090EBDC018093FB019093FC01A09318
:10478000FD01B093FE019CE088E10FB6F894A89576
:10479000809360000FBE90936000FFCFEF92FF9276
:1047A0000F931F93CF93DF93D82FC0E08C2F0E94DD
:1047B000410C00E010E0E82EF12CC701002E02C0F1
:1047C000959587950A94E2F780FD06C00F5F1F4F0D
:1047D0000630110591F709C0602F7C2F80E00E9400
:1047E000AF0AD813F3CF81E004C0CF5FCE30F1F62B
:1047F00080E0DF91CF911F910F91FF90EF9008958E
:10480000CF93C82F8CE20E94CE23882321F08C2FD7
:10481000CF910C94CE2380E0CF910895CF930E9446
:104820005D25811102C00E9443258EE696E00E941C
:104830004A09C5E6C15049F00E94150B8FE39CE977
:104840000197F1F700C00000F5CF87E696E00E94DF
:104850004A0989E20E940024811113C18AE20E9460
:10486000002481110E94432585E00E9400248111CB
:104870000E94AC230E9468258093D60187E00E94A5
:1048800000248823A9F18BE10E940024882351F0A1
:104890008091D60181FB222720F991E0922790FB9D
:1048A00081F90EC08EE00E940024882361F080917F
:1048B000D60182FB222720F991E0922790FB82F912
:1048C0008093D60115C080E10E9400249091D6010A
:1048D000882341F093FB222720F981E0822780FB87
:1048E00093F904C0892F809580FB90F99093D601AD
:1048F0008091D6010E946C250E947A258093ED015B
:1049000080EE0E940024882341F08091ED01982FD1
:10491000909590FB80F98093ED0189E30E9400243B
:10492000882359F08091ED0181FB222720F991E045
:10493000922790FB81F98093ED0182EE0E94002482
:10494000882359F08091ED0182FB222720F991E024
:10495000922790FB82F98093ED0186EE0E9400245D
:10496000882359F08091ED0183FB222720F991E003
:10497000922790FB83F98093ED0183EE0E9400243F
:10498000882359F08091ED0184FB222720F991E0E2
:10499000922790FB84F98093ED0185E30E94002427
:1049A000882359F08091ED0185FB222720F991E0C1
:1049B000922790FB85F98093ED0181E30E9400240A
:1049C000882359F08091ED0186FB222720F991E0A0
:1049D000922790FB86F98093ED0181E10E940024EB
:1049E000882359F08091ED0187FB222720F991E07F
:1049F000922790FB87F98093ED018091ED010E9451
:104A00007E258091ED0187FB882780F980930D0139
:104A100087E20E940024C82F8EE10E9400248111A9
:104A2000C2608FE10E9400248111C46080E20E9474
:104A300000248111C86081E20E9400248111C061BC
:104A400082E20E9400248111C06283E20E9400245D
:104A50008111C06484E20E940024882311F0C068A0
:104A600002C0CC2329F08C2F0E9475256C2F03C027
:104A70000E947125682F70E080E090E0CF910C9447
:104A8000FD1ECF9108956DEE7EEF80E090E00E94D4
:104A9000CC3060E082E090E00E94BE3060E083E0D5
:104AA00090E00E94BE3060E084E090E00E94BE3062
:104AB00060E085E090E00C94BE3080E090E00E94E1
:104AC000B83021E08D3E9E4F09F020E0822F0895FE
:104AD00082E090E00C94B030682F82E090E00C947B
:104AE000BE3083E090E00C94B030682F83E090E01B
:104AF0000C94BE3084E090E00C94B030682F84E0D9
:104B000090E00C94BE308091E00180FF0BC060917A
:104B1000130185E0689FB00111247595679575951F
:104B200067952BC081FF09C06091130185E0689FE4
:104B3000B00111247595679520C082FF07C0609170
:104B4000130185E0689FB001112417C09091E10125
:104B50009923D1F060911201961788F720911301E3
:104B600085E0289F90011124929FA001939F500DF2
:104B7000112470E0CA010E9482306038710540F44F
:104B80006115710539F002C065E070E0862F089567
:104B90008FE7089581E008958091E00180FF08C0CB
:104BA0006091110170E0759567957595679521C0C5
:104BB00081FF06C06091110170E07595679519C07D
:104BC00082FF04C06091110170E010C09091E1017A
:104BD0009923C1F0609110019617A0F780911101FF
:104BE000899FC001112470E00E94823060387105F5
:104BF00028F46115710521F0862F08958FE7089537
:104C000081E0089561E070E0F4CF803F21F40E94DC
:104C10008325819504C0813F29F40E9483258093D8
:104C2000E4010895823F21F40E948325819504C008
:104C3000833F29F40E9483258093E3010895893FEF
:104C400019F40E94CC2505C08A3F31F40E94CC257E
:104C500081958093E50108958B3F21F40E94CC2536
:104C6000819504C08C3F29F40E94CC258093E601F5
:104C70000895843F21F48091E201816017C0853F4F
:104C800021F48091E201826011C0863F21F480917D
:104C9000E20184600BC0873F21F48091E2018860CB
:104CA00005C0883F31F48091E20180618093E20188
:104CB00008958D3F21F48091E00181600BC08E3F0B
:104CC00021F48091E001826005C08F3F29F480913A
:104CD000E00184608093E0010895803F39F4809181
:104CE000E40187FF6CC01092E40169C0813F29F4A0
:104CF0008091E4011816BCF362C09091E301823FF9
:104D000029F497FF5CC01092E30159C0833F19F466
:104D10001916CCF354C0893F41F48091E50118166F
:104D20000CF04DC01092E5014AC08A3F29F48091F1
:104D3000E50187FF44C0F6CF8B3F39F48091E6014F
:104D400087FF3DC01092E6013AC08C3F29F4809164
:104D5000E6011816BCF333C0843F21F48091E201D0
:104D60008E7F17C0853F21F48091E2018D7F11C0B5
:104D7000863F21F48091E2018B7F0BC0873F21F4B5
:104D80008091E201877F05C0883F31F48091E20184
:104D90008F7E8093E20113C08D3F21F48091E0016A
:104DA0008E7F0BC08E3F21F48091E0018D7F05C086
:104DB0008F3F29F48091E0018B7F8093E001809107
:104DC000E30181110EC08091E40181110AC080913C
:104DD000E501811106C08091E601811102C01092A7
:104DE000E10108958091D60183FF7EC08AEA96E0B2
:104DF0000E944A098091E2011F928F9385EA96E012
:104E00009F938F930E94E30983EA96E00E944A09E8
:104E10008091E301282F082E000C330B3F938F93D2
:104E200080EA96E09F938F930E94E3098EE996E0D3
:104E30000E944A098091E401282F082E000C330BB0
:104E40003F938F938BE996E09F938F930E94E309A2
:104E500089E996E00E944A098091E501282F082EF1
:104E6000000C330B3F938F9386E996E09F938F93CB
:104E70000E94E30984E996E00E944A098091E601D4
:104E8000282F082E000C330B3F938F9381E996E077
:104E90009F938F930E94E3098EE896E00E944A094F
:104EA0008091E1011F928F938BE896E09F938F93FF
:104EB0000E94E30989E896E00E944A098091E00196
:104EC0001F928F9386E896E09F938F930E94E30949
:104ED00083E896E00E944A098DB79EB74C960FB6BC
:104EE000F8949EBF0FBE8DBF82EE91E00E94BE156A
:104EF0000E9451239093DF018093DE0108951F9358
:104F0000CF93DF938091DE019091DF010E945D23BA
:104F1000AC019091E101992321F02091140130E03E
:104F200006C0209115018AE0289F900111244217A4
:104F3000530708F485C08091E301C091E401D0914A
:104F4000E5011091E601811107C0C11175C0D111B1
:104F500073C0111171C074C09F3F19F09F5F90938F
:104F6000E101181624F40E9483258093E3018091C7
:104F7000E30187FF05C00E94832581958093E301AB
:104F80001C1624F40E9483258093E4018091E4019F
:104F900087FF05C00E94832581958093E40160917D
:104FA000E301662331F1C091E401CC2311F1062E17
:104FB000000C770B880B990B0E94892F23E333E3B6
:104FC00043E35FE30E94ED2F0E94512F6093E301C2
:104FD0006C2FCC0F770B880B990B0E94892F23E342
:104FE00033E343E35FE30E94ED2F0E94512F609370
:104FF000E4011D1624F40E94CC258093E5018091E4
:10500000E50187FF05C00E94CC2581958093E501CD
:10501000111624F40E94CC258093E6018091E601CC
:1050200087FF05C00E94CC2581958093E601DF9122
:10503000CF911F910C94F2269F3F09F08FCF97CF0D
:10504000DF91CF911F910895E2EEF1E085E0DF015D
:105050001D928A95E9F71092E1011092E0010895FE
:1050600089E79BE00E944A098CE69BE00E944A097E
:105070008FE59BE00C944A098CED9AE00E944A0966
:105080008FEC9AE00E944A0984EB9AE00E944A0958
:1050900089E99AE00E944A0981E89AE00E944A0957
:1050A00087E69AE00E944A0989E49AE00E944A0948
:1050B00089E29AE00E944A0984E19AE00E944A0942
:1050C0008DEF99E00E944A0980EE99E00E944A091A
:1050D00081EC99E00E944A0981EA99E00E944A091C
:1050E0008FE799E00E944A098AE499E00E944A0900
:1050F00085E399E00E944A091F9285E08F9382E33D
:1051000099E09F938F930E94E30989E299E00E94BE
:105110004A091F9281E08F9386E299E09F938F93D3
:105120000E94E30984E299E00E944A098DB79EB784
:1051300008960FB6F8949EBF0FBE8DBF87EF98E01C
:105140000C944A09833009F459C028F4813061F085
:10515000823079F10895853009F49AC008F473C05B
:10516000863009F4BAC0089580911501262F30E0E9
:10517000280F311D2F3F310524F4680F609315016E
:1051800003C08FEF8093150183ED97E00E944A09D9
:10519000809115011F928F9380ED97E09F938F93DD
:1051A0000E94E3090F900F900F900F908EEC97E004
:1051B000B8C080911401262F30E0280F311D2F3FF9
:1051C000310524F4680F6093140103C08FEF8093BE
:1051D00014018FEB97E00E944A09809114011F92FD
:1051E0008F938CEB97E09F938F930E94E3090F902E
:1051F0000F900F900F908AEB97E093C0809113016E
:10520000262F30E0280F311D2F3F310524F4680F81
:105210006093130103C08FEF809313018AEA97E034
:105220000E944A09809113011F928F9387EA97E0A9
:105230009F938F930E94E3090F900F900F900F9010
:1052400085EA97E06EC080911201262F30E0280F8A
:10525000311D2F3F310524F4680F6093120103C004
:105260008FEF8093120183E997E00E944A098091B1
:1052700012011F928F9380E997E09F938F930E9472
:10528000E3090F900F900F900F908EE897E049C0C0
:1052900080911101262F30E0280F311D2F3F31055D
:1052A00024F4680F6093110103C08FEF8093110104
:1052B00088E797E00E944A09809111011F928F931D
:1052C00085E797E09F938F930E94E3090F900F90DB
:1052D0000F900F9083E797E024C080911001262F54
:1052E00030E0280F311D2F3F310524F4680F609303
:1052F000100103C08FEF809310018BE597E00E94AF
:105300004A09809110011F928F9388E597E09F933F
:105310008F930E94E3090F900F900F900F9086E5F6
:1053200097E00C944A09833009F44DC028F4813089
:1053300061F0823049F10895853009F482C008F4A3
:1053400061C0863009F49CC00895809115016817EA
:1053500020F4861B8093150102C0109215018AE487
:1053600097E00E944A09809115011F928F9387E46C
:1053700097E09F938F930E94E3090F900F900F90F7
:105380000F9085E497E09AC080911401681720F48B
:10539000861B8093140102C01092140186E397E0EB
:1053A0000E944A09809114011F928F9383E397E032
:1053B0009F938F930E94E3090F900F900F900F908F
:1053C00081E397E07BC080911301681720F4861B6E
:1053D0008093130102C01092130181E297E00E94B2
:1053E0004A09809113011F928F938EE197E09F935A
:1053F0008F930E94E3090F900F900F900F908CE114
:1054000097E05CC080911201681720F4861B80939E
:10541000120102C0109212018AE097E00E944A092C
:10542000809112011F928F9387E097E09F938F9353
:105430000E94E3090F900F900F900F9085E097E086
:105440003DC080911101681720F4861B80931101E3
:1054500002C0109211018FEE96E00E944A098091DD
:1054600011011F928F938CEE96E09F938F930E9471
:10547000E3090F900F900F900F908AEE96E01EC0F8
:1054800080911001681720F4861B8093100102C0E0
:105490001092100182ED96E00E944A09809110015D
:1054A0001F928F938FEC96E09F938F930E94E30956
:1054B0000F900F900F900F908DEC96E00C944A098E
:1054C000CF93C82F88E49BE00E944A096091BF01F6
:1054D0007091C0018091C1019091C2010E94892206
:1054E0001F928F9385E49BE09F938F930E94E30923
:1054F00080E49BE00E944A091F92CF938DE39BE0DA
:105500009F938F930E94E3098BE39BE00E944A09DB
:1055100081E090E0A0E0B0E0BC01CD0104C0660FE6
:10552000771F881F991FCA95D2F70E94FD1E8DB75D
:105530009EB708960FB6F8949EBF0FBE8DBFCF9151
:105540000C94491BCF93482F50E0FA013697E3346F
:10555000F10508F0C0C2E059FF4F0C94963089E97C
:1055600091E10E944A090E940B2F0E9469150E9436
:105570008E0C43C18EE891E10E944A0980EC9EE0C6
:105580000E944A090E9471251F928F938DEB9EE025
:105590009F938F930E94E3098BEB9EE00E944A0940
:1055A0000E946825C82F88EA9EE00E944A091F923F
:1055B000CF9383EA9EE09F938F930E94E30981EA51
:1055C0009EE00E944A0987E99EE00E944A098C2FCA
:1055D00081701F928F9384E99EE09F938F930E9426
:1055E000E30982E99EE00E944A0988E89EE00E9461
:1055F0004A09C1FB882780F91F928F9385E89EE0B6
:105600009F938F930E94E30983E89EE00E944A09DA
:1056100087E79EE00E944A09C2FB882780F91F9213
:105620008F9384E79EE09F938F930E94E30982E724
:105630009EE00E944A0989E69EE00E944A09C3FB57
:10564000CC27C0F91F92CF9386E69EE09F938F935D
:105650000E94E30984E69EE00E944A090E947A259E
:10566000C82F80E59EE00E944A091F92CF938BE4E9
:105670009EE09F938F930E94E30989E49EE00E943D
:105680004A0980E39EE00E944A098C2F81701F9294
:105690008F938DE29EE09F938F930E94E3098DB7D5
:1056A0009EB780960FB6F8949EBF0FBE8DBF8BE25B
:1056B0009EE00E944A0984E19EE00E944A09C1FBE3
:1056C000882780F91F928F9381E19EE09F938F93AB
:1056D0000E94E3098FE09EE00E944A098DEF9DE061
:1056E0000E944A09C2FB882780F91F928F938AEF94
:1056F0009DE09F938F930E94E30988EF9DE00E94B5
:105700004A0986EE9DE00E944A09C3FB882780F97A
:105710001F928F9383EE9DE09F938F930E94E309E6
:1057200081EE9DE00E944A0987ED9DE00E944A09B2
:10573000C4FB882780F91F928F9384ED9DE09F938F
:105740008F930E94E30982ED9DE00E944A0980EC5C
:105750009DE00E944A09C5FB882780F91F928F931C
:105760008DEB9DE09F938F930E94E3098BEB9DE06F
:105770000E944A098FE99DE00E944A09C6FB8827DA
:1057800080F91F928F938CE99DE09F938F930E94E5
:10579000E3098AE99DE00E944A0982E99DE00E94AE
:1057A0004A09C7FBCC27C0F91F92CF938FE89DE031
:1057B0009F938F930E94E3098DE89DE00E944A0920
:1057C0008DB79EB74C960FB6F8949EBF0FBE8DBF97
:1057D00014C00E946415892B91F00E946415909367
:1057E000E9018093E8010E94491B80E090E00E945B
:1057F0005F1585E891E10E944A09C1E071C180917D
:10580000E8019091E9010E945F158AE791E1F3CFE9
:1058100081E79DE00E944A098AE59DE00E944A09CD
:1058200082E49DE00E944A098AE29DE00E944A09C2
:1058300080E19DE00E944A0989EF9CE00E944A09AC
:105840008FED9CE00E944A098FEB9CE00E944A0980
:1058500089EA9CE00E944A0988E99CE00E944A0982
:1058600080E89CE00E944A0980E79CE00E944A0987
:1058700086E59CE00E944A098DE39CE00E944A096B
:1058800084E29CE00E944A098BE09CE00E944A0965
:1058900082EF9BE00E944A0981ED9BE00E944A0949
:1058A0008FEA9BE00E944A0985E99BE0A4CF8091A2
:1058B000D601817F8E7F8093D6010E94302885E6B5
:1058C00091E10E944A0981E691E10E944A0981E042
:1058D0008093E70192CF0E94491B88E491E10E94E6
:1058E0004A099FEF23ED80E3915020408040E1F78B
:1058F00000C000000E94AC2388E391E17CCF80913E
:10590000D601C82FC17080FF09C085E291E10E94D5
:105910004A098091D601817F8E7F47C083E191E162
:105920000E944A098091D60181608093D60165CF9B
:105930009091D60191FBCC27C0F981E0C827892F2F
:10594000C0FB81F98093D601CC2319F08AEF90E156
:1059500027C080EE90E14FCF9091D60192FBCC27EB
:10596000C0F981E0C827892FC0FB82F98093D60156
:10597000CC2319F085EC90E113C089EA90E13BCF8C
:105980009091D60193FBCC27C0F981E0C827892FDD
:10599000C0FB83F98093D601CC2351F081E990E1DB
:1059A0000E944A098091D60181608093D60198C0F7
:1059B00088E790E120CF81E690E10E944A0985E3E3
:1059C00090E10E944A098EEF9FE00E944A0981ED12
:1059D0009FE00E944A098DE89FE00E944A098FE5F6
:1059E0009FE009CF8091DA019091DB01A091DC0169
:1059F000B091DD01BF93AF939F938F938BE49FE0B2
:105A00009F938F930E94E3090F900F900F900F9038
:105A10000F900F90F2CE85E39FE00E944A090E940A
:105A200069151F928F938BE19FE09F938F930E9444
:105A3000E30980910C011F928F9384E09FE09F9374
:105A40008F930E94E30980915B011F928F9381EFF6
:105A50009EE09F938F930E94E3098DB79EB70C96AB
:105A60000FB6F8949EBF0FBE8DBFC7CE0E94491BD4
:105A7000C0910D0181E0C827C0930D01CC2329F00E
:105A800082EE9EE00E944A092BC082ED9EE0B3CEDA
:105A900081E890E00E94C9159FEF21EE84E09150CB
:105AA00020408040E1F700C0000080E090E00E94CC
:105AB000C9159FEF29E688E1915020408040E1F729
:105AC00000C000009ACE80E003C08D5101C0895310
:105AD0000E94602A92CE80ED9EE00E944A09C0E0BA
